{
  "contractName": "Company",
  "abi": [
    {
      "constant": true,
      "inputs": [],
      "name": "companyAddress",
      "outputs": [
        {
          "internalType": "address",
          "name": "",
          "type": "address"
        }
      ],
      "payable": false,
      "stateMutability": "view",
      "type": "function"
    },
    {
      "constant": true,
      "inputs": [],
      "name": "companyName",
      "outputs": [
        {
          "internalType": "string",
          "name": "",
          "type": "string"
        }
      ],
      "payable": false,
      "stateMutability": "view",
      "type": "function"
    },
    {
      "constant": true,
      "inputs": [],
      "name": "date",
      "outputs": [
        {
          "internalType": "uint256",
          "name": "",
          "type": "uint256"
        }
      ],
      "payable": false,
      "stateMutability": "view",
      "type": "function"
    },
    {
      "constant": true,
      "inputs": [
        {
          "internalType": "uint256",
          "name": "",
          "type": "uint256"
        }
      ],
      "name": "jobs",
      "outputs": [
        {
          "internalType": "contract Job",
          "name": "",
          "type": "address"
        }
      ],
      "payable": false,
      "stateMutability": "view",
      "type": "function"
    },
    {
      "constant": true,
      "inputs": [],
      "name": "noOfJobs",
      "outputs": [
        {
          "internalType": "uint256",
          "name": "",
          "type": "uint256"
        }
      ],
      "payable": false,
      "stateMutability": "view",
      "type": "function"
    },
    {
      "constant": false,
      "inputs": [
        {
          "internalType": "string",
          "name": "_companyName",
          "type": "string"
        },
        {
          "internalType": "address",
          "name": "_addr",
          "type": "address"
        }
      ],
      "name": "addCompany",
      "outputs": [],
      "payable": false,
      "stateMutability": "nonpayable",
      "type": "function"
    },
    {
      "constant": false,
      "inputs": [
        {
          "internalType": "uint256",
          "name": "_jobId",
          "type": "uint256"
        },
        {
          "internalType": "address",
          "name": "_hired",
          "type": "address"
        }
      ],
      "name": "setHired",
      "outputs": [],
      "payable": false,
      "stateMutability": "nonpayable",
      "type": "function"
    },
    {
      "constant": true,
      "inputs": [
        {
          "internalType": "uint256",
          "name": "_jobId",
          "type": "uint256"
        }
      ],
      "name": "isActive",
      "outputs": [
        {
          "internalType": "bool",
          "name": "",
          "type": "bool"
        }
      ],
      "payable": false,
      "stateMutability": "view",
      "type": "function"
    },
    {
      "constant": true,
      "inputs": [
        {
          "internalType": "uint256",
          "name": "jobId",
          "type": "uint256"
        }
      ],
      "name": "getRequests",
      "outputs": [
        {
          "internalType": "address[]",
          "name": "",
          "type": "address[]"
        },
        {
          "internalType": "string[]",
          "name": "",
          "type": "string[]"
        },
        {
          "internalType": "uint256[]",
          "name": "",
          "type": "uint256[]"
        }
      ],
      "payable": false,
      "stateMutability": "view",
      "type": "function"
    },
    {
      "constant": false,
      "inputs": [
        {
          "internalType": "uint256",
          "name": "jobId",
          "type": "uint256"
        },
        {
          "internalType": "address",
          "name": "addr",
          "type": "address"
        }
      ],
      "name": "rejected",
      "outputs": [],
      "payable": false,
      "stateMutability": "nonpayable",
      "type": "function"
    },
    {
      "constant": false,
      "inputs": [
        {
          "internalType": "uint256",
          "name": "jobId",
          "type": "uint256"
        },
        {
          "internalType": "address",
          "name": "addr",
          "type": "address"
        }
      ],
      "name": "verified",
      "outputs": [],
      "payable": false,
      "stateMutability": "nonpayable",
      "type": "function"
    },
    {
      "constant": true,
      "inputs": [
        {
          "internalType": "uint256",
          "name": "jobId",
          "type": "uint256"
        },
        {
          "internalType": "address",
          "name": "addr",
          "type": "address"
        }
      ],
      "name": "checkVerification",
      "outputs": [
        {
          "internalType": "string",
          "name": "",
          "type": "string"
        }
      ],
      "payable": false,
      "stateMutability": "view",
      "type": "function"
    },
    {
      "constant": false,
      "inputs": [
        {
          "internalType": "string",
          "name": "_jobName",
          "type": "string"
        },
        {
          "internalType": "address",
          "name": "_postedBy",
          "type": "address"
        },
        {
          "internalType": "uint256",
          "name": "_salary",
          "type": "uint256"
        },
        {
          "internalType": "string",
          "name": "_jobLocation",
          "type": "string"
        },
        {
          "internalType": "string",
          "name": "_jobType",
          "type": "string"
        },
        {
          "internalType": "uint256",
          "name": "_jobid",
          "type": "uint256"
        }
      ],
      "name": "addJob",
      "outputs": [],
      "payable": false,
      "stateMutability": "nonpayable",
      "type": "function"
    },
    {
      "constant": false,
      "inputs": [
        {
          "internalType": "uint256",
          "name": "_jobid",
          "type": "uint256"
        },
        {
          "internalType": "address",
          "name": "addr",
          "type": "address"
        },
        {
          "internalType": "string",
          "name": "ipfs",
          "type": "string"
        },
        {
          "internalType": "uint256",
          "name": "cerId",
          "type": "uint256"
        }
      ],
      "name": "applyJob",
      "outputs": [],
      "payable": false,
      "stateMutability": "nonpayable",
      "type": "function"
    },
    {
      "constant": true,
      "inputs": [
        {
          "internalType": "uint256",
          "name": "_jobid",
          "type": "uint256"
        }
      ],
      "name": "getJob",
      "outputs": [
        {
          "internalType": "contract Job",
          "name": "j",
          "type": "address"
        }
      ],
      "payable": false,
      "stateMutability": "view",
      "type": "function"
    },
    {
      "constant": true,
      "inputs": [
        {
          "internalType": "uint256",
          "name": "_jobId",
          "type": "uint256"
        },
        {
          "internalType": "address",
          "name": "st",
          "type": "address"
        }
      ],
      "name": "jobStatus",
      "outputs": [
        {
          "internalType": "string",
          "name": "status",
          "type": "string"
        }
      ],
      "payable": false,
      "stateMutability": "view",
      "type": "function"
    }
  ],
  "bytecode": "0x608060405234801561001057600080fd5b506128b8806100206000396000f3fe608060405234801561001057600080fd5b50600436106101005760003560e01c806382afd23b11610097578063d5e7882911610066578063d5e7882914610214578063dd3a45c014610236578063e9f30b5114610249578063f5ec2eed1461025c57610100565b806382afd23b146101bb5780639b802718146101db578063bf22c457146101ee578063d004eb0f1461020157610100565b8063351e476e116100d3578063351e476e1461016b57806338f032691461018b57806342bd82721461019e57806353e1ead9146101a657610100565b8063168342d314610105578063180aedf31461011a57806324d7356714610143578063323046b114610156575b600080fd5b610118610113366004610c8e565b610264565b005b61012d610128366004610d5c565b610360565b60405161013a91906110f9565b60405180910390f35b610118610151366004610d98565b610387565b61015e6103f8565b60405161013a9190611199565b61017e610179366004610d98565b6103fe565b60405161013a9190611107565b610118610199366004610c3d565b610498565b61015e6104d3565b6101ae6104d9565b60405161013a9190611064565b6101ce6101c9366004610d5c565b6104e8565b60405161013a91906110eb565b6101186101e9366004610d98565b610570565b61012d6101fc366004610d5c565b6105aa565b61017e61020f366004610d98565b610686565b610227610222366004610d5c565b6106c2565b60405161013a939291906110a9565b610118610244366004610d98565b610757565b610118610257366004610db7565b610791565b61017e610808565b600060405161027290610896565b604051809103906000f08015801561028e573d6000803e3d6000fd5b506040516301e5865960e51b81529091506001600160a01b03821690633cb0cb20906102cb908a908a908a908a908a908a90600090600401611118565b600060405180830381600087803b1580156102e557600080fd5b505af11580156102f9573d6000803e3d6000fd5b505060028054600180820183556000929092527f405787fa12a823e0f2b7631cc41b3ba8828b3321ca811111fa75cd3aa3bb5ace0180546001600160a01b0319166001600160a01b0395909516949094179093555050600380549091019055505050505050565b6002818154811061036d57fe5b6000918252602090912001546001600160a01b0316905081565b6000610392836105aa565b60405163036c197d60e21b81529091506001600160a01b03821690630db065f4906103c1908590600401611064565b600060405180830381600087803b1580156103db57600080fd5b505af11580156103ef573d6000803e3d6000fd5b50505050505050565b60045481565b6060600061040b846105aa565b60405163baab979760e01b81529091506001600160a01b0382169063baab97979061043a908690600401611064565b60006040518083038186803b15801561045257600080fd5b505afa158015610466573d6000803e3d6000fd5b505050506040513d6000823e601f3d908101601f1916820160405261048e9190810190610c08565b9150505b92915050565b81516104ab9060009060208501906108a3565b50600180546001600160a01b0319166001600160a01b03929092169190911790555042600455565b60035481565b6001546001600160a01b031681565b6000806104f4836105aa565b9050806001600160a01b03166322f3e2d46040518163ffffffff1660e01b815260040160206040518083038186803b15801561052f57600080fd5b505afa158015610543573d6000803e3d6000fd5b505050506040513d601f19601f820116820180604052506105679190810190610bea565b9150505b919050565b600061057b836105aa565b604051635c8ee5cf60e01b81529091506001600160a01b03821690635c8ee5cf906103c1908590600401611064565b6000805b6002548110156106805782600282815481106105c657fe5b600091825260209182902001546040805163c2939d9760e01b815290516001600160a01b039092169263c2939d9792600480840193829003018186803b15801561060f57600080fd5b505afa158015610623573d6000803e3d6000fd5b505050506040513d601f19601f820116820180604052506106479190810190610d7a565b1415610678576002818154811061065a57fe5b6000918252602090912001546001600160a01b0316915061056b9050565b6001016105ae565b50919050565b60606000610693846105aa565b60405163271c33cd60e11b81529091506001600160a01b03821690634e38679a9061043a908690600401611064565b606080606060006106d2856105aa565b9050806001600160a01b0316638813ce126040518163ffffffff1660e01b815260040160006040518083038186803b15801561070d57600080fd5b505afa158015610721573d6000803e3d6000fd5b505050506040513d6000823e601f3d908101601f191682016040526107499190810190610b56565b935093509350509193909250565b6000610762836105aa565b60405163ab0da5a960e01b81529091506001600160a01b0382169063ab0da5a9906103c1908590600401611064565b600061079c856105aa565b60405163b4cc4f7960e01b81529091506001600160a01b0382169063b4cc4f79906107cf90879087908790600401611072565b600060405180830381600087803b1580156107e957600080fd5b505af11580156107fd573d6000803e3d6000fd5b505050505050505050565b6000805460408051602060026001851615610100026000190190941693909304601f8101849004840282018401909252818152929183018282801561088e5780601f106108635761010080835404028352916020019161088e565b820191906000526020600020905b81548152906001019060200180831161087157829003601f168201915b505050505081565b6115a9806112cd83390190565b828054600181600116156101000203166002900490600052602060002090601f016020900481019282601f106108e457805160ff1916838001178555610911565b82800160010185558215610911579182015b828111156109115782518255916020019190600101906108f6565b5061091d929150610921565b5090565b61093b91905b8082111561091d5760008155600101610927565b90565b8035610492816112a3565b8051610492816112a3565b600082601f83011261096557600080fd5b8151610978610973826111ce565b6111a7565b9150818183526020840193506020810190508385602084028201111561099d57600080fd5b60005b838110156109c957816109b38882610949565b84525060209283019291909101906001016109a0565b5050505092915050565b600082601f8301126109e457600080fd5b81516109f2610973826111ce565b81815260209384019390925082018360005b838110156109c95781518601610a1a8882610aab565b8452506020928301929190910190600101610a04565b600082601f830112610a4157600080fd5b8151610a4f610973826111ce565b91508181835260208401935060208101905083856020840282011115610a7457600080fd5b60005b838110156109c95781610a8a8882610b4b565b8452506020928301929190910190600101610a77565b8051610492816112ba565b600082601f830112610abc57600080fd5b8151610aca610973826111ef565b91508082526020830160208301858383011115610ae657600080fd5b610af1838284611269565b50505092915050565b600082601f830112610b0b57600080fd5b8135610b19610973826111ef565b91508082526020830160208301858383011115610b3557600080fd5b610af183828461125d565b8035610492816112c3565b8051610492816112c3565b600080600060608486031215610b6b57600080fd5b835167ffffffffffffffff811115610b8257600080fd5b610b8e86828701610954565b935050602084015167ffffffffffffffff811115610bab57600080fd5b610bb7868287016109d3565b925050604084015167ffffffffffffffff811115610bd457600080fd5b610be086828701610a30565b9150509250925092565b600060208284031215610bfc57600080fd5b600061048e8484610aa0565b600060208284031215610c1a57600080fd5b815167ffffffffffffffff811115610c3157600080fd5b61048e84828501610aab565b60008060408385031215610c5057600080fd5b823567ffffffffffffffff811115610c6757600080fd5b610c7385828601610afa565b9250506020610c848582860161093e565b9150509250929050565b60008060008060008060c08789031215610ca757600080fd5b863567ffffffffffffffff811115610cbe57600080fd5b610cca89828a01610afa565b9650506020610cdb89828a0161093e565b9550506040610cec89828a01610b40565b945050606087013567ffffffffffffffff811115610d0957600080fd5b610d1589828a01610afa565b935050608087013567ffffffffffffffff811115610d3257600080fd5b610d3e89828a01610afa565b92505060a0610d4f89828a01610b40565b9150509295509295509295565b600060208284031215610d6e57600080fd5b600061048e8484610b40565b600060208284031215610d8c57600080fd5b600061048e8484610b4b565b60008060408385031215610dab57600080fd5b6000610c738585610b40565b60008060008060808587031215610dcd57600080fd5b6000610dd98787610b40565b9450506020610dea8782880161093e565b935050604085013567ffffffffffffffff811115610e0757600080fd5b610e1387828801610afa565b9250506060610e2487828801610b40565b91505092959194509250565b6000610e3c8383610e63565b505060200190565b6000610e508383610f99565b9392505050565b6000610e3c838361105b565b610e6c81611236565b82525050565b6000610e7d82611229565b610e87818561122d565b9350610e9283611217565b8060005b83811015610ec0578151610eaa8882610e30565b9750610eb583611217565b925050600101610e96565b509495945050505050565b6000610ed682611229565b610ee0818561122d565b935083602082028501610ef285611217565b8060005b85811015610f2c5784840389528151610f0f8582610e44565b9450610f1a83611217565b60209a909a0199925050600101610ef6565b5091979650505050505050565b6000610f4482611229565b610f4e818561122d565b9350610f5983611217565b8060005b83811015610ec0578151610f718882610e57565b9750610f7c83611217565b925050600101610f5d565b610e6c81611241565b610e6c81611252565b6000610fa482611229565b610fae818561122d565b9350610fbe818560208601611269565b610fc781611299565b9093019392505050565b600081546001811660008114610fee576001811461101457611053565b607f6002830416610fff818761122d565b60ff1984168152955050602085019250611053565b60028204611022818761122d565b955061102d8561121d565b60005b8281101561104c57815488820152600190910190602001611030565b8701945050505b505092915050565b610e6c8161093b565b602081016104928284610e63565b606081016110808286610e63565b81810360208301526110928185610f99565b90506110a1604083018461105b565b949350505050565b606080825281016110ba8186610e72565b905081810360208301526110ce8185610ecb565b905081810360408301526110e28184610f39565b95945050505050565b602081016104928284610f87565b602081016104928284610f90565b60208082528101610e508184610f99565b60e08082528101611129818a610f99565b90506111386020830189610e63565b611145604083018861105b565b81810360608301526111578187610f99565b9050818103608083015261116b8186610f99565b905061117a60a083018561105b565b81810360c083015261118c8184610fd1565b9998505050505050505050565b60208101610492828461105b565b60405181810167ffffffffffffffff811182821017156111c657600080fd5b604052919050565b600067ffffffffffffffff8211156111e557600080fd5b5060209081020190565b600067ffffffffffffffff82111561120657600080fd5b506020601f91909101601f19160190565b60200190565b60009081526020902090565b5190565b90815260200190565b600061049282611246565b151590565b6001600160a01b031690565b600061049282611236565b82818337506000910152565b60005b8381101561128457818101518382015260200161126c565b83811115611293576000848401525b50505050565b601f01601f191690565b6112ac81611236565b81146112b757600080fd5b50565b6112ac81611241565b6112ac8161093b56fe608060405234801561001057600080fd5b50611589806100206000396000f3fe608060405234801561001057600080fd5b50600436106101c45760003560e01c80638813ce12116100f9578063baab979711610097578063dce523f811610071578063dce523f814610366578063f5ec2eed14610379578063f683747b14610381578063faf34aa914610394576101c4565b8063baab979714610338578063c2939d971461034b578063cd29485614610353576101c4565b8063a1194fcf116100d3578063a1194fcf146102f7578063ab0da5a91461030a578063b4cc4f791461031d578063b8d80f9a14610330576101c4565b80638813ce12146102c55780638c9878cc146102dc5780639056631d146102ef576101c4565b80633cb0cb20116101665780635c8ee5cf116101405780635c8ee5cf1461029a5780635d35f5f9146102ad5780637b2414e1146102b55780638080be77146102bd576101c4565b80633cb0cb20146102545780634cc82215146102675780634e38679a1461027a576101c4565b80631c270356116101a25780631c2703561461020f5780631eba26791461022f57806322bd6d3f1461023757806322f3e2d41461023f576101c4565b80630397b652146101c95780630db065f4146101e75780630f9c774d146101fc575b600080fd5b6101d16103a7565b6040516101de9190611457565b60405180910390f35b6101fa6101f53660046110a3565b6103ad565b005b6101d161020a366004611229565b610401565b61022261021d366004611229565b61041f565b6040516101de91906113e8565b610222610446565b610222610455565b610247610464565b6040516101de9190611438565b6101fa61026236600461112e565b610475565b6101fa610275366004611229565b610506565b61028d6102883660046110a3565b6105ae565b6040516101de9190611446565b6101fa6102a83660046110a3565b6106ed565b61028d610716565b6101d16107a4565b61028d6107aa565b6102cd610805565b6040516101de939291906113f6565b6102226102ea366004611229565b61099b565b6102476109a8565b61028d610305366004611229565b6109b8565b6101fa6103183660046110a3565b610a2b565b6101fa61032b3660046110c9565b610ad5565b61028d610bf3565b61028d6103463660046110a3565b610c4e565b6101d1610ce7565b6101fa610361366004611229565b610ced565b6101fa610374366004611229565b610d5e565b61028d610de1565b61022261038f366004611229565b610e3c565b6101fa6103a2366004611229565b610e49565b60055481565b60005b600a548110156103fd57816001600160a01b0316600a82815481106103d157fe5b6000918252602090912001546001600160a01b031614156103f5576103f581610506565b6001016103b0565b5050565b600c818154811061040e57fe5b600091825260209091200154905081565b6002818154811061042c57fe5b6000918252602090912001546001600160a01b0316905081565b6001546001600160a01b031681565b600d546001600160a01b031681565b600d54600160a01b900460ff165b90565b86516104889060009060208a0190610edf565b50600180546001600160a01b0319166001600160a01b038816179055600585905583516104bc906006906020870190610edf565b5082516104d0906007906020860190610edf565b50600482905580516104e9906008906020840190610edf565b5050600d805460ff60a01b1916600160a01b179055505050505050565b805b600a546000190181101561057d57600a816001018154811061052657fe5b600091825260209091200154600a80546001600160a01b03909216918390811061054c57fe5b600091825260209091200180546001600160a01b0319166001600160a01b0392909216919091179055600101610508565b50600a80548061058957fe5b600082815260209020810160001990810180546001600160a01b031916905501905550565b600d546060906001600160a01b03838116911614156105e95750604080518082019091526005815264121254915160da1b60208201526106e8565b60005b60025481101561065557826001600160a01b03166002828154811061060d57fe5b6000918252602090912001546001600160a01b0316141561064d5750506040805180820190915260078152661054141312515160ca1b60208201526106e8565b6001016105ec565b5060005b6009548110156106c357826001600160a01b03166009828154811061067a57fe5b6000918252602090912001546001600160a01b031614156106bb5750506040805180820190915260088152671491529150d5115160c21b60208201526106e8565b600101610659565b505060408051808201909152600b81526a1393d5081054141312515160aa1b60208201525b919050565b600d80546001600160a01b0319166001600160a01b03929092169190911760ff60a01b19169055565b6006805460408051602060026001851615610100026000190190941693909304601f8101849004840282018401909252818152929183018282801561079c5780601f106107715761010080835404028352916020019161079c565b820191906000526020600020905b81548152906001019060200180831161077f57829003601f168201915b505050505081565b60035481565b6007805460408051602060026001851615610100026000190190941693909304601f8101849004840282018401909252818152929183018282801561079c5780601f106107715761010080835404028352916020019161079c565b60608060606002600b600c8280548060200260200160405190810160405280929190818152602001828054801561086557602002820191906000526020600020905b81546001600160a01b03168152600190910190602001808311610847575b5050505050925081805480602002602001604051908101604052809291908181526020016000905b828210156109385760008481526020908190208301805460408051601f60026000196101006001871615020190941693909304928301859004850281018501909152818152928301828280156109245780601f106108f957610100808354040283529160200191610924565b820191906000526020600020905b81548152906001019060200180831161090757829003601f168201915b50505050508152602001906001019061088d565b5050505091508080548060200260200160405190810160405280929190818152602001828054801561098957602002820191906000526020600020905b815481526020019060010190808311610975575b50505050509050925092509250909192565b6009818154811061042c57fe5b600d54600160a01b900460ff1681565b600b81815481106109c557fe5b600091825260209182902001805460408051601f600260001961010060018716150201909416939093049283018590048502810185019091528181529350909183018282801561079c5780601f106107715761010080835404028352916020019161079c565b6009805460018101825560009182527f6e1540171b6c0c960b71a7020d9f60077f6af931a8bbf590da0223dacf75c7af0180546001600160a01b0319166001600160a01b0384161790555b6002548110156103fd57816001600160a01b031660028281548110610a9757fe5b6000918252602090912001546001600160a01b03161415610acd57610abb81610d5e565b610ac481610e49565b610acd81610ced565b600101610a76565b6002805460018082019092557f405787fa12a823e0f2b7631cc41b3ba8828b3321ca811111fa75cd3aa3bb5ace0180546001600160a01b0319166001600160a01b038616179055600b805491820180825560009190915283519091610b63917f0175b7a638427703f0dbe7bb9bbf987a2551717b34e79f33b5b1008d1fa01db9909101906020860190610edf565b5050600c805460018082019092557fdf6966c971051c3d54ec59162606531493a51404a002842f56009d7e5cf4a8c70191909155600a805480830182556000919091527fc65a7bb8d6351c1cf70c95a316cc6a92839c986682d98bc35f958f4883f9d2a80180546001600160a01b0319166001600160a01b03949094169390931790925550600380549091019055565b6000805460408051602060026001851615610100026000190190941693909304601f8101849004840282018401909252818152929183018282801561079c5780601f106107715761010080835404028352916020019161079c565b606060005b600a54811015610cc157826001600160a01b0316600a8281548110610c7457fe5b6000918252602090912001546001600160a01b03161415610cb957505060408051808201909152600c81526b139bdd0815995c9a599a595960a21b60208201526106e8565b600101610c53565b505060408051808201909152600881526715995c9a599a595960c21b6020820152919050565b60045481565b805b600c5460001901811015610d3957600c8160010181548110610d0d57fe5b9060005260206000200154600c8281548110610d2557fe5b600091825260209091200155600101610cef565b50600c805480610d4557fe5b6001900381819060005260206000200160009055905550565b805b60025460001901811015610dd55760028160010181548110610d7e57fe5b600091825260209091200154600280546001600160a01b039092169183908110610da457fe5b600091825260209091200180546001600160a01b0319166001600160a01b0392909216919091179055600101610d60565b50600280548061058957fe5b6008805460408051602060026001851615610100026000190190941693909304601f8101849004840282018401909252818152929183018282801561079c5780601f106107715761010080835404028352916020019161079c565b600a818154811061042c57fe5b805b600b5460001901811015610eb257600b8160010181548110610e6957fe5b90600052602060002001600b8281548110610e8057fe5b906000526020600020019080546001816001161561010002031660029004610ea9929190610f5d565b50600101610e4b565b50600b805480610ebe57fe5b600190038181906000526020600020016000610eda9190610fd2565b905550565b828054600181600116156101000203166002900490600052602060002090601f016020900481019282601f10610f2057805160ff1916838001178555610f4d565b82800160010185558215610f4d579182015b82811115610f4d578251825591602001919060010190610f32565b50610f59929150611019565b5090565b828054600181600116156101000203166002900490600052602060002090601f016020900481019282601f10610f965780548555610f4d565b82800160010185558215610f4d57600052602060002091601f016020900482015b82811115610f4d578254825591600101919060010190610fb7565b50805460018160011615610100020316600290046000825580601f10610ff85750611016565b601f0160209004906000526020600020908101906110169190611019565b50565b61047291905b80821115610f59576000815560010161101f565b803561103e81611529565b92915050565b600082601f83011261105557600080fd5b81356110686110638261148c565b611465565b9150808252602083016020830185838301111561108457600080fd5b61108f8382846114e3565b50505092915050565b803561103e8161153d565b6000602082840312156110b557600080fd5b60006110c18484611033565b949350505050565b6000806000606084860312156110de57600080fd5b60006110ea8686611033565b935050602084013567ffffffffffffffff81111561110757600080fd5b61111386828701611044565b925050604061112486828701611098565b9150509250925092565b600080600080600080600060e0888a03121561114957600080fd5b873567ffffffffffffffff81111561116057600080fd5b61116c8a828b01611044565b975050602061117d8a828b01611033565b965050604061118e8a828b01611098565b955050606088013567ffffffffffffffff8111156111ab57600080fd5b6111b78a828b01611044565b945050608088013567ffffffffffffffff8111156111d457600080fd5b6111e08a828b01611044565b93505060a06111f18a828b01611098565b92505060c088013567ffffffffffffffff81111561120e57600080fd5b61121a8a828b01611044565b91505092959891949750929550565b60006020828403121561123b57600080fd5b60006110c18484611098565b6000611253838361127a565b505060200190565b600061126783836113a7565b9392505050565b600061125383836113df565b611283816114c7565b82525050565b6000611294826114ba565b61129e81856114be565b93506112a9836114b4565b8060005b838110156112d75781516112c18882611247565b97506112cc836114b4565b9250506001016112ad565b509495945050505050565b60006112ed826114ba565b6112f781856114be565b935083602082028501611309856114b4565b8060005b858110156113435784840389528151611326858261125b565b9450611331836114b4565b60209a909a019992505060010161130d565b5091979650505050505050565b600061135b826114ba565b61136581856114be565b9350611370836114b4565b8060005b838110156112d7578151611388888261126e565b9750611393836114b4565b925050600101611374565b611283816114d2565b60006113b2826114ba565b6113bc81856114be565b93506113cc8185602086016114ef565b6113d58161151f565b9093019392505050565b61128381610472565b6020810161103e828461127a565b606080825281016114078186611289565b9050818103602083015261141b81856112e2565b9050818103604083015261142f8184611350565b95945050505050565b6020810161103e828461139e565b6020808252810161126781846113a7565b6020810161103e82846113df565b60405181810167ffffffffffffffff8111828210171561148457600080fd5b604052919050565b600067ffffffffffffffff8211156114a357600080fd5b506020601f91909101601f19160190565b60200190565b5190565b90815260200190565b600061103e826114d7565b151590565b6001600160a01b031690565b82818337506000910152565b60005b8381101561150a5781810151838201526020016114f2565b83811115611519576000848401525b50505050565b601f01601f191690565b611532816114c7565b811461101657600080fd5b6115328161047256fea365627a7a723158202407641fc8079a364c22a0a78b553bc64681913a11577199da2022befbd4406f6c6578706572696d656e74616cf564736f6c63430005100040a365627a7a723158204cee37abe27fd3fd08e690aafd426dd0a032cc84371d8492d7f47c33b6d9c15c6c6578706572696d656e74616cf564736f6c63430005100040",
  "source": "pragma solidity >=0.4.21 <0.7.0;\r\npragma experimental ABIEncoderV2;\r\n\r\nimport \"./Job.sol\";\r\n\r\ncontract Company {\r\n    string public companyName;\r\n    address public companyAddress;\r\n    Job[] public jobs;\r\n    uint256 public noOfJobs;\r\n    uint256 public date;\r\n\r\n    function addCompany(string memory _companyName, address _addr) public {\r\n        companyName = _companyName;\r\n        companyAddress = _addr;\r\n        date = block.timestamp;\r\n    }\r\n\r\n    function setHired(uint256 _jobId, address _hired) public {\r\n        Job job = getJob(_jobId);\r\n        job.setHired(_hired);\r\n    }\r\n\r\n    function isActive(uint256 _jobId) public view returns (bool) {\r\n        Job job = getJob(_jobId);\r\n        return job.isActive();\r\n    }\r\n\r\n    function getRequests(uint256 jobId)\r\n        public\r\n        view\r\n        returns (\r\n            address[] memory,\r\n            string[] memory,\r\n            uint256[] memory\r\n        )\r\n    {\r\n        Job j = getJob(jobId);\r\n        return j.getRequests();\r\n    }\r\n\r\n    function rejected(uint256 jobId, address addr) public {\r\n        Job j = getJob(jobId);\r\n        j.reject(addr);\r\n    }\r\n\r\n    function verified(uint256 jobId, address addr) public {\r\n        Job j = getJob(jobId);\r\n        j.verified(addr);\r\n        // return j.jobName();\r\n    }\r\n\r\n    function checkVerification(uint256 jobId, address addr)\r\n        public\r\n        view\r\n        returns (string memory)\r\n    {\r\n        Job j = getJob(jobId);\r\n        return j.checkVerification(addr);\r\n    }\r\n\r\n    function addJob(\r\n        string memory _jobName,\r\n        address _postedBy,\r\n        uint256 _salary,\r\n        string memory _jobLocation,\r\n        string memory _jobType,\r\n        uint256 _jobid\r\n    ) public {\r\n        Job j = new Job();\r\n        j.addJob(\r\n            _jobName,\r\n            _postedBy,\r\n            _salary,\r\n            _jobLocation,\r\n            _jobType,\r\n            _jobid,\r\n            companyName\r\n        );\r\n        jobs.push(j);\r\n        noOfJobs++;\r\n    }\r\n\r\n    function applyJob(\r\n        uint256 _jobid,\r\n        address addr,\r\n        string memory ipfs,\r\n        uint256 cerId\r\n    ) public {\r\n        Job j = getJob(_jobid);\r\n        j.applyJob(addr, ipfs, cerId);\r\n    }\r\n\r\n    function getJob(uint256 _jobid) public view returns (Job j) {\r\n        for (uint256 i = 0; i < jobs.length; i++) {\r\n            if (jobs[i].jobId() == _jobid) {\r\n                return jobs[i];\r\n            }\r\n        }\r\n    }\r\n\r\n    function jobStatus(uint256 _jobId, address st)\r\n        public\r\n        view\r\n        returns (string memory status)\r\n    {\r\n        Job j = getJob(_jobId);\r\n        return j.jobStatus(st);\r\n    }\r\n}\r\n",
  "sourcePath": "C:\\Users\\kosgi\\crypto\\contracts\\Company.sol",
  "compiler": {
    "name": "solc",
    "version": "0.5.16+commit.9c3226ce.Emscripten.clang"
  },
  "schemaVersion": "3.4.13",
  "updatedAt": "2023-03-16T18:12:00.537Z",
  "devdoc": {
    "methods": {}
  },
  "userdoc": {
    "methods": {}
  }
}