{
  "contractName": "HelperOrg",
  "abi": [
    {
      "constant": true,
      "inputs": [
        {
          "internalType": "contract Organisation[]",
          "name": "Orgaganisations",
          "type": "address[]"
        },
        {
          "internalType": "address",
          "name": "_orgAddress",
          "type": "address"
        },
        {
          "internalType": "address",
          "name": "stAddres",
          "type": "address"
        }
      ],
      "name": "getStudentDetail",
      "outputs": [
        {
          "internalType": "string",
          "name": "",
          "type": "string"
        },
        {
          "internalType": "uint256",
          "name": "",
          "type": "uint256"
        },
        {
          "internalType": "string",
          "name": "",
          "type": "string"
        },
        {
          "internalType": "address",
          "name": "",
          "type": "address"
        },
        {
          "internalType": "uint256",
          "name": "",
          "type": "uint256"
        }
      ],
      "payable": false,
      "stateMutability": "view",
      "type": "function"
    },
    {
      "constant": true,
      "inputs": [
        {
          "internalType": "contract Organisation[]",
          "name": "organisations",
          "type": "address[]"
        },
        {
          "internalType": "address",
          "name": "_addr",
          "type": "address"
        }
      ],
      "name": "checkOrganisation",
      "outputs": [
        {
          "internalType": "string",
          "name": "",
          "type": "string"
        }
      ],
      "payable": false,
      "stateMutability": "view",
      "type": "function"
    },
    {
      "constant": true,
      "inputs": [
        {
          "internalType": "contract Organisation[]",
          "name": "Orgaganisations",
          "type": "address[]"
        },
        {
          "internalType": "address",
          "name": "_orgAddress",
          "type": "address"
        }
      ],
      "name": "getOrganisation",
      "outputs": [
        {
          "internalType": "contract Organisation",
          "name": "",
          "type": "address"
        }
      ],
      "payable": false,
      "stateMutability": "view",
      "type": "function"
    },
    {
      "constant": true,
      "inputs": [
        {
          "internalType": "contract Organisation",
          "name": "org",
          "type": "address"
        }
      ],
      "name": "totalCertificates",
      "outputs": [
        {
          "internalType": "uint256",
          "name": "",
          "type": "uint256"
        }
      ],
      "payable": false,
      "stateMutability": "view",
      "type": "function"
    },
    {
      "constant": true,
      "inputs": [
        {
          "internalType": "contract Organisation[]",
          "name": "Orgaganisations",
          "type": "address[]"
        },
        {
          "internalType": "address",
          "name": "add",
          "type": "address"
        }
      ],
      "name": "getOrganisationDetails",
      "outputs": [
        {
          "internalType": "string",
          "name": "",
          "type": "string"
        },
        {
          "internalType": "address",
          "name": "",
          "type": "address"
        },
        {
          "internalType": "uint256",
          "name": "",
          "type": "uint256"
        },
        {
          "internalType": "uint256",
          "name": "",
          "type": "uint256"
        },
        {
          "internalType": "uint256",
          "name": "",
          "type": "uint256"
        }
      ],
      "payable": false,
      "stateMutability": "view",
      "type": "function"
    },
    {
      "constant": true,
      "inputs": [
        {
          "internalType": "contract Organisation[]",
          "name": "Orgaganisations",
          "type": "address[]"
        },
        {
          "internalType": "address",
          "name": "add",
          "type": "address"
        }
      ],
      "name": "checkStudent",
      "outputs": [
        {
          "internalType": "string",
          "name": "",
          "type": "string"
        }
      ],
      "payable": false,
      "stateMutability": "view",
      "type": "function"
    },
    {
      "constant": true,
      "inputs": [
        {
          "internalType": "contract Organisation[]",
          "name": "Orgaganisations",
          "type": "address[]"
        },
        {
          "internalType": "address",
          "name": "add",
          "type": "address"
        },
        {
          "internalType": "address",
          "name": "suinque",
          "type": "address"
        }
      ],
      "name": "getStudent",
      "outputs": [
        {
          "internalType": "contract Student",
          "name": "",
          "type": "address"
        }
      ],
      "payable": false,
      "stateMutability": "view",
      "type": "function"
    },
    {
      "constant": true,
      "inputs": [
        {
          "internalType": "contract Organisation[]",
          "name": "Organisations",
          "type": "address[]"
        },
        {
          "internalType": "uint256",
          "name": "_id",
          "type": "uint256"
        },
        {
          "internalType": "address",
          "name": "student",
          "type": "address"
        },
        {
          "internalType": "address",
          "name": "_org",
          "type": "address"
        }
      ],
      "name": "checkAcess",
      "outputs": [
        {
          "internalType": "string",
          "name": "",
          "type": "string"
        }
      ],
      "payable": false,
      "stateMutability": "view",
      "type": "function"
    },
    {
      "constant": false,
      "inputs": [
        {
          "internalType": "contract Organisation[]",
          "name": "Organisations",
          "type": "address[]"
        },
        {
          "internalType": "uint256",
          "name": "_id",
          "type": "uint256"
        },
        {
          "internalType": "address",
          "name": "student",
          "type": "address"
        },
        {
          "internalType": "address",
          "name": "_org",
          "type": "address"
        }
      ],
      "name": "requestAcess",
      "outputs": [],
      "payable": false,
      "stateMutability": "nonpayable",
      "type": "function"
    },
    {
      "constant": true,
      "inputs": [
        {
          "internalType": "contract Organisation[]",
          "name": "Organisations",
          "type": "address[]"
        },
        {
          "internalType": "address",
          "name": "_org",
          "type": "address"
        },
        {
          "internalType": "address",
          "name": "_stu",
          "type": "address"
        },
        {
          "internalType": "uint256",
          "name": "_id",
          "type": "uint256"
        }
      ],
      "name": "requests",
      "outputs": [
        {
          "internalType": "address[]",
          "name": "",
          "type": "address[]"
        }
      ],
      "payable": false,
      "stateMutability": "view",
      "type": "function"
    },
    {
      "constant": false,
      "inputs": [
        {
          "internalType": "contract Organisation[]",
          "name": "Organisations",
          "type": "address[]"
        },
        {
          "internalType": "uint256",
          "name": "_id",
          "type": "uint256"
        },
        {
          "internalType": "address",
          "name": "student",
          "type": "address"
        },
        {
          "internalType": "address",
          "name": "_org",
          "type": "address"
        }
      ],
      "name": "giveAcess",
      "outputs": [],
      "payable": false,
      "stateMutability": "nonpayable",
      "type": "function"
    }
  ],
  "bytecode": "0x608060405234801561001057600080fd5b50611a1a806100206000396000f3fe608060405234801561001057600080fd5b50600436106100a95760003560e01c8063ab096cf511610071578063ab096cf51461014e578063bd11906914610163578063bee3e32514610183578063dd121998146101a7578063f902b77e146101ba578063fce9f721146101cd576100a9565b806306ae6148146100ae5780631a11a723146100d757806326c56720146100f7578063326948ad146101175780636458f5421461012a575b600080fd5b6100c16100bc3660046114fd565b6101e0565b6040516100ce9190611817565b60405180910390f35b6100ea6100e5366004611696565b6102b6565b6040516100ce91906118be565b61010a61010536600461162a565b61042b565b6040516100ce9190611825565b61010a6101253660046114fd565b6104c9565b61013d6101383660046114fd565b61062d565b6040516100ce959493929190611836565b61016161015c36600461162a565b6107b8565b005b6101766101713660046115b2565b61082f565b6040516100ce9190611806565b61019661019136600461154e565b6108c1565b6040516100ce95949392919061187d565b6101616101b536600461162a565b610ed4565b61010a6101c83660046114fd565b610f12565b6100c16101db36600461154e565b6110fc565b6000805b83518110156102ae57826001600160a01b031684828151811061020357fe5b60200260200101516001600160a01b031663c5d163756040518163ffffffff1660e01b815260040160206040518083038186803b15801561024357600080fd5b505afa158015610257573d6000803e3d6000fd5b505050506040513d601f19601f8201168201806040525061027b91908101906114a2565b6001600160a01b031614156102a65783818151811061029657fe5b60200260200101519150506102b0565b6001016101e4565b505b92915050565b600080805b836001600160a01b03166330dc15536040518163ffffffff1660e01b815260040160206040518083038186803b1580156102f457600080fd5b505afa158015610308573d6000803e3d6000fd5b505050506040513d601f19601f8201168201806040525061032c9190810190611707565b8110156102ae57604051630375691760e11b81526001600160a01b038516906306ead22e9061035f9084906004016118be565b60206040518083038186803b15801561037757600080fd5b505afa15801561038b573d6000803e3d6000fd5b505050506040513d601f19601f820116820180604052506103af91908101906116b4565b6001600160a01b0316636af6d78c6040518163ffffffff1660e01b815260040160206040518083038186803b1580156103e757600080fd5b505afa1580156103fb573d6000803e3d6000fd5b505050506040513d601f19601f8201168201806040525061041f9190810190611707565b909101906001016102bb565b6060600061043a8684866110fc565b604051631db6c3b360e21b81529091506001600160a01b038216906376db0ecc9061046b90879089906004016117eb565b60006040518083038186803b15801561048357600080fd5b505afa158015610497573d6000803e3d6000fd5b505050506040513d6000823e601f3d908101601f191682016040526104bf91908101906116d2565b9695505050505050565b606060005b835181101561060c57826001600160a01b03168482815181106104ed57fe5b60200260200101516001600160a01b031663c5d163756040518163ffffffff1660e01b815260040160206040518083038186803b15801561052d57600080fd5b505afa158015610541573d6000803e3d6000fd5b505050506040513d601f19601f8201168201806040525061056591908101906114a2565b6001600160a01b031614156106045783818151811061058057fe5b60200260200101516001600160a01b031663ec5d9e586040518163ffffffff1660e01b815260040160006040518083038186803b1580156105c057600080fd5b505afa1580156105d4573d6000803e3d6000fd5b505050506040513d6000823e601f3d908101601f191682016040526105fc91908101906116d2565b9150506102b0565b6001016104ce565b50506040805180820190915260028152616e6f60f01b602082015292915050565b6060600080600080600061064188886101e0565b9050806001600160a01b031663ec5d9e586040518163ffffffff1660e01b815260040160006040518083038186803b15801561067c57600080fd5b505afa158015610690573d6000803e3d6000fd5b505050506040513d6000823e601f3d908101601f191682016040526106b891908101906116d2565b87826001600160a01b03166351c165d56040518163ffffffff1660e01b815260040160206040518083038186803b1580156106f257600080fd5b505afa158015610706573d6000803e3d6000fd5b505050506040513d601f19601f8201168201806040525061072a9190810190611707565b836001600160a01b03166330dc15536040518163ffffffff1660e01b815260040160206040518083038186803b15801561076357600080fd5b505afa158015610777573d6000803e3d6000fd5b505050506040513d601f19601f8201168201806040525061079b9190810190611707565b6107a4856102b6565b939c929b5090995097509095509350505050565b60006107c58583856110fc565b60405163b32f36c960e01b81529091506001600160a01b0382169063b32f36c9906107f690869088906004016117eb565b600060405180830381600087803b15801561081057600080fd5b505af1158015610824573d6000803e3d6000fd5b505050505050505050565b6060600061083e8686866110fc565b60405163103a258b60e31b81529091506001600160a01b038216906381d12c589061086d9086906004016118be565b60006040518083038186803b15801561088557600080fd5b505afa158015610899573d6000803e3d6000fd5b505050506040513d6000823e601f3d908101601f191682016040526104bf91908101906114c8565b60606000606060008060006108d689896101e0565b905060005b816001600160a01b03166330dc15536040518163ffffffff1660e01b815260040160206040518083038186803b15801561091457600080fd5b505afa158015610928573d6000803e3d6000fd5b505050506040513d601f19601f8201168201806040525061094c9190810190611707565b811015610e9d57876001600160a01b0316826001600160a01b03166306ead22e836040518263ffffffff1660e01b815260040161098991906118be565b60206040518083038186803b1580156109a157600080fd5b505afa1580156109b5573d6000803e3d6000fd5b505050506040513d601f19601f820116820180604052506109d991908101906116b4565b6001600160a01b0316633e78c7c06040518163ffffffff1660e01b815260040160206040518083038186803b158015610a1157600080fd5b505afa158015610a25573d6000803e3d6000fd5b505050506040513d601f19601f82011682018060405250610a4991908101906114a2565b6001600160a01b03161415610e9557604051630375691760e11b81526001600160a01b038316906306ead22e90610a849084906004016118be565b60206040518083038186803b158015610a9c57600080fd5b505afa158015610ab0573d6000803e3d6000fd5b505050506040513d601f19601f82011682018060405250610ad491908101906116b4565b6001600160a01b031663ec3615cd6040518163ffffffff1660e01b815260040160006040518083038186803b158015610b0c57600080fd5b505afa158015610b20573d6000803e3d6000fd5b505050506040513d6000823e601f3d908101601f19168201604052610b4891908101906116d2565b604051630375691760e11b81526001600160a01b038416906306ead22e90610b749085906004016118be565b60206040518083038186803b158015610b8c57600080fd5b505afa158015610ba0573d6000803e3d6000fd5b505050506040513d601f19601f82011682018060405250610bc491908101906116b4565b6001600160a01b0316634cd057426040518163ffffffff1660e01b815260040160206040518083038186803b158015610bfc57600080fd5b505afa158015610c10573d6000803e3d6000fd5b505050506040513d601f19601f82011682018060405250610c349190810190611707565b836001600160a01b031663ec5d9e586040518163ffffffff1660e01b815260040160006040518083038186803b158015610c6d57600080fd5b505afa158015610c81573d6000803e3d6000fd5b505050506040513d6000823e601f3d908101601f19168201604052610ca991908101906116d2565b604051630375691760e11b81526001600160a01b038616906306ead22e90610cd59087906004016118be565b60206040518083038186803b158015610ced57600080fd5b505afa158015610d01573d6000803e3d6000fd5b505050506040513d601f19601f82011682018060405250610d2591908101906116b4565b6001600160a01b0316633e78c7c06040518163ffffffff1660e01b815260040160206040518083038186803b158015610d5d57600080fd5b505afa158015610d71573d6000803e3d6000fd5b505050506040513d601f19601f82011682018060405250610d9591908101906114a2565b604051630375691760e11b81526001600160a01b038716906306ead22e90610dc19088906004016118be565b60206040518083038186803b158015610dd957600080fd5b505afa158015610ded573d6000803e3d6000fd5b505050506040513d601f19601f82011682018060405250610e1191908101906116b4565b6001600160a01b0316636af6d78c6040518163ffffffff1660e01b815260040160206040518083038186803b158015610e4957600080fd5b505afa158015610e5d573d6000803e3d6000fd5b505050506040513d601f19601f82011682018060405250610e819190810190611707565b939a50919850965094509250610ec9915050565b6001016108db565b505060408051602080820183526000808352835191820190935282815290965090945092508391508190505b939792965093509350565b6000610ee18583856110fc565b60405163032c6ced60e01b81529091506001600160a01b0382169063032c6ced906107f690869088906004016117eb565b606060005b835181101561060c5760005b848281518110610f2f57fe5b60200260200101516001600160a01b03166330dc15536040518163ffffffff1660e01b815260040160206040518083038186803b158015610f6f57600080fd5b505afa158015610f83573d6000803e3d6000fd5b505050506040513d601f19601f82011682018060405250610fa79190810190611707565b8110156110f357836001600160a01b0316858381518110610fc457fe5b60200260200101516001600160a01b03166306ead22e836040518263ffffffff1660e01b8152600401610ff791906118be565b60206040518083038186803b15801561100f57600080fd5b505afa158015611023573d6000803e3d6000fd5b505050506040513d601f19601f8201168201806040525061104791908101906116b4565b6001600160a01b0316633e78c7c06040518163ffffffff1660e01b815260040160206040518083038186803b15801561107f57600080fd5b505afa158015611093573d6000803e3d6000fd5b505050506040513d601f19601f820116820180604052506110b791908101906114a2565b6001600160a01b031614156110eb576040518060400160405280600381526020016279657360e81b815250925050506102b0565b600101610f23565b50600101610f17565b60008061110985856101e0565b905060005b816001600160a01b03166330dc15536040518163ffffffff1660e01b815260040160206040518083038186803b15801561114757600080fd5b505afa15801561115b573d6000803e3d6000fd5b505050506040513d601f19601f8201168201806040525061117f9190810190611707565b81101561131857836001600160a01b0316826001600160a01b03166306ead22e836040518263ffffffff1660e01b81526004016111bc91906118be565b60206040518083038186803b1580156111d457600080fd5b505afa1580156111e8573d6000803e3d6000fd5b505050506040513d601f19601f8201168201806040525061120c91908101906116b4565b6001600160a01b0316633e78c7c06040518163ffffffff1660e01b815260040160206040518083038186803b15801561124457600080fd5b505afa158015611258573d6000803e3d6000fd5b505050506040513d601f19601f8201168201806040525061127c91908101906114a2565b6001600160a01b0316141561131057604051630375691760e11b81526001600160a01b038316906306ead22e906112b79084906004016118be565b60206040518083038186803b1580156112cf57600080fd5b505afa1580156112e3573d6000803e3d6000fd5b505050506040513d601f19601f8201168201806040525061130791908101906116b4565b9250505061131b565b60010161110e565b50505b9392505050565b80356102b0816119ae565b80516102b0816119ae565b600082601f83011261134957600080fd5b815161135c611357826118f3565b6118cc565b9150818183526020840193506020810190508385602084028201111561138157600080fd5b60005b838110156113ad5781611397888261132d565b8452506020928301929190910190600101611384565b5050505092915050565b600082601f8301126113c857600080fd5b81356113d6611357826118f3565b915081818352602084019350602081019050838560208402820111156113fb57600080fd5b60005b838110156113ad57816114118882611427565b84525060209283019291909101906001016113fe565b80356102b0816119c5565b80516102b0816119c5565b600082601f83011261144e57600080fd5b815161145c61135782611914565b9150808252602083016020830185838301111561147857600080fd5b611483838284611974565b50505092915050565b80356102b0816119ce565b80516102b0816119ce565b6000602082840312156114b457600080fd5b60006114c0848461132d565b949350505050565b6000602082840312156114da57600080fd5b815167ffffffffffffffff8111156114f157600080fd5b6114c084828501611338565b6000806040838503121561151057600080fd5b823567ffffffffffffffff81111561152757600080fd5b611533858286016113b7565b925050602061154485828601611322565b9150509250929050565b60008060006060848603121561156357600080fd5b833567ffffffffffffffff81111561157a57600080fd5b611586868287016113b7565b935050602061159786828701611322565b92505060406115a886828701611322565b9150509250925092565b600080600080608085870312156115c857600080fd5b843567ffffffffffffffff8111156115df57600080fd5b6115eb878288016113b7565b94505060206115fc87828801611322565b935050604061160d87828801611322565b925050606061161e8782880161148c565b91505092959194509250565b6000806000806080858703121561164057600080fd5b843567ffffffffffffffff81111561165757600080fd5b611663878288016113b7565b94505060206116748782880161148c565b935050604061168587828801611322565b925050606061161e87828801611322565b6000602082840312156116a857600080fd5b60006114c08484611427565b6000602082840312156116c657600080fd5b60006114c08484611432565b6000602082840312156116e457600080fd5b815167ffffffffffffffff8111156116fb57600080fd5b6114c08482850161143d565b60006020828403121561171957600080fd5b60006114c08484611497565b60006117318383611739565b505060200190565b6117428161194f565b82525050565b600061175382611942565b61175d8185611946565b93506117688361193c565b8060005b838110156117965781516117808882611725565b975061178b8361193c565b92505060010161176c565b509495945050505050565b6117428161195a565b60006117b582611942565b6117bf8185611946565b93506117cf818560208601611974565b6117d8816119a4565b9093019392505050565b61174281611971565b604081016117f98285611739565b61131b60208301846117e2565b6020808252810161131b8184611748565b602081016102b082846117a1565b6020808252810161131b81846117aa565b60a0808252810161184781886117aa565b90506118566020830187611739565b61186360408301866117e2565b61187060608301856117e2565b6104bf60808301846117e2565b60a0808252810161188e81886117aa565b905061189d60208301876117e2565b81810360408301526118af81866117aa565b90506118706060830185611739565b602081016102b082846117e2565b60405181810167ffffffffffffffff811182821017156118eb57600080fd5b604052919050565b600067ffffffffffffffff82111561190a57600080fd5b5060209081020190565b600067ffffffffffffffff82111561192b57600080fd5b506020601f91909101601f19160190565b60200190565b5190565b90815260200190565b60006102b082611965565b60006102b08261194f565b6001600160a01b031690565b90565b60005b8381101561198f578181015183820152602001611977565b8381111561199e576000848401525b50505050565b601f01601f191690565b6119b78161194f565b81146119c257600080fd5b50565b6119b78161195a565b6119b78161197156fea365627a7a72315820a1b8e4b3a4b8b08f7a62fedd989885a8a6a6a5e971f7853430f917ecfa421bc96c6578706572696d656e74616cf564736f6c63430005100040",
  "source": "// SPDX-License-Identifier: MIT\r\npragma solidity >=0.4.21 <0.7.0;\r\npragma experimental ABIEncoderV2;\r\nimport \"./Organisation.sol\";\r\nimport \"./Student.sol\";\r\nimport \"./Company.sol\";\r\nimport \"./OverAll.sol\";\r\nimport \"./Company.sol\";\r\n\r\ncontract HelperOrg {\r\n    function getStudentDetail(\r\n        Organisation[] memory Orgaganisations,\r\n        address _orgAddress,\r\n        address stAddres\r\n    )\r\n        public\r\n        view\r\n        returns (\r\n            string memory,\r\n            uint256,\r\n            string memory,\r\n            address,\r\n            uint256\r\n        )\r\n    {\r\n        Organisation org = getOrganisation(Orgaganisations, _orgAddress);\r\n        for (uint256 k = 0; k < org.noOfStudents(); k++) {\r\n            if (org.students(k).student_acc_address() == stAddres) {\r\n                return (\r\n                    org.students(k).student_name(),\r\n                    org.students(k).student_unique_id(),\r\n                    org.organisationName(),\r\n                    org.students(k).student_acc_address(),\r\n                    org.students(k).noOfCertificates()\r\n                );\r\n            }\r\n        }\r\n\r\n        return (\"\", 0, \"\", address(0), 0);\r\n    }\r\n\r\n    function checkOrganisation(\r\n        Organisation[] memory organisations,\r\n        address _addr\r\n    ) public view returns (string memory) {\r\n        for (uint256 i = 0; i < organisations.length; i++) {\r\n            if (organisations[i].organisationAddress() == _addr) {\r\n                return organisations[i].organisationName();\r\n            }\r\n        }\r\n        return \"no\";\r\n    }\r\n\r\n    function getOrganisation(\r\n        Organisation[] memory Orgaganisations,\r\n        address _orgAddress\r\n    ) public view returns (Organisation) {\r\n        for (uint256 i = 0; i < Orgaganisations.length; i++) {\r\n            if (Orgaganisations[i].organisationAddress() == _orgAddress) {\r\n                return Orgaganisations[i];\r\n            }\r\n        }\r\n    }\r\n\r\n    function totalCertificates(Organisation org) public view returns (uint256) {\r\n        uint256 total = 0;\r\n        for (uint256 i = 0; i < org.noOfStudents(); i++) {\r\n            total += org.students(i).noOfCertificates();\r\n        }\r\n        return total;\r\n    }\r\n\r\n    function getOrganisationDetails(\r\n        Organisation[] memory Orgaganisations,\r\n        address add\r\n    )\r\n        public\r\n        view\r\n        returns (\r\n            string memory,\r\n            address,\r\n            uint256,\r\n            uint256,\r\n            uint256\r\n        )\r\n    {\r\n        Organisation org = getOrganisation(Orgaganisations, add);\r\n\r\n        return (\r\n            org.organisationName(),\r\n            add,\r\n            org.noOfUniqueIds(),\r\n            org.noOfStudents(),\r\n            totalCertificates(org)\r\n        );\r\n    }\r\n\r\n    function checkStudent(Organisation[] memory Orgaganisations, address add)\r\n        public\r\n        view\r\n        returns (string memory)\r\n    {\r\n        for (uint256 i = 0; i < Orgaganisations.length; i++) {\r\n            for (uint256 j = 0; j < Orgaganisations[i].noOfStudents(); j++) {\r\n                if (\r\n                    Orgaganisations[i].students(j).student_acc_address() == add\r\n                ) {\r\n                    return \"yes\";\r\n                }\r\n            }\r\n        }\r\n        return \"no\";\r\n    }\r\n\r\n    function getStudent(\r\n        Organisation[] memory Orgaganisations,\r\n        address add,\r\n        address suinque\r\n    ) public view returns (Student) {\r\n        Organisation org = getOrganisation(Orgaganisations, add);\r\n        for (uint256 i = 0; i < org.noOfStudents(); i++) {\r\n            if (org.students(i).student_acc_address() == suinque) {\r\n                return org.students(i);\r\n            }\r\n        }\r\n    }\r\n\r\n    function checkAcess(\r\n        Organisation[] memory Organisations,\r\n        uint256 _id,\r\n        address student,\r\n        address _org\r\n    ) public view returns (string memory) {\r\n        Student st = getStudent(Organisations, _org, student);\r\n        return st.hasAcess(student, _id);\r\n    }\r\n\r\n    function requestAcess(\r\n        Organisation[] memory Organisations,\r\n        uint256 _id,\r\n        address student,\r\n        address _org\r\n    ) public {\r\n        Student st = getStudent(Organisations, _org, student);\r\n        st.requestAcess(student, _id);\r\n    }\r\n\r\n    function requests(\r\n        Organisation[] memory Organisations,\r\n        address _org,\r\n        address _stu,\r\n        uint256 _id\r\n    ) public view returns (address[] memory) {\r\n        Student st = getStudent(Organisations, _org, _stu);\r\n        return st.requests(_id);\r\n    }\r\n\r\n    function giveAcess(\r\n        Organisation[] memory Organisations,\r\n        uint256 _id,\r\n        address student,\r\n        address _org\r\n    ) public {\r\n        Student st = getStudent(Organisations, _org, student);\r\n        st.giveAcess(student, _id);\r\n    }\r\n}\r\n",
  "sourcePath": "C:\\Users\\kosgi\\crypto\\contracts\\HelperOrg.sol",
  "compiler": {
    "name": "solc",
    "version": "0.5.16+commit.9c3226ce.Emscripten.clang"
  },
  "schemaVersion": "3.4.13",
  "updatedAt": "2023-03-16T18:12:00.562Z",
  "devdoc": {
    "methods": {}
  },
  "userdoc": {
    "methods": {}
  }
}