{
  "contractName": "OverAll",
  "abi": [
    {
      "constant": true,
      "inputs": [
        {
          "internalType": "uint256",
          "name": "",
          "type": "uint256"
        }
      ],
      "name": "Orgaganisations",
      "outputs": [
        {
          "internalType": "contract Organisation",
          "name": "",
          "type": "address"
        }
      ],
      "payable": false,
      "stateMutability": "view",
      "type": "function"
    },
    {
      "constant": true,
      "inputs": [],
      "name": "helper",
      "outputs": [
        {
          "internalType": "contract HelperOrg",
          "name": "",
          "type": "address"
        }
      ],
      "payable": false,
      "stateMutability": "view",
      "type": "function"
    },
    {
      "constant": true,
      "inputs": [
        {
          "internalType": "address",
          "name": "",
          "type": "address"
        }
      ],
      "name": "stToOrg",
      "outputs": [
        {
          "internalType": "address",
          "name": "",
          "type": "address"
        }
      ],
      "payable": false,
      "stateMutability": "view",
      "type": "function"
    },
    {
      "constant": false,
      "inputs": [
        {
          "internalType": "string",
          "name": "name",
          "type": "string"
        }
      ],
      "name": "addOrganisation",
      "outputs": [],
      "payable": false,
      "stateMutability": "nonpayable",
      "type": "function"
    },
    {
      "constant": true,
      "inputs": [],
      "name": "checkOrganisation",
      "outputs": [
        {
          "internalType": "string",
          "name": "",
          "type": "string"
        }
      ],
      "payable": false,
      "stateMutability": "view",
      "type": "function"
    },
    {
      "constant": true,
      "inputs": [],
      "name": "getOrganisation",
      "outputs": [
        {
          "internalType": "contract Organisation",
          "name": "",
          "type": "address"
        }
      ],
      "payable": false,
      "stateMutability": "view",
      "type": "function"
    },
    {
      "constant": true,
      "inputs": [],
      "name": "getAllOrganisations",
      "outputs": [
        {
          "components": [
            {
              "internalType": "string",
              "name": "name",
              "type": "string"
            },
            {
              "internalType": "address",
              "name": "addr",
              "type": "address"
            },
            {
              "internalType": "uint256",
              "name": "noOfStudents",
              "type": "uint256"
            },
            {
              "internalType": "uint256",
              "name": "noOfCertificates",
              "type": "uint256"
            }
          ],
          "internalType": "struct OverAll.organisation[]",
          "name": "",
          "type": "tuple[]"
        }
      ],
      "payable": false,
      "stateMutability": "view",
      "type": "function"
    },
    {
      "constant": true,
      "inputs": [],
      "name": "getOrganisationDetails",
      "outputs": [
        {
          "internalType": "string",
          "name": "",
          "type": "string"
        },
        {
          "internalType": "address",
          "name": "",
          "type": "address"
        },
        {
          "internalType": "uint256",
          "name": "",
          "type": "uint256"
        },
        {
          "internalType": "uint256",
          "name": "",
          "type": "uint256"
        },
        {
          "internalType": "uint256",
          "name": "",
          "type": "uint256"
        }
      ],
      "payable": false,
      "stateMutability": "view",
      "type": "function"
    },
    {
      "constant": true,
      "inputs": [],
      "name": "getAllStudents",
      "outputs": [
        {
          "components": [
            {
              "internalType": "string",
              "name": "name",
              "type": "string"
            },
            {
              "internalType": "address",
              "name": "addr",
              "type": "address"
            },
            {
              "internalType": "uint256",
              "name": "studentUniqueId",
              "type": "uint256"
            },
            {
              "internalType": "uint256",
              "name": "noOfCertificates",
              "type": "uint256"
            }
          ],
          "internalType": "struct OverAll.student[]",
          "name": "",
          "type": "tuple[]"
        }
      ],
      "payable": false,
      "stateMutability": "view",
      "type": "function"
    },
    {
      "constant": false,
      "inputs": [
        {
          "internalType": "string",
          "name": "_name",
          "type": "string"
        },
        {
          "internalType": "uint256",
          "name": "_uid",
          "type": "uint256"
        },
        {
          "internalType": "address",
          "name": "_orgAddr",
          "type": "address"
        }
      ],
      "name": "addStudent",
      "outputs": [],
      "payable": false,
      "stateMutability": "nonpayable",
      "type": "function"
    },
    {
      "constant": true,
      "inputs": [],
      "name": "getAllCertificates",
      "outputs": [
        {
          "components": [
            {
              "internalType": "string",
              "name": "name",
              "type": "string"
            },
            {
              "internalType": "uint256",
              "name": "uniqueId",
              "type": "uint256"
            },
            {
              "internalType": "address",
              "name": "issuedTo",
              "type": "address"
            },
            {
              "internalType": "uint256",
              "name": "date",
              "type": "uint256"
            },
            {
              "internalType": "address",
              "name": "issuedBy",
              "type": "address"
            },
            {
              "internalType": "string",
              "name": "ipfs",
              "type": "string"
            }
          ],
          "internalType": "struct OverAll.certificate[]",
          "name": "",
          "type": "tuple[]"
        }
      ],
      "payable": false,
      "stateMutability": "view",
      "type": "function"
    },
    {
      "constant": true,
      "inputs": [],
      "name": "checkStudent",
      "outputs": [
        {
          "internalType": "string",
          "name": "",
          "type": "string"
        }
      ],
      "payable": false,
      "stateMutability": "view",
      "type": "function"
    },
    {
      "constant": false,
      "inputs": [
        {
          "internalType": "uint256",
          "name": "_id",
          "type": "uint256"
        }
      ],
      "name": "addStudentUniqueID",
      "outputs": [],
      "payable": false,
      "stateMutability": "nonpayable",
      "type": "function"
    },
    {
      "constant": false,
      "inputs": [
        {
          "internalType": "string",
          "name": "_ipfs",
          "type": "string"
        },
        {
          "internalType": "string",
          "name": "_merklee",
          "type": "string"
        },
        {
          "internalType": "uint256",
          "name": "cUnique",
          "type": "uint256"
        },
        {
          "internalType": "address",
          "name": "sUnique",
          "type": "address"
        }
      ],
      "name": "addCertificate",
      "outputs": [],
      "payable": false,
      "stateMutability": "nonpayable",
      "type": "function"
    },
    {
      "constant": true,
      "inputs": [
        {
          "internalType": "address",
          "name": "addr",
          "type": "address"
        }
      ],
      "name": "getStudentDetail",
      "outputs": [
        {
          "internalType": "string",
          "name": "",
          "type": "string"
        },
        {
          "internalType": "uint256",
          "name": "",
          "type": "uint256"
        },
        {
          "internalType": "string",
          "name": "",
          "type": "string"
        },
        {
          "internalType": "address",
          "name": "",
          "type": "address"
        },
        {
          "internalType": "uint256",
          "name": "",
          "type": "uint256"
        }
      ],
      "payable": false,
      "stateMutability": "view",
      "type": "function"
    },
    {
      "constant": false,
      "inputs": [
        {
          "internalType": "uint256",
          "name": "_id",
          "type": "uint256"
        },
        {
          "internalType": "address",
          "name": "_orgAdd",
          "type": "address"
        }
      ],
      "name": "requestAcess",
      "outputs": [],
      "payable": false,
      "stateMutability": "nonpayable",
      "type": "function"
    },
    {
      "constant": true,
      "inputs": [
        {
          "internalType": "uint256",
          "name": "_id",
          "type": "uint256"
        },
        {
          "internalType": "address",
          "name": "_orgAdd",
          "type": "address"
        }
      ],
      "name": "checkAcess",
      "outputs": [
        {
          "internalType": "string",
          "name": "",
          "type": "string"
        }
      ],
      "payable": false,
      "stateMutability": "view",
      "type": "function"
    },
    {
      "constant": true,
      "inputs": [
        {
          "internalType": "uint256",
          "name": "_id",
          "type": "uint256"
        },
        {
          "internalType": "address",
          "name": "stu",
          "type": "address"
        }
      ],
      "name": "requests",
      "outputs": [
        {
          "internalType": "address[]",
          "name": "",
          "type": "address[]"
        }
      ],
      "payable": false,
      "stateMutability": "view",
      "type": "function"
    },
    {
      "constant": false,
      "inputs": [
        {
          "internalType": "address",
          "name": "stu",
          "type": "address"
        },
        {
          "internalType": "uint256",
          "name": "_id",
          "type": "uint256"
        }
      ],
      "name": "giveAcess",
      "outputs": [],
      "payable": false,
      "stateMutability": "nonpayable",
      "type": "function"
    }
  ],
  "bytecode": "0x6080604052604051620000129062000064565b604051809103906000f0801580156200002f573d6000803e3d6000fd5b50600080546001600160a01b0319166001600160a01b03929092169190911790553480156200005d57600080fd5b5062000072565b611a3a80620058a383390190565b61582180620000826000396000f3fe60806040523480156200001157600080fd5b50600436106200013b5760003560e01c8063988760c111620000bd578063b32f36c9116200007b578063b32f36c914620002bf578063b502a6e014620002d6578063c79f28bb14620002ed578063e9e3092714620002f7578063e9e8a17c1462000310576200013b565b8063988760c1146200023e578063a1263f6d1462000255578063a5af4ae2146200025f578063b163e03d1462000289578063b1743b8e14620002a2576200013b565b80633e03a1f1116200010b5780633e03a1f114620001ba57806363b0e66a14620001d1578063665756e214620001ea5780637ff7a031146200021057806384de69f31462000227576200013b565b80628fafaf146200014057806313fcfe801462000162578063281c2730146200017b57806328811b141462000194575b600080fd5b6200014a62000327565b60405162000159919062002b37565b60405180910390f35b6200016c620003ba565b60405162000159919062002aee565b620001926200018c36600462002548565b62000f64565b005b620001ab620001a53660046200258a565b62000fd9565b60405162000159919062002993565b62000192620001cb366004620023b0565b62001074565b620001db62001174565b60405162000159919062002b27565b62000201620001fb366004620021c3565b62001183565b60405162000159919062002983565b62000192620002213660046200258a565b6200119e565b6200014a620002383660046200258a565b620011d7565b620001926200024f366004620022df565b62001269565b6200014a62001350565b6200027662000270366004620021c3565b62001386565b6040516200015995949392919062002c23565b6200029362001442565b60405162000159919062002b01565b620002ac62001799565b6040516200015995949392919062002b5d565b62000192620002d03660046200220d565b62001842565b620001db620002e736600462002548565b6200187b565b620001db620018a3565b620003016200192c565b60405162000159919062002b14565b62000192620003213660046200244b565b62001ea8565b600054604051637c815bbf60e11b81526060916001600160a01b03169063f902b77e906200035d906001903390600401620029a6565b60006040518083038186803b1580156200037657600080fd5b505afa1580156200038b573d6000803e3d6000fd5b505050506040513d6000823e601f3d908101601f19168201604052620003b59190810190620022a6565b905090565b60606000620003c8620018a3565b600054604051631a11a72360e01b81529192506060916001600160a01b0390911690631a11a723906200040090859060040162002b27565b60206040518083038186803b1580156200041957600080fd5b505afa1580156200042e573d6000803e3d6000fd5b505050506040513d601f19601f8201168201806040525062000454919081019062002569565b6040519080825280602002602001820160405280156200049157816020015b6200047d62001fcf565b815260200190600190039081620004735790505b5090506000805b836001600160a01b03166330dc15536040518163ffffffff1660e01b815260040160206040518083038186803b158015620004d257600080fd5b505afa158015620004e7573d6000803e3d6000fd5b505050506040513d601f19601f820116820180604052506200050d919081019062002569565b81101562000f5b5760005b604051630375691760e11b81526001600160a01b038616906306ead22e906200054690859060040162002c6c565b60206040518083038186803b1580156200055f57600080fd5b505afa15801562000574573d6000803e3d6000fd5b505050506040513d601f19601f820116820180604052506200059a919081019062002285565b6001600160a01b0316636af6d78c6040518163ffffffff1660e01b815260040160206040518083038186803b158015620005d357600080fd5b505afa158015620005e8573d6000803e3d6000fd5b505050506040513d601f19601f820116820180604052506200060e919081019062002569565b81101562000f51576200062062001fcf565b6040805160c0810191829052630375691760e11b909152806001600160a01b0388166306ead22e620006568760c4850162002c6c565b60206040518083038186803b1580156200066f57600080fd5b505afa15801562000684573d6000803e3d6000fd5b505050506040513d601f19601f82011682018060405250620006aa919081019062002285565b6001600160a01b0316633c0359a4856040518263ffffffff1660e01b8152600401620006d7919062002c6c565b60206040518083038186803b158015620006f057600080fd5b505afa15801562000705573d6000803e3d6000fd5b505050506040513d601f19601f820116820180604052506200072b919081019062002285565b6001600160a01b031663b508ba316040518163ffffffff1660e01b815260040160006040518083038186803b1580156200076457600080fd5b505afa15801562000779573d6000803e3d6000fd5b505050506040513d6000823e601f3d908101601f19168201604052620007a39190810190620022a6565b8152602001876001600160a01b03166306ead22e866040518263ffffffff1660e01b8152600401620007d6919062002c6c565b60206040518083038186803b158015620007ef57600080fd5b505afa15801562000804573d6000803e3d6000fd5b505050506040513d601f19601f820116820180604052506200082a919081019062002285565b6001600160a01b0316633c0359a4856040518263ffffffff1660e01b815260040162000857919062002c6c565b60206040518083038186803b1580156200087057600080fd5b505afa15801562000885573d6000803e3d6000fd5b505050506040513d601f19601f82011682018060405250620008ab919081019062002285565b6001600160a01b0316636bcda13b6040518163ffffffff1660e01b815260040160206040518083038186803b158015620008e457600080fd5b505afa158015620008f9573d6000803e3d6000fd5b505050506040513d601f19601f820116820180604052506200091f919081019062002569565b8152602001876001600160a01b03166306ead22e866040518263ffffffff1660e01b815260040162000952919062002c6c565b60206040518083038186803b1580156200096b57600080fd5b505afa15801562000980573d6000803e3d6000fd5b505050506040513d601f19601f82011682018060405250620009a6919081019062002285565b6001600160a01b0316633c0359a4856040518263ffffffff1660e01b8152600401620009d3919062002c6c565b60206040518083038186803b158015620009ec57600080fd5b505afa15801562000a01573d6000803e3d6000fd5b505050506040513d601f19601f8201168201806040525062000a27919081019062002285565b6001600160a01b031663d40afd8b6040518163ffffffff1660e01b815260040160206040518083038186803b15801562000a6057600080fd5b505afa15801562000a75573d6000803e3d6000fd5b505050506040513d601f19601f8201168201806040525062000a9b9190810190620021ec565b6001600160a01b03168152602001876001600160a01b03166306ead22e866040518263ffffffff1660e01b815260040162000ad7919062002c6c565b60206040518083038186803b15801562000af057600080fd5b505afa15801562000b05573d6000803e3d6000fd5b505050506040513d601f19601f8201168201806040525062000b2b919081019062002285565b6001600160a01b0316633c0359a4856040518263ffffffff1660e01b815260040162000b58919062002c6c565b60206040518083038186803b15801562000b7157600080fd5b505afa15801562000b86573d6000803e3d6000fd5b505050506040513d601f19601f8201168201806040525062000bac919081019062002285565b6001600160a01b031663323046b16040518163ffffffff1660e01b815260040160206040518083038186803b15801562000be557600080fd5b505afa15801562000bfa573d6000803e3d6000fd5b505050506040513d601f19601f8201168201806040525062000c20919081019062002569565b8152602001876001600160a01b03166306ead22e866040518263ffffffff1660e01b815260040162000c53919062002c6c565b60206040518083038186803b15801562000c6c57600080fd5b505afa15801562000c81573d6000803e3d6000fd5b505050506040513d601f19601f8201168201806040525062000ca7919081019062002285565b6001600160a01b0316633c0359a4856040518263ffffffff1660e01b815260040162000cd4919062002c6c565b60206040518083038186803b15801562000ced57600080fd5b505afa15801562000d02573d6000803e3d6000fd5b505050506040513d601f19601f8201168201806040525062000d28919081019062002285565b6001600160a01b0316631f4591dd6040518163ffffffff1660e01b815260040160206040518083038186803b15801562000d6157600080fd5b505afa15801562000d76573d6000803e3d6000fd5b505050506040513d601f19601f8201168201806040525062000d9c9190810190620021ec565b6001600160a01b03168152602001876001600160a01b03166306ead22e866040518263ffffffff1660e01b815260040162000dd8919062002c6c565b60206040518083038186803b15801562000df157600080fd5b505afa15801562000e06573d6000803e3d6000fd5b505050506040513d601f19601f8201168201806040525062000e2c919081019062002285565b6001600160a01b0316633c0359a4856040518263ffffffff1660e01b815260040162000e59919062002c6c565b60206040518083038186803b15801562000e7257600080fd5b505afa15801562000e87573d6000803e3d6000fd5b505050506040513d601f19601f8201168201806040525062000ead919081019062002285565b6001600160a01b031663557084ce6040518163ffffffff1660e01b815260040160006040518083038186803b15801562000ee657600080fd5b505afa15801562000efb573d6000803e3d6000fd5b505050506040513d6000823e601f3d908101601f1916820160405262000f259190810190620022a6565b81525090508085858151811062000f3857fe5b6020908102919091010152506001928301920162000518565b5060010162000498565b50909250505090565b600062000f70620018a3565b604051638c74a77b60e01b81529091506001600160a01b03821690638c74a77b9062000fa190859060040162002c6c565b600060405180830381600087803b15801562000fbc57600080fd5b505af115801562000fd1573d6000803e3d6000fd5b505050505050565b60005460405163bd11906960e01b81526060916001600160a01b03169063bd11906990620010139060019033908790899060040162002a04565b60006040518083038186803b1580156200102c57600080fd5b505afa15801562001041573d6000803e3d6000fd5b505050506040513d6000823e601f3d908101601f191682016040526200106b91908101906200224c565b90505b92915050565b6000805460405163fce9f72160e01b81526001600160a01b039091169063fce9f72190620010ac9060019033908790600401620029d1565b60206040518083038186803b158015620010c557600080fd5b505afa158015620010da573d6000803e3d6000fd5b505050506040513d601f19601f8201168201806040525062001100919081019062002285565b604051637bb495f560e11b81529091506001600160a01b0382169063f7692bea9062001139908890889088908890339060040162002bb8565b600060405180830381600087803b1580156200115457600080fd5b505af115801562001169573d6000803e3d6000fd5b505050505050505050565b6000546001600160a01b031681565b6002602052600090815260409020546001600160a01b031681565b600054604051631ba2433360e31b81526001600160a01b039091169063dd1219989062000fa19060019086903390879060040162002a6a565b6000546040516301362b3960e51b81526060916001600160a01b0316906326c5672090620012119060019087903390889060040162002a6a565b60006040518083038186803b1580156200122a57600080fd5b505afa1580156200123f573d6000803e3d6000fd5b505050506040513d6000823e601f3d908101601f191682016040526200106b9190810190620022a6565b6000604051620012799062002017565b604051809103906000f08015801562001296573d6000803e3d6000fd5b5060405162fe794b60e81b81529091506001600160a01b0382169063fe794b0090620012c9908590339060040162002b4a565b600060405180830381600087803b158015620012e457600080fd5b505af1158015620012f9573d6000803e3d6000fd5b50506001805480820182556000919091527fb10e2d527612073b26eecdfd717e6a320cf44b4afac2b0732d9fcbe2b7fa0cf60180546001600160a01b0319166001600160a01b039490941693909317909255505050565b60005460405163326948ad60e01b81526060916001600160a01b03169063326948ad906200035d906001903390600401620029a6565b600080546001600160a01b0383811683526002602052604080842054905163bee3e32560e01b8152606094938593859384939282169263bee3e32592620013d8926001929116908b9060040162002a46565b60006040518083038186803b158015620013f157600080fd5b505afa15801562001406573d6000803e3d6000fd5b505050506040513d6000823e601f3d908101601f19168201604052620014309190810190620024b7565b939a9299509097509550909350915050565b6060806001805490506040519080825280602002602001820160405280156200148857816020015b6200147462002025565b8152602001906001900390816200146a5790505b50905060005b600154811015620017935760018181548110620014a757fe5b600091825260208220015460408051631d8bb3cb60e31b815290516001600160a01b039092169263ec5d9e5892600480840193829003018186803b158015620014ef57600080fd5b505afa15801562001504573d6000803e3d6000fd5b505050506040513d6000823e601f3d908101601f191682016040526200152e9190810190620022a6565b8282815181106200153b57fe5b602002602001015160000181905250600181815481106200155857fe5b600091825260209182902001546040805163c5d1637560e01b815290516001600160a01b039092169263c5d1637592600480840193829003018186803b158015620015a257600080fd5b505afa158015620015b7573d6000803e3d6000fd5b505050506040513d601f19601f82011682018060405250620015dd9190810190620021ec565b828281518110620015ea57fe5b6020026020010151602001906001600160a01b031690816001600160a01b031681525050600181815481106200161c57fe5b60009182526020918290200154604080516330dc155360e01b815290516001600160a01b03909216926330dc155392600480840193829003018186803b1580156200166657600080fd5b505afa1580156200167b573d6000803e3d6000fd5b505050506040513d601f19601f82011682018060405250620016a1919081019062002569565b828281518110620016ae57fe5b602090810291909101015160400152600054600180546001600160a01b0390921691631a11a723919084908110620016e257fe5b6000918252602090912001546040516001600160e01b031960e084901b1681526200171a916001600160a01b03169060040162002b27565b60206040518083038186803b1580156200173357600080fd5b505afa15801562001748573d6000803e3d6000fd5b505050506040513d601f19601f820116820180604052506200176e919081019062002569565b8282815181106200177b57fe5b6020908102919091010151606001526001016200148e565b50905090565b6000805460405163322c7aa160e11b8152606092918291829182916001600160a01b0390911690636458f54290620017d9906001903390600401620029a6565b60006040518083038186803b158015620017f257600080fd5b505afa15801562001807573d6000803e3d6000fd5b505050506040513d6000823e601f3d908101601f1916820160405262001831919081019062002318565b945094509450945094509091929394565b60005460405163ab096cf560e01b81526001600160a01b039091169063ab096cf59062000fa19060019085908790339060040162002aac565b600181815481106200188957fe5b6000918252602090912001546001600160a01b0316905081565b6000805460405162d5cc2960e31b81526001600160a01b03909116906306ae614890620018d8906001903390600401620029a6565b60206040518083038186803b158015620018f157600080fd5b505afa15801562001906573d6000803e3d6000fd5b505050506040513d601f19601f82011682018060405250620003b5919081019062002285565b606060006200193a620018a3565b90506060816001600160a01b03166330dc15536040518163ffffffff1660e01b815260040160206040518083038186803b1580156200197857600080fd5b505afa1580156200198d573d6000803e3d6000fd5b505050506040513d601f19601f82011682018060405250620019b3919081019062002569565b604051908082528060200260200182016040528015620019f057816020015b620019dc62002025565b815260200190600190039081620019d25790505b50905060005b826001600160a01b03166330dc15536040518163ffffffff1660e01b815260040160206040518083038186803b15801562001a3057600080fd5b505afa15801562001a45573d6000803e3d6000fd5b505050506040513d601f19601f8201168201806040525062001a6b919081019062002569565b81101562001ea15762001a7d62002025565b604080516080810191829052630375691760e11b909152806001600160a01b0386166306ead22e62001ab3866084850162002c6c565b60206040518083038186803b15801562001acc57600080fd5b505afa15801562001ae1573d6000803e3d6000fd5b505050506040513d601f19601f8201168201806040525062001b07919081019062002285565b6001600160a01b031663ec3615cd6040518163ffffffff1660e01b815260040160006040518083038186803b15801562001b4057600080fd5b505afa15801562001b55573d6000803e3d6000fd5b505050506040513d6000823e601f3d908101601f1916820160405262001b7f9190810190620022a6565b8152602001856001600160a01b03166306ead22e856040518263ffffffff1660e01b815260040162001bb2919062002c6c565b60206040518083038186803b15801562001bcb57600080fd5b505afa15801562001be0573d6000803e3d6000fd5b505050506040513d601f19601f8201168201806040525062001c06919081019062002285565b6001600160a01b0316633e78c7c06040518163ffffffff1660e01b815260040160206040518083038186803b15801562001c3f57600080fd5b505afa15801562001c54573d6000803e3d6000fd5b505050506040513d601f19601f8201168201806040525062001c7a9190810190620021ec565b6001600160a01b03168152602001856001600160a01b03166306ead22e856040518263ffffffff1660e01b815260040162001cb6919062002c6c565b60206040518083038186803b15801562001ccf57600080fd5b505afa15801562001ce4573d6000803e3d6000fd5b505050506040513d601f19601f8201168201806040525062001d0a919081019062002285565b6001600160a01b0316634cd057426040518163ffffffff1660e01b815260040160206040518083038186803b15801562001d4357600080fd5b505afa15801562001d58573d6000803e3d6000fd5b505050506040513d601f19601f8201168201806040525062001d7e919081019062002569565b8152602001856001600160a01b03166306ead22e856040518263ffffffff1660e01b815260040162001db1919062002c6c565b60206040518083038186803b15801562001dca57600080fd5b505afa15801562001ddf573d6000803e3d6000fd5b505050506040513d601f19601f8201168201806040525062001e05919081019062002285565b6001600160a01b0316636af6d78c6040518163ffffffff1660e01b815260040160206040518083038186803b15801562001e3e57600080fd5b505afa15801562001e53573d6000803e3d6000fd5b505050506040513d601f19601f8201168201806040525062001e79919081019062002569565b81525090508083838151811062001e8c57fe5b602090810291909101015250600101620019f6565b5091505090565b6000805460405162d5cc2960e31b81526001600160a01b03909116906306ae61489062001edd906001903390600401620029a6565b60206040518083038186803b15801562001ef657600080fd5b505afa15801562001f0b573d6000803e3d6000fd5b505050506040513d601f19601f8201168201806040525062001f31919081019062002285565b60405163137c3f7d60e01b81529091506001600160a01b0382169063137c3f7d9062001f6890879087903390889060040162002c10565b600060405180830381600087803b15801562001f8357600080fd5b505af115801562001f98573d6000803e3d6000fd5b505033600090815260026020526040902080546001600160a01b0319166001600160a01b0395909516949094179093555050505050565b6040518060c00160405280606081526020016000815260200160006001600160a01b031681526020016000815260200160006001600160a01b03168152602001606081525090565b6129f28062002ded83390190565b60405180608001604052806060815260200160006001600160a01b0316815260200160008152602001600081525090565b80356200106e8162002dbc565b80516200106e8162002dbc565b600082601f8301126200208257600080fd5b815162002099620020938262002ca4565b62002c7c565b91508181835260208401935060208101905083856020840282011115620020bf57600080fd5b60005b83811015620020ef5781620020d8888262002063565b8452506020928301929190910190600101620020c2565b5050505092915050565b80516200106e8162002dd6565b600082601f8301126200211857600080fd5b815162002129620020938262002cc6565b915080825260208301602083018583830111156200214657600080fd5b6200215383828462002d5a565b50505092915050565b600082601f8301126200216e57600080fd5b81356200217f620020938262002cc6565b915080825260208301602083018583830111156200219c57600080fd5b6200215383828462002d4e565b80356200106e8162002de1565b80516200106e8162002de1565b600060208284031215620021d657600080fd5b6000620021e4848462002056565b949350505050565b600060208284031215620021ff57600080fd5b6000620021e4848462002063565b600080604083850312156200222157600080fd5b60006200222f858562002056565b92505060206200224285828601620021a9565b9150509250929050565b6000602082840312156200225f57600080fd5b815167ffffffffffffffff8111156200227757600080fd5b620021e48482850162002070565b6000602082840312156200229857600080fd5b6000620021e48484620020f9565b600060208284031215620022b957600080fd5b815167ffffffffffffffff811115620022d157600080fd5b620021e48482850162002106565b600060208284031215620022f257600080fd5b813567ffffffffffffffff8111156200230a57600080fd5b620021e4848285016200215c565b600080600080600060a086880312156200233157600080fd5b855167ffffffffffffffff8111156200234957600080fd5b620023578882890162002106565b95505060206200236a8882890162002063565b94505060406200237d88828901620021b6565b93505060606200239088828901620021b6565b9250506080620023a388828901620021b6565b9150509295509295909350565b60008060008060808587031215620023c757600080fd5b843567ffffffffffffffff811115620023df57600080fd5b620023ed878288016200215c565b945050602085013567ffffffffffffffff8111156200240b57600080fd5b62002419878288016200215c565b93505060406200242c87828801620021a9565b92505060606200243f8782880162002056565b91505092959194509250565b6000806000606084860312156200246157600080fd5b833567ffffffffffffffff8111156200247957600080fd5b62002487868287016200215c565b93505060206200249a86828701620021a9565b9250506040620024ad8682870162002056565b9150509250925092565b600080600080600060a08688031215620024d057600080fd5b855167ffffffffffffffff811115620024e857600080fd5b620024f68882890162002106565b95505060206200250988828901620021b6565b945050604086015167ffffffffffffffff8111156200252757600080fd5b620025358882890162002106565b9350506060620023908882890162002063565b6000602082840312156200255b57600080fd5b6000620021e48484620021a9565b6000602082840312156200257c57600080fd5b6000620021e48484620021b6565b600080604083850312156200259e57600080fd5b6000620025ac8585620021a9565b9250506020620022428582860162002056565b6000620025cd838362002610565b505060200190565b6000620025cd838362002837565b60006200106b838362002882565b60006200106b838362002915565b6200260a8162002d41565b82525050565b6200260a8162002d24565b6000620026288262002d01565b62002634818562002d0f565b9350620026418362002cef565b8060005b83811015620026755781516200265c8882620025bf565b9750620026698362002cef565b92505060010162002645565b509495945050505050565b60006200268d8262002d05565b62002699818562002d0f565b9350620026a68362002cf5565b8060005b838110156200267557620026be8262002da4565b620026ca8882620025d5565b9750620026d78362002d09565b925050600101620026aa565b6000620026f08262002d01565b620026fc818562002d0f565b935083602082028501620027108562002cef565b8060005b85811015620027505784840389528151620027308582620025e3565b94506200273d8362002cef565b60209a909a019992505060010162002714565b5091979650505050505050565b60006200276a8262002d01565b62002776818562002d0f565b9350836020820285016200278a8562002cef565b8060005b85811015620027505784840389528151620027aa8582620025f1565b9450620027b78362002cef565b60209a909a01999250506001016200278e565b6000620027d78262002d01565b620027e3818562002d0f565b935083602082028501620027f78562002cef565b8060005b85811015620027505784840389528151620028178582620025f1565b9450620028248362002cef565b60209a909a0199925050600101620027fb565b6200260a8162002d31565b60006200284f8262002d01565b6200285b818562002d0f565b93506200286d81856020860162002d5a565b620028788162002db2565b9093019392505050565b805160c0808452600091908401906200289c828262002842565b9150506020830151620028b3602086018262002978565b506040830151620028c8604086018262002610565b506060830151620028dd606086018262002978565b506080830151620028f2608086018262002610565b5060a083015184820360a08601526200290c828262002842565b95945050505050565b80516080808452600091908401906200292f828262002842565b915050602083015162002946602086018262002610565b5060408301516200295b604086018262002978565b50606083015162002970606086018262002978565b509392505050565b6200260a8162002d3e565b602081016200106e828462002610565b602080825281016200106b81846200261b565b60408082528101620029b9818562002680565b9050620029ca6020830184620025ff565b9392505050565b60608082528101620029e4818662002680565b9050620029f56020830185620025ff565b620021e4604083018462002610565b6080808252810162002a17818762002680565b905062002a286020830186620025ff565b62002a37604083018562002610565b6200290c606083018462002978565b6060808252810162002a59818662002680565b9050620029f5602083018562002610565b6080808252810162002a7d818762002680565b905062002a8e602083018662002978565b62002a9d6040830185620025ff565b6200290c606083018462002610565b6080808252810162002abf818762002680565b905062002ad0602083018662002978565b62002adf604083018562002610565b6200290c6060830184620025ff565b602080825281016200106b8184620026e3565b602080825281016200106b81846200275d565b602080825281016200106b8184620027ca565b602081016200106e828462002837565b602080825281016200106b818462002842565b60408082528101620029b9818562002842565b60a0808252810162002b70818862002842565b905062002b81602083018762002610565b62002b90604083018662002978565b62002b9f606083018562002978565b62002bae608083018462002978565b9695505050505050565b60a0808252810162002bcb818862002842565b9050818103602083015262002be1818762002842565b905062002bf2604083018662002978565b62002c01606083018562002610565b62002bae6080830184620025ff565b6080808252810162002a7d818762002842565b60a0808252810162002c36818862002842565b905062002c47602083018762002978565b818103604083015262002c5b818662002842565b905062002b9f606083018562002610565b602081016200106e828462002978565b60405181810167ffffffffffffffff8111828210171562002c9c57600080fd5b604052919050565b600067ffffffffffffffff82111562002cbc57600080fd5b5060209081020190565b600067ffffffffffffffff82111562002cde57600080fd5b506020601f91909101601f19160190565b60200190565b60009081526020902090565b5190565b5490565b60010190565b90815260200190565b6001600160a01b031690565b60006200106e8262002d18565b60006200106e8262002d24565b90565b60006200106e8262002d31565b82818337506000910152565b60005b8381101562002d7757818101518382015260200162002d5d565b8381111562002d87576000848401525b50505050565b60006200106e62002d9e8362002d3e565b62002d18565b60006200106e825462002d8d565b601f01601f191690565b62002dc78162002d24565b811462002dd357600080fd5b50565b62002dc78162002d31565b62002dc78162002d3e56fe61010060405260016080908152600260a052600360c052600460e0819052610027918161003a565b5034801561003457600080fd5b506100a7565b82805482825590600052602060002090810192821561007a579160200282015b8281111561007a578251829060ff1690559160200191906001019061005a565b5061008692915061008a565b5090565b6100a491905b808211156100865760008155600101610090565b90565b61293c806100b66000396000f3fe608060405234801561001057600080fd5b50600436106100cf5760003560e01c806351d332311161008c578063c5d1637511610066578063c5d163751461019b578063ec5d9e58146101b0578063faead812146101c5578063fe794b00146101d8576100cf565b806351d332311461015557806371e5ee5f146101755780638c74a77b14610188576100cf565b806306ead22e146100d4578063137c3f7d146100fd5780632bff309a146101125780632ce349be1461013257806330dc15531461014557806351c165d51461014d575b600080fd5b6100e76100e2366004610878565b6101eb565b6040516100f491906109d3565b60405180910390f35b61011061010b366004610800565b610212565b005b610125610120366004610878565b61046e565b6040516100f49190610a1a565b610125610140366004610878565b6104ce565b6101256104ec565b6101256104f3565b610168610163366004610878565b6104f9565b6040516100f491906109c5565b610125610183366004610878565b610538565b610110610196366004610878565b610545565b6101a36105ab565b6040516100f491906109b7565b6101b86105ba565b6040516100f491906109e1565b6101a36101d3366004610878565b610648565b6101106101e63660046107af565b610663565b600581815481106101f857fe5b6000918252602090912001546001600160a01b0316905081565b60006040516102209061069a565b604051809103906000f08015801561023c573d6000803e3d6000fd5b506040516308a79aa760e41b81529091506001600160a01b03821690638a79aa709061026c9088906004016109e1565b600060405180830381600087803b15801561028657600080fd5b505af115801561029a573d6000803e3d6000fd5b5050604051635d37eeb760e01b81526001600160a01b0384169250635d37eeb791506102ca9086906004016109b7565b600060405180830381600087803b1580156102e457600080fd5b505af11580156102f8573d6000803e3d6000fd5b505060405163893ec75b60e01b81526001600160a01b038416925063893ec75b9150610328908790600401610a1a565b600060405180830381600087803b15801561034257600080fd5b505af1158015610356573d6000803e3d6000fd5b50506040516304b62c6f60e51b81526001600160a01b03841692506396c58de09150610387906000906004016109f9565b600060405180830381600087803b1580156103a157600080fd5b505af11580156103b5573d6000803e3d6000fd5b505060405163506283cd60e01b81526001600160a01b038416925063506283cd91506103e59085906004016109b7565b600060405180830381600087803b1580156103ff57600080fd5b505af1158015610413573d6000803e3d6000fd5b5050600580546001810182556000919091527f036b6384b5eca791c62761152d0c79bb0604c104a5fb6f4eb0703f3154bb3db00180546001600160a01b0319166001600160a01b039490941693909317909255505050505050565b6000805b6002548110156104c357826002828154811061048a57fe5b906000526020600020015414156104bb57600281815481106104a857fe5b90600052602060002001549150506104c9565b600101610472565b50600090505b919050565b600281815481106104db57fe5b600091825260209091200154905081565b6005545b90565b60025490565b6000805b6002548110156104c357826002828154811061051557fe5b906000526020600020015414156105305760019150506104c9565b6001016104fd565b600481815481106104db57fe5b61054e8161046e565b8114156105765760405162461bcd60e51b815260040161056d90610a0a565b60405180910390fd5b600280546001810182556000919091527f405787fa12a823e0f2b7631cc41b3ba8828b3321ca811111fa75cd3aa3bb5ace0155565b6001546001600160a01b031681565b6000805460408051602060026001851615610100026000190190941693909304601f810184900484028201840190925281815292918301828280156106405780601f1061061557610100808354040283529160200191610640565b820191906000526020600020905b81548152906001019060200180831161062357829003601f168201915b505050505081565b6003602052600090815260409020546001600160a01b031681565b81516106769060009060208501906106a7565b50600180546001600160a01b0319166001600160a01b039290921691909117905550565b611ddc80610b1e83390190565b828054600181600116156101000203166002900490600052602060002090601f016020900481019282601f106106e857805160ff1916838001178555610715565b82800160010185558215610715579182015b828111156107155782518255916020019190600101906106fa565b50610721929150610725565b5090565b6104f091905b80821115610721576000815560010161072b565b803561074a81610afd565b92915050565b600082601f83011261076157600080fd5b813561077461076f82610a4f565b610a28565b9150808252602083016020830185838301111561079057600080fd5b61079b838284610ab7565b50505092915050565b803561074a81610b14565b600080604083850312156107c257600080fd5b823567ffffffffffffffff8111156107d957600080fd5b6107e585828601610750565b92505060206107f68582860161073f565b9150509250929050565b6000806000806080858703121561081657600080fd5b843567ffffffffffffffff81111561082d57600080fd5b61083987828801610750565b945050602061084a878288016107a4565b935050604061085b8782880161073f565b925050606061086c8782880161073f565b91505092959194509250565b60006020828403121561088a57600080fd5b600061089684846107a4565b949350505050565b6108a781610a90565b82525050565b6108a781610a9b565b6108a781610aac565b60006108ca82610a83565b6108d48185610a87565b93506108e4818560208601610ac3565b6108ed81610af3565b9093019392505050565b600081546001811660008114610914576001811461093a57610979565b607f60028304166109258187610a87565b60ff1984168152955050602085019250610979565b600282046109488187610a87565b955061095385610a77565b60005b8281101561097257815488820152600190910190602001610956565b8701945050505b505092915050565b600061098e601183610a87565b70494420616c72656164792065786973747360781b815260200192915050565b6108a7816104f0565b6020810161074a828461089e565b6020810161074a82846108ad565b6020810161074a82846108b6565b602080825281016109f281846108bf565b9392505050565b602080825281016109f281846108f7565b6020808252810161074a81610981565b6020810161074a82846109ae565b60405181810167ffffffffffffffff81118282101715610a4757600080fd5b604052919050565b600067ffffffffffffffff821115610a6657600080fd5b506020601f91909101601f19160190565b60009081526020902090565b5190565b90815260200190565b600061074a82610aa0565b151590565b6001600160a01b031690565b600061074a82610a90565b82818337506000910152565b60005b83811015610ade578181015183820152602001610ac6565b83811115610aed576000848401525b50505050565b601f01601f191690565b610b0681610a90565b8114610b1157600080fd5b50565b610b06816104f056fe608060405234801561001057600080fd5b50611dbc806100206000396000f3fe608060405234801561001057600080fd5b50600436106101215760003560e01c80636af6d78c116100ad57806396c58de01161007157806396c58de0146103ff578063af991a05146104a3578063b32f36c9146104c0578063ec3615cd146104ec578063f7692bea146104f457610121565b80636af6d78c1461029d57806376db0ecc146102a557806381d12c58146102d1578063893ec75b1461033e5780638a79aa701461035b57610121565b80634cd05742116100f45780634cd0574214610212578063506283cd1461022c57806351640fee146102525780635d37eeb71461026f57806368a969971461029557610121565b8063032c6ced14610126578063331a01fd146101545780633c0359a4146101d15780633e78c7c01461020a575b600080fd5b6101526004803603604081101561013c57600080fd5b506001600160a01b038135169060200135610634565b005b61015c6106b6565b6040805160208082528351818301528351919283929083019185019080838360005b8381101561019657818101518382015260200161017e565b50505050905090810190601f1680156101c35780820380516001836020036101000a031916815260200191505b509250505060405180910390f35b6101ee600480360360208110156101e757600080fd5b5035610743565b604080516001600160a01b039092168252519081900360200190f35b6101ee61076a565b61021a610779565b60408051918252519081900360200190f35b6101526004803603602081101561024257600080fd5b50356001600160a01b031661077f565b6101ee6004803603602081101561026857600080fd5b50356107a1565b6101526004803603602081101561028557600080fd5b50356001600160a01b0316610872565b6101ee610894565b61021a6108a3565b61015c600480360360408110156102bb57600080fd5b506001600160a01b0381351690602001356108aa565b6102ee600480360360208110156102e757600080fd5b5035610a03565b60408051602080825283518183015283519192839290830191858101910280838360005b8381101561032a578181015183820152602001610312565b505050509050019250505060405180910390f35b6101526004803603602081101561035457600080fd5b5035610b1a565b6101526004803603602081101561037157600080fd5b810190602081018135600160201b81111561038b57600080fd5b82018360208201111561039d57600080fd5b803590602001918460018302840111600160201b831117156103be57600080fd5b91908080601f016020809104026020016040519081016040528093929190818152602001838380828437600092019190915250929550610b1f945050505050565b6101526004803603602081101561041557600080fd5b810190602081018135600160201b81111561042f57600080fd5b82018360208201111561044157600080fd5b803590602001918460018302840111600160201b8311171561046257600080fd5b91908080601f016020809104026020016040519081016040528093929190818152602001838380828437600092019190915250929550610b36945050505050565b61021a600480360360208110156104b957600080fd5b5035610b49565b610152600480360360408110156104d657600080fd5b506001600160a01b038135169060200135610b67565b61015c610bcc565b610152600480360360a081101561050a57600080fd5b810190602081018135600160201b81111561052457600080fd5b82018360208201111561053657600080fd5b803590602001918460018302840111600160201b8311171561055757600080fd5b91908080601f0160208091040260200160405190810160405280939291908181526020018383808284376000920191909152509295949360208101935035915050600160201b8111156105a957600080fd5b8201836020820111156105bb57600080fd5b803590602001918460018302840111600160201b831117156105dc57600080fd5b91908080601f0160208091040260200160405190810160405280939291908181526020018383808284376000920191909152509295505082359350506001600160a01b03602083013581169260400135169050610c27565b600061063f826107a1565b9050806001600160a01b0316631679876a846040518263ffffffff1660e01b815260040180826001600160a01b03166001600160a01b03168152602001915050600060405180830381600087803b15801561069957600080fd5b505af11580156106ad573d6000803e3d6000fd5b50505050505050565b60018054604080516020600284861615610100026000190190941693909304601f8101849004840282018401909252818152929183018282801561073b5780601f106107105761010080835404028352916020019161073b565b820191906000526020600020905b81548152906001019060200180831161071e57829003601f168201915b505050505081565b6005818154811061075057fe5b6000918252602090912001546001600160a01b0316905081565b6002546001600160a01b031681565b60035481565b600480546001600160a01b0319166001600160a01b0392909216919091179055565b6000805b60055481101561086b5782600582815481106107bd57fe5b6000918252602091829020015460408051636bcda13b60e01b815290516001600160a01b0390921692636bcda13b92600480840193829003018186803b15801561080657600080fd5b505afa15801561081a573d6000803e3d6000fd5b505050506040513d602081101561083057600080fd5b50511415610863576005818154811061084557fe5b6000918252602090912001546001600160a01b0316915061086d9050565b6001016107a5565b505b919050565b600280546001600160a01b0319166001600160a01b0392909216919091179055565b6004546001600160a01b031681565b6005545b90565b606060006108b7836107a1565b9050806001600160a01b031663e6e6b7c1856040518263ffffffff1660e01b815260040180826001600160a01b03166001600160a01b0316815260200191505060006040518083038186803b15801561090f57600080fd5b505afa158015610923573d6000803e3d6000fd5b505050506040513d6000823e601f3d908101601f19168201604052602081101561094c57600080fd5b8101908080516040519392919084600160201b82111561096b57600080fd5b90830190602082018581111561098057600080fd5b8251600160201b81118282018810171561099957600080fd5b82525081516020918201929091019080838360005b838110156109c65781810151838201526020016109ae565b50505050905090810190601f1680156109f35780820380516001836020036101000a031916815260200191505b5060405250505091505092915050565b60606000610a10836107a1565b9050806001600160a01b031663b74cb2db6040518163ffffffff1660e01b815260040160006040518083038186803b158015610a4b57600080fd5b505afa158015610a5f573d6000803e3d6000fd5b505050506040513d6000823e601f3d908101601f191682016040526020811015610a8857600080fd5b8101908080516040519392919084600160201b821115610aa757600080fd5b908301906020820185811115610abc57600080fd5b82518660208202830111600160201b82111715610ad857600080fd5b82525081516020918201928201910280838360005b83811015610b05578181015183820152602001610aed565b50505050905001604052505050915050919050565b600355565b8051610b32906000906020840190611094565b5050565b8051610b32906001906020840190611094565b60068181548110610b5657fe5b600091825260209091200154905081565b6000610b72826107a1565b9050806001600160a01b031663717a29a0846040518263ffffffff1660e01b815260040180826001600160a01b03166001600160a01b03168152602001915050600060405180830381600087803b15801561069957600080fd5b6000805460408051602060026001851615610100026000190190941693909304601f8101849004840282018401909252818152929183018282801561073b5780601f106107105761010080835404028352916020019161073b565b6000604051610c3590611112565b604051809103906000f080158015610c51573d6000803e3d6000fd5b506040516335bb738760e21b81526020600482018181528951602484015289519394506001600160a01b0385169363d6edce1c938b9383926044909201919085019080838360005b83811015610cb1578181015183820152602001610c99565b50505050905090810190601f168015610cde5780820380516001836020036101000a031916815260200191505b5092505050600060405180830381600087803b158015610cfd57600080fd5b505af1158015610d11573d6000803e3d6000fd5b5050604051632b2f75ad60e11b81526020600482018181528951602484015289516001600160a01b038716955063565eeb5a94508a9391928392604401919085019080838360005b83811015610d71578181015183820152602001610d59565b50505050905090810190601f168015610d9e5780820380516001836020036101000a031916815260200191505b5092505050600060405180830381600087803b158015610dbd57600080fd5b505af1158015610dd1573d6000803e3d6000fd5b50505050806001600160a01b031663cea1e858856040518263ffffffff1660e01b815260040180828152602001915050600060405180830381600087803b158015610e1b57600080fd5b505af1158015610e2f573d6000803e3d6000fd5b50505050806001600160a01b03166399aad941846040518263ffffffff1660e01b815260040180826001600160a01b03166001600160a01b03168152602001915050600060405180830381600087803b158015610e8b57600080fd5b505af1158015610e9f573d6000803e3d6000fd5b50505050806001600160a01b031663f98500086040518163ffffffff1660e01b8152600401600060405180830381600087803b158015610ede57600080fd5b505af1158015610ef2573d6000803e3d6000fd5b50506040516308a79aa760e41b81526020600482019081526000805460026000196101006001841615020190911604602484018190526001600160a01b0387169550638a79aa7094509092829160449091019084908015610f945780601f10610f6957610100808354040283529160200191610f94565b820191906000526020600020905b815481529060010190602001808311610f7757829003601f168201915b505092505050600060405180830381600087803b158015610fb457600080fd5b505af1158015610fc8573d6000803e3d6000fd5b50505050806001600160a01b031663e5d235f4836040518263ffffffff1660e01b815260040180826001600160a01b03166001600160a01b03168152602001915050600060405180830381600087803b15801561102457600080fd5b505af1158015611038573d6000803e3d6000fd5b5050600580546001810182556000919091527f036b6384b5eca791c62761152d0c79bb0604c104a5fb6f4eb0703f3154bb3db00180546001600160a01b0319166001600160a01b03949094169390931790925550505050505050565b828054600181600116156101000203166002900490600052602060002090601f016020900481019282601f106110d557805160ff1916838001178555611102565b82800160010185558215611102579182015b828111156111025782518255916020019190600101906110e7565b5061110e92915061111f565b5090565b610c4e8061113a83390190565b6108a791905b8082111561110e576000815560010161112556fe608060405234801561001057600080fd5b50610c2e806100206000396000f3fe608060405234801561001057600080fd5b506004361061014d5760003560e01c806399aad941116100c3578063d40afd8b1161007c578063d40afd8b146104c2578063d6edce1c146104ca578063e264da6914610570578063e5d235f41461058d578063e6e6b7c1146105b3578063f9850008146105d95761014d565b806399aad941146103dc578063a982bd5014610402578063b508ba3114610428578063b74cb2db14610430578063bf088e5714610488578063cea1e858146104a55761014d565b80634cc82215116101155780634cc822151461023d578063557084ce1461025a578063565eeb5a146102625780636bcda13b14610308578063717a29a0146103105780638a79aa70146103365761014d565b8063091841f1146101525780631679876a146101cf5780631f4591dd146101f75780632b64818f1461021b578063323046b114610235575b600080fd5b61015a6105e1565b6040805160208082528351818301528351919283929083019185019080838360005b8381101561019457818101518382015260200161017c565b50505050905090810190601f1680156101c15780820380516001836020036101000a031916815260200191505b509250505060405180910390f35b6101f5600480360360208110156101e557600080fd5b50356001600160a01b031661066e565b005b6101ff6106c0565b604080516001600160a01b039092168252519081900360200190f35b6102236106cf565b60408051918252519081900360200190f35b6102236106d6565b6101f56004803603602081101561025357600080fd5b50356106dc565b61015a610784565b6101f56004803603602081101561027857600080fd5b81019060208101813564010000000081111561029357600080fd5b8201836020820111156102a557600080fd5b803590602001918460018302840111640100000000831117156102c757600080fd5b91908080601f0160208091040260200160405190810160405280939291908181526020018383808284376000920191909152509295506107df945050505050565b6102236107f6565b6101f56004803603602081101561032657600080fd5b50356001600160a01b03166107fc565b6101f56004803603602081101561034c57600080fd5b81019060208101813564010000000081111561036757600080fd5b82018360208201111561037957600080fd5b8035906020019184600183028401116401000000008311171561039b57600080fd5b91908080601f016020809104026020016040519081016040528093929190818152602001838380828437600092019190915250929550610894945050505050565b6101f5600480360360208110156103f257600080fd5b50356001600160a01b03166108a7565b6101f56004803603602081101561041857600080fd5b50356001600160a01b03166108c9565b61015a61091b565b610438610976565b60408051602080825283518183015283519192839290830191858101910280838360005b8381101561047457818101518382015260200161045c565b505050509050019250505060405180910390f35b6101ff6004803603602081101561049e57600080fd5b50356109d8565b6101f5600480360360208110156104bb57600080fd5b50356109ff565b6101ff610a04565b6101f5600480360360208110156104e057600080fd5b8101906020810181356401000000008111156104fb57600080fd5b82018360208201111561050d57600080fd5b8035906020019184600183028401116401000000008311171561052f57600080fd5b91908080601f016020809104026020016040519081016040528093929190818152602001838380828437600092019190915250929550610a13945050505050565b6101ff6004803603602081101561058657600080fd5b5035610a26565b6101f5600480360360208110156105a357600080fd5b50356001600160a01b0316610a33565b61015a600480360360208110156105c957600080fd5b50356001600160a01b0316610a55565b6101f5610b5b565b60018054604080516020600284861615610100026000190190941693909304601f810184900484028201840190925281815292918301828280156106665780601f1061063b57610100808354040283529160200191610666565b820191906000526020600020905b81548152906001019060200180831161064957829003601f168201915b505050505081565b600880546001810182556000919091527ff3f7a9fe364faab93b216da50a3214154f22a0a2b415b23a84c8169e8b636ee30180546001600160a01b0319166001600160a01b0392909216919091179055565b6007546001600160a01b031681565b6002545b90565b60065481565b805b6008546000190181101561075357600881600101815481106106fc57fe5b600091825260209091200154600880546001600160a01b03909216918390811061072257fe5b600091825260209091200180546001600160a01b0319166001600160a01b03929092169190911790556001016106de565b50600880548061075f57fe5b600082815260209020810160001990810180546001600160a01b031916905501905550565b6000805460408051602060026001851615610100026000190190941693909304601f810184900484028201840190925281815292918301828280156106665780601f1061063b57610100808354040283529160200191610666565b80516107f2906001906020840190610b61565b5050565b60035481565b6002805460018101825560009182527f405787fa12a823e0f2b7631cc41b3ba8828b3321ca811111fa75cd3aa3bb5ace0180546001600160a01b0319166001600160a01b0384161790555b6008548110156107f257816001600160a01b03166008828154811061086857fe5b6000918252602090912001546001600160a01b0316141561088c5761088c816106dc565b600101610847565b80516107f2906005906020840190610b61565b600480546001600160a01b0319166001600160a01b0392909216919091179055565b600280546001810182556000919091527f405787fa12a823e0f2b7631cc41b3ba8828b3321ca811111fa75cd3aa3bb5ace0180546001600160a01b0319166001600160a01b0392909216919091179055565b6005805460408051602060026001851615610100026000190190941693909304601f810184900484028201840190925281815292918301828280156106665780601f1061063b57610100808354040283529160200191610666565b606060088054806020026020016040519081016040528092919081815260200182805480156109ce57602002820191906000526020600020905b81546001600160a01b031681526001909101906020018083116109b0575b5050505050905090565b600281815481106109e557fe5b6000918252602090912001546001600160a01b0316905081565b600355565b6004546001600160a01b031681565b80516107f2906000906020840190610b61565b600881815481106109e557fe5b600780546001600160a01b0319166001600160a01b0392909216919091179055565b606060005b600254811015610ac357826001600160a01b031660028281548110610a7b57fe5b6000918252602090912001546001600160a01b03161415610abb57505060408051808201909152600781526614149154d1539560ca1b6020820152610b56565b600101610a5a565b5060005b600854811015610b3257826001600160a01b031660088281548110610ae857fe5b6000918252602090912001546001600160a01b03161415610b2a575050604080518082019091526009815268149154555154d5115160ba1b6020820152610b56565b600101610ac7565b505060408051808201909152600a8152691393d517d4149154d39560b21b60208201525b919050565b42600655565b828054600181600116156101000203166002900490600052602060002090601f016020900481019282601f10610ba257805160ff1916838001178555610bcf565b82800160010185558215610bcf579182015b82811115610bcf578251825591602001919060010190610bb4565b50610bdb929150610bdf565b5090565b6106d391905b80821115610bdb5760008155600101610be556fea265627a7a723158205509047e2707c722aaa56b538ad1e3dbc86f1b9dbef5511d0be92d6f683d559764736f6c63430005100032a265627a7a723158204e0be63fb41f7aead36cf1cbf8a7ea67e43968ba76ce401f35fd9bb7c48ebf1464736f6c63430005100032a365627a7a7231582082a220474db6bfec69199a1ba5451c60b804bdb491d0566fe46acf2c6f85b2026c6578706572696d656e74616cf564736f6c63430005100040a365627a7a72315820b9a76381a484dffb457295b6665e975c2b824b6662caa478bdc9540147ac1ca16c6578706572696d656e74616cf564736f6c63430005100040608060405234801561001057600080fd5b50611a1a806100206000396000f3fe608060405234801561001057600080fd5b50600436106100a95760003560e01c8063ab096cf511610071578063ab096cf51461014e578063bd11906914610163578063bee3e32514610183578063dd121998146101a7578063f902b77e146101ba578063fce9f721146101cd576100a9565b806306ae6148146100ae5780631a11a723146100d757806326c56720146100f7578063326948ad146101175780636458f5421461012a575b600080fd5b6100c16100bc3660046114fd565b6101e0565b6040516100ce9190611817565b60405180910390f35b6100ea6100e5366004611696565b6102b6565b6040516100ce91906118be565b61010a61010536600461162a565b61042b565b6040516100ce9190611825565b61010a6101253660046114fd565b6104c9565b61013d6101383660046114fd565b61062d565b6040516100ce959493929190611836565b61016161015c36600461162a565b6107b8565b005b6101766101713660046115b2565b61082f565b6040516100ce9190611806565b61019661019136600461154e565b6108c1565b6040516100ce95949392919061187d565b6101616101b536600461162a565b610ed4565b61010a6101c83660046114fd565b610f12565b6100c16101db36600461154e565b6110fc565b6000805b83518110156102ae57826001600160a01b031684828151811061020357fe5b60200260200101516001600160a01b031663c5d163756040518163ffffffff1660e01b815260040160206040518083038186803b15801561024357600080fd5b505afa158015610257573d6000803e3d6000fd5b505050506040513d601f19601f8201168201806040525061027b91908101906114a2565b6001600160a01b031614156102a65783818151811061029657fe5b60200260200101519150506102b0565b6001016101e4565b505b92915050565b600080805b836001600160a01b03166330dc15536040518163ffffffff1660e01b815260040160206040518083038186803b1580156102f457600080fd5b505afa158015610308573d6000803e3d6000fd5b505050506040513d601f19601f8201168201806040525061032c9190810190611707565b8110156102ae57604051630375691760e11b81526001600160a01b038516906306ead22e9061035f9084906004016118be565b60206040518083038186803b15801561037757600080fd5b505afa15801561038b573d6000803e3d6000fd5b505050506040513d601f19601f820116820180604052506103af91908101906116b4565b6001600160a01b0316636af6d78c6040518163ffffffff1660e01b815260040160206040518083038186803b1580156103e757600080fd5b505afa1580156103fb573d6000803e3d6000fd5b505050506040513d601f19601f8201168201806040525061041f9190810190611707565b909101906001016102bb565b6060600061043a8684866110fc565b604051631db6c3b360e21b81529091506001600160a01b038216906376db0ecc9061046b90879089906004016117eb565b60006040518083038186803b15801561048357600080fd5b505afa158015610497573d6000803e3d6000fd5b505050506040513d6000823e601f3d908101601f191682016040526104bf91908101906116d2565b9695505050505050565b606060005b835181101561060c57826001600160a01b03168482815181106104ed57fe5b60200260200101516001600160a01b031663c5d163756040518163ffffffff1660e01b815260040160206040518083038186803b15801561052d57600080fd5b505afa158015610541573d6000803e3d6000fd5b505050506040513d601f19601f8201168201806040525061056591908101906114a2565b6001600160a01b031614156106045783818151811061058057fe5b60200260200101516001600160a01b031663ec5d9e586040518163ffffffff1660e01b815260040160006040518083038186803b1580156105c057600080fd5b505afa1580156105d4573d6000803e3d6000fd5b505050506040513d6000823e601f3d908101601f191682016040526105fc91908101906116d2565b9150506102b0565b6001016104ce565b50506040805180820190915260028152616e6f60f01b602082015292915050565b6060600080600080600061064188886101e0565b9050806001600160a01b031663ec5d9e586040518163ffffffff1660e01b815260040160006040518083038186803b15801561067c57600080fd5b505afa158015610690573d6000803e3d6000fd5b505050506040513d6000823e601f3d908101601f191682016040526106b891908101906116d2565b87826001600160a01b03166351c165d56040518163ffffffff1660e01b815260040160206040518083038186803b1580156106f257600080fd5b505afa158015610706573d6000803e3d6000fd5b505050506040513d601f19601f8201168201806040525061072a9190810190611707565b836001600160a01b03166330dc15536040518163ffffffff1660e01b815260040160206040518083038186803b15801561076357600080fd5b505afa158015610777573d6000803e3d6000fd5b505050506040513d601f19601f8201168201806040525061079b9190810190611707565b6107a4856102b6565b939c929b5090995097509095509350505050565b60006107c58583856110fc565b60405163b32f36c960e01b81529091506001600160a01b0382169063b32f36c9906107f690869088906004016117eb565b600060405180830381600087803b15801561081057600080fd5b505af1158015610824573d6000803e3d6000fd5b505050505050505050565b6060600061083e8686866110fc565b60405163103a258b60e31b81529091506001600160a01b038216906381d12c589061086d9086906004016118be565b60006040518083038186803b15801561088557600080fd5b505afa158015610899573d6000803e3d6000fd5b505050506040513d6000823e601f3d908101601f191682016040526104bf91908101906114c8565b60606000606060008060006108d689896101e0565b905060005b816001600160a01b03166330dc15536040518163ffffffff1660e01b815260040160206040518083038186803b15801561091457600080fd5b505afa158015610928573d6000803e3d6000fd5b505050506040513d601f19601f8201168201806040525061094c9190810190611707565b811015610e9d57876001600160a01b0316826001600160a01b03166306ead22e836040518263ffffffff1660e01b815260040161098991906118be565b60206040518083038186803b1580156109a157600080fd5b505afa1580156109b5573d6000803e3d6000fd5b505050506040513d601f19601f820116820180604052506109d991908101906116b4565b6001600160a01b0316633e78c7c06040518163ffffffff1660e01b815260040160206040518083038186803b158015610a1157600080fd5b505afa158015610a25573d6000803e3d6000fd5b505050506040513d601f19601f82011682018060405250610a4991908101906114a2565b6001600160a01b03161415610e9557604051630375691760e11b81526001600160a01b038316906306ead22e90610a849084906004016118be565b60206040518083038186803b158015610a9c57600080fd5b505afa158015610ab0573d6000803e3d6000fd5b505050506040513d601f19601f82011682018060405250610ad491908101906116b4565b6001600160a01b031663ec3615cd6040518163ffffffff1660e01b815260040160006040518083038186803b158015610b0c57600080fd5b505afa158015610b20573d6000803e3d6000fd5b505050506040513d6000823e601f3d908101601f19168201604052610b4891908101906116d2565b604051630375691760e11b81526001600160a01b038416906306ead22e90610b749085906004016118be565b60206040518083038186803b158015610b8c57600080fd5b505afa158015610ba0573d6000803e3d6000fd5b505050506040513d601f19601f82011682018060405250610bc491908101906116b4565b6001600160a01b0316634cd057426040518163ffffffff1660e01b815260040160206040518083038186803b158015610bfc57600080fd5b505afa158015610c10573d6000803e3d6000fd5b505050506040513d601f19601f82011682018060405250610c349190810190611707565b836001600160a01b031663ec5d9e586040518163ffffffff1660e01b815260040160006040518083038186803b158015610c6d57600080fd5b505afa158015610c81573d6000803e3d6000fd5b505050506040513d6000823e601f3d908101601f19168201604052610ca991908101906116d2565b604051630375691760e11b81526001600160a01b038616906306ead22e90610cd59087906004016118be565b60206040518083038186803b158015610ced57600080fd5b505afa158015610d01573d6000803e3d6000fd5b505050506040513d601f19601f82011682018060405250610d2591908101906116b4565b6001600160a01b0316633e78c7c06040518163ffffffff1660e01b815260040160206040518083038186803b158015610d5d57600080fd5b505afa158015610d71573d6000803e3d6000fd5b505050506040513d601f19601f82011682018060405250610d9591908101906114a2565b604051630375691760e11b81526001600160a01b038716906306ead22e90610dc19088906004016118be565b60206040518083038186803b158015610dd957600080fd5b505afa158015610ded573d6000803e3d6000fd5b505050506040513d601f19601f82011682018060405250610e1191908101906116b4565b6001600160a01b0316636af6d78c6040518163ffffffff1660e01b815260040160206040518083038186803b158015610e4957600080fd5b505afa158015610e5d573d6000803e3d6000fd5b505050506040513d601f19601f82011682018060405250610e819190810190611707565b939a50919850965094509250610ec9915050565b6001016108db565b505060408051602080820183526000808352835191820190935282815290965090945092508391508190505b939792965093509350565b6000610ee18583856110fc565b60405163032c6ced60e01b81529091506001600160a01b0382169063032c6ced906107f690869088906004016117eb565b606060005b835181101561060c5760005b848281518110610f2f57fe5b60200260200101516001600160a01b03166330dc15536040518163ffffffff1660e01b815260040160206040518083038186803b158015610f6f57600080fd5b505afa158015610f83573d6000803e3d6000fd5b505050506040513d601f19601f82011682018060405250610fa79190810190611707565b8110156110f357836001600160a01b0316858381518110610fc457fe5b60200260200101516001600160a01b03166306ead22e836040518263ffffffff1660e01b8152600401610ff791906118be565b60206040518083038186803b15801561100f57600080fd5b505afa158015611023573d6000803e3d6000fd5b505050506040513d601f19601f8201168201806040525061104791908101906116b4565b6001600160a01b0316633e78c7c06040518163ffffffff1660e01b815260040160206040518083038186803b15801561107f57600080fd5b505afa158015611093573d6000803e3d6000fd5b505050506040513d601f19601f820116820180604052506110b791908101906114a2565b6001600160a01b031614156110eb576040518060400160405280600381526020016279657360e81b815250925050506102b0565b600101610f23565b50600101610f17565b60008061110985856101e0565b905060005b816001600160a01b03166330dc15536040518163ffffffff1660e01b815260040160206040518083038186803b15801561114757600080fd5b505afa15801561115b573d6000803e3d6000fd5b505050506040513d601f19601f8201168201806040525061117f9190810190611707565b81101561131857836001600160a01b0316826001600160a01b03166306ead22e836040518263ffffffff1660e01b81526004016111bc91906118be565b60206040518083038186803b1580156111d457600080fd5b505afa1580156111e8573d6000803e3d6000fd5b505050506040513d601f19601f8201168201806040525061120c91908101906116b4565b6001600160a01b0316633e78c7c06040518163ffffffff1660e01b815260040160206040518083038186803b15801561124457600080fd5b505afa158015611258573d6000803e3d6000fd5b505050506040513d601f19601f8201168201806040525061127c91908101906114a2565b6001600160a01b0316141561131057604051630375691760e11b81526001600160a01b038316906306ead22e906112b79084906004016118be565b60206040518083038186803b1580156112cf57600080fd5b505afa1580156112e3573d6000803e3d6000fd5b505050506040513d601f19601f8201168201806040525061130791908101906116b4565b9250505061131b565b60010161110e565b50505b9392505050565b80356102b0816119ae565b80516102b0816119ae565b600082601f83011261134957600080fd5b815161135c611357826118f3565b6118cc565b9150818183526020840193506020810190508385602084028201111561138157600080fd5b60005b838110156113ad5781611397888261132d565b8452506020928301929190910190600101611384565b5050505092915050565b600082601f8301126113c857600080fd5b81356113d6611357826118f3565b915081818352602084019350602081019050838560208402820111156113fb57600080fd5b60005b838110156113ad57816114118882611427565b84525060209283019291909101906001016113fe565b80356102b0816119c5565b80516102b0816119c5565b600082601f83011261144e57600080fd5b815161145c61135782611914565b9150808252602083016020830185838301111561147857600080fd5b611483838284611974565b50505092915050565b80356102b0816119ce565b80516102b0816119ce565b6000602082840312156114b457600080fd5b60006114c0848461132d565b949350505050565b6000602082840312156114da57600080fd5b815167ffffffffffffffff8111156114f157600080fd5b6114c084828501611338565b6000806040838503121561151057600080fd5b823567ffffffffffffffff81111561152757600080fd5b611533858286016113b7565b925050602061154485828601611322565b9150509250929050565b60008060006060848603121561156357600080fd5b833567ffffffffffffffff81111561157a57600080fd5b611586868287016113b7565b935050602061159786828701611322565b92505060406115a886828701611322565b9150509250925092565b600080600080608085870312156115c857600080fd5b843567ffffffffffffffff8111156115df57600080fd5b6115eb878288016113b7565b94505060206115fc87828801611322565b935050604061160d87828801611322565b925050606061161e8782880161148c565b91505092959194509250565b6000806000806080858703121561164057600080fd5b843567ffffffffffffffff81111561165757600080fd5b611663878288016113b7565b94505060206116748782880161148c565b935050604061168587828801611322565b925050606061161e87828801611322565b6000602082840312156116a857600080fd5b60006114c08484611427565b6000602082840312156116c657600080fd5b60006114c08484611432565b6000602082840312156116e457600080fd5b815167ffffffffffffffff8111156116fb57600080fd5b6114c08482850161143d565b60006020828403121561171957600080fd5b60006114c08484611497565b60006117318383611739565b505060200190565b6117428161194f565b82525050565b600061175382611942565b61175d8185611946565b93506117688361193c565b8060005b838110156117965781516117808882611725565b975061178b8361193c565b92505060010161176c565b509495945050505050565b6117428161195a565b60006117b582611942565b6117bf8185611946565b93506117cf818560208601611974565b6117d8816119a4565b9093019392505050565b61174281611971565b604081016117f98285611739565b61131b60208301846117e2565b6020808252810161131b8184611748565b602081016102b082846117a1565b6020808252810161131b81846117aa565b60a0808252810161184781886117aa565b90506118566020830187611739565b61186360408301866117e2565b61187060608301856117e2565b6104bf60808301846117e2565b60a0808252810161188e81886117aa565b905061189d60208301876117e2565b81810360408301526118af81866117aa565b90506118706060830185611739565b602081016102b082846117e2565b60405181810167ffffffffffffffff811182821017156118eb57600080fd5b604052919050565b600067ffffffffffffffff82111561190a57600080fd5b5060209081020190565b600067ffffffffffffffff82111561192b57600080fd5b506020601f91909101601f19160190565b60200190565b5190565b90815260200190565b60006102b082611965565b60006102b08261194f565b6001600160a01b031690565b90565b60005b8381101561198f578181015183820152602001611977565b8381111561199e576000848401525b50505050565b601f01601f191690565b6119b78161194f565b81146119c257600080fd5b50565b6119b78161195a565b6119b78161197156fea365627a7a72315820a1b8e4b3a4b8b08f7a62fedd989885a8a6a6a5e971f7853430f917ecfa421bc96c6578706572696d656e74616cf564736f6c63430005100040",
  "source": "// SPDX-License-Identifier: MIT\r\npragma solidity >=0.4.21 <0.7.0;\r\npragma experimental ABIEncoderV2;\r\nimport \"./Organisation.sol\";\r\nimport \"./Student.sol\";\r\nimport \"./Company.sol\";\r\nimport \"./HelperOrg.sol\";\r\n\r\ncontract OverAll {\r\n    struct certificate {\r\n        string name;\r\n        uint256 uniqueId;\r\n        address issuedTo;\r\n        uint256 date;\r\n        address issuedBy;\r\n        string ipfs;\r\n    }\r\n    HelperOrg public helper = new HelperOrg();\r\n    Organisation[] public Orgaganisations;\r\n\r\n    // Company[] public Companies;\r\n\r\n    mapping(address => address) public stToOrg;\r\n\r\n    struct organisation {\r\n        string name;\r\n        address addr;\r\n        uint256 noOfStudents;\r\n        uint256 noOfCertificates;\r\n    }\r\n    struct student {\r\n        string name;\r\n        address addr;\r\n        uint256 studentUniqueId;\r\n        uint256 noOfCertificates;\r\n    }\r\n\r\n    // addd organisation\r\n    function addOrganisation(string memory name) public {\r\n        Organisation org = new Organisation();\r\n        org.addOrganisation(name, msg.sender);\r\n        Orgaganisations.push(org);\r\n    }\r\n\r\n    function checkOrganisation() public view returns (string memory) {\r\n        return helper.checkOrganisation(Orgaganisations, msg.sender);\r\n    }\r\n\r\n    function getOrganisation() public view returns (Organisation) {\r\n        return helper.getOrganisation(Orgaganisations, msg.sender);\r\n    }\r\n\r\n    // all orgaisations\r\n    function getAllOrganisations() public view returns (organisation[] memory) {\r\n        organisation[] memory orgs = new organisation[](Orgaganisations.length);\r\n        for (uint256 i = 0; i < Orgaganisations.length; i++) {\r\n            orgs[i].name = Orgaganisations[i].organisationName();\r\n            orgs[i].addr = Orgaganisations[i].organisationAddress();\r\n            orgs[i].noOfStudents = Orgaganisations[i].noOfStudents();\r\n            orgs[i].noOfCertificates = helper.totalCertificates(\r\n                Orgaganisations[i]\r\n            );\r\n        }\r\n        return orgs;\r\n        // return Orgaganisations;\r\n    }\r\n\r\n    // get organisation details\r\n    function getOrganisationDetails()\r\n        public\r\n        view\r\n        returns (\r\n            string memory,\r\n            address,\r\n            uint256,\r\n            uint256,\r\n            uint256\r\n        )\r\n    {\r\n        return helper.getOrganisationDetails(Orgaganisations, msg.sender);\r\n    }\r\n\r\n    // get allstudents\r\n    function getAllStudents() public view returns (student[] memory) {\r\n        Organisation org = getOrganisation();\r\n        student[] memory allStudents = new student[](org.noOfStudents());\r\n        for (uint256 i = 0; i < org.noOfStudents(); i++) {\r\n            student memory s = student(\r\n                org.students(i).student_name(),\r\n                org.students(i).student_acc_address(),\r\n                org.students(i).student_unique_id(),\r\n                org.students(i).noOfCertificates()\r\n            );\r\n            allStudents[i] = s;\r\n        }\r\n        return allStudents;\r\n    }\r\n\r\n    // add student\r\n    function addStudent(\r\n        string memory _name,\r\n        uint256 _uid,\r\n        address _orgAddr\r\n    ) public {\r\n        Organisation org = helper.getOrganisation(Orgaganisations, msg.sender);\r\n        org.addStudent(_name, _uid, msg.sender, _orgAddr);\r\n\r\n        stToOrg[msg.sender] = _orgAddr;\r\n    }\r\n\r\n    // get all certificates of a student\r\n    function getAllCertificates() public view returns (certificate[] memory) {\r\n        Organisation org = getOrganisation();\r\n        certificate[] memory allCertificates = new certificate[](\r\n            helper.totalCertificates(org)\r\n        );\r\n        uint256 k = 0;\r\n        for (uint256 i = 0; i < org.noOfStudents(); i++) {\r\n            for (uint256 j = 0; j < org.students(i).noOfCertificates(); j++) {\r\n                certificate memory c = certificate(\r\n                    org.students(i).certifications(j).studentName(),\r\n                    org.students(i).certifications(j).certification_unique_id(),\r\n                    org.students(i).certifications(j).issued_to(),\r\n                    org.students(i).certifications(j).date(),\r\n                    org.students(i).certifications(j).issuedBy(),\r\n                    org\r\n                        .students(i)\r\n                        .certifications(j)\r\n                        .certification_ipfs_hashValue()\r\n                );\r\n                allCertificates[k] = c;\r\n                k++;\r\n            }\r\n        }\r\n        return allCertificates;\r\n    }\r\n\r\n    // checkstudent\r\n    function checkStudent() public view returns (string memory) {\r\n        return helper.checkStudent(Orgaganisations, msg.sender);\r\n    }\r\n\r\n    function addStudentUniqueID(uint256 _id) public {\r\n        Organisation org = getOrganisation();\r\n        org.addStudentId(_id);\r\n    }\r\n\r\n    // addcertificate to student\r\n    function addCertificate(\r\n        string memory _ipfs,\r\n        string memory _merklee,\r\n        uint256 cUnique,\r\n        address sUnique\r\n    ) public {\r\n        Student s = helper.getStudent(Orgaganisations, msg.sender, sUnique);\r\n        s.addCertificate(_ipfs, _merklee, cUnique, sUnique, msg.sender); // add certificate\r\n    }\r\n\r\n    // getstudentdetail\r\n    function getStudentDetail(address addr)\r\n        public\r\n        view\r\n        returns (\r\n            string memory,\r\n            uint256,\r\n            string memory,\r\n            address,\r\n            uint256\r\n        )\r\n    {\r\n        return helper.getStudentDetail(Orgaganisations, stToOrg[addr], addr);\r\n    }\r\n\r\n    function requestAcess(uint256 _id, address _orgAdd) public {\r\n        helper.requestAcess(Orgaganisations, _id, msg.sender, _orgAdd);\r\n    }\r\n\r\n    function checkAcess(uint256 _id, address _orgAdd)\r\n        public\r\n        view\r\n        returns (string memory)\r\n    {\r\n        return helper.checkAcess(Orgaganisations, _id, msg.sender, _orgAdd);\r\n    }\r\n\r\n    function requests(uint256 _id, address stu)\r\n        public\r\n        view\r\n        returns (address[] memory)\r\n    {\r\n        return helper.requests(Orgaganisations, msg.sender, stu, _id);\r\n    }\r\n\r\n    function giveAcess(address stu, uint256 _id) public {\r\n        return helper.giveAcess(Orgaganisations, _id, stu, msg.sender);\r\n    }\r\n\r\n    // function addCompany(string memory _name) public {\r\n    //     Company c = new Company();\r\n    //     c.addCompany(_name, msg.sender);\r\n    //     Companies.push(c);\r\n    // }\r\n}\r\n",
  "sourcePath": "C:\\Users\\kosgi\\crypto\\contracts\\OverAll.sol",
  "compiler": {
    "name": "solc",
    "version": "0.5.16+commit.9c3226ce.Emscripten.clang"
  },
  "schemaVersion": "3.4.13",
  "updatedAt": "2023-03-16T18:12:00.659Z",
  "devdoc": {
    "methods": {}
  },
  "userdoc": {
    "methods": {}
  }
}