{
  "contractName": "Certification",
  "abi": [
    {
      "constant": true,
      "inputs": [
        {
          "internalType": "uint256",
          "name": "",
          "type": "uint256"
        }
      ],
      "name": "certification_acesss_by",
      "outputs": [
        {
          "internalType": "address",
          "name": "",
          "type": "address"
        }
      ],
      "payable": false,
      "stateMutability": "view",
      "type": "function"
    },
    {
      "constant": true,
      "inputs": [],
      "name": "certification_ipfs_hashValue",
      "outputs": [
        {
          "internalType": "string",
          "name": "",
          "type": "string"
        }
      ],
      "payable": false,
      "stateMutability": "view",
      "type": "function"
    },
    {
      "constant": true,
      "inputs": [],
      "name": "certification_merklee_hashvalue",
      "outputs": [
        {
          "internalType": "string",
          "name": "",
          "type": "string"
        }
      ],
      "payable": false,
      "stateMutability": "view",
      "type": "function"
    },
    {
      "constant": true,
      "inputs": [],
      "name": "certification_unique_id",
      "outputs": [
        {
          "internalType": "uint256",
          "name": "",
          "type": "uint256"
        }
      ],
      "payable": false,
      "stateMutability": "view",
      "type": "function"
    },
    {
      "constant": true,
      "inputs": [],
      "name": "date",
      "outputs": [
        {
          "internalType": "uint256",
          "name": "",
          "type": "uint256"
        }
      ],
      "payable": false,
      "stateMutability": "view",
      "type": "function"
    },
    {
      "constant": true,
      "inputs": [],
      "name": "issuedBy",
      "outputs": [
        {
          "internalType": "address",
          "name": "",
          "type": "address"
        }
      ],
      "payable": false,
      "stateMutability": "view",
      "type": "function"
    },
    {
      "constant": true,
      "inputs": [],
      "name": "issued_to",
      "outputs": [
        {
          "internalType": "address",
          "name": "",
          "type": "address"
        }
      ],
      "payable": false,
      "stateMutability": "view",
      "type": "function"
    },
    {
      "constant": true,
      "inputs": [],
      "name": "studentName",
      "outputs": [
        {
          "internalType": "string",
          "name": "",
          "type": "string"
        }
      ],
      "payable": false,
      "stateMutability": "view",
      "type": "function"
    },
    {
      "constant": false,
      "inputs": [],
      "name": "setDate",
      "outputs": [],
      "payable": false,
      "stateMutability": "nonpayable",
      "type": "function"
    },
    {
      "constant": true,
      "inputs": [],
      "name": "accessLength",
      "outputs": [
        {
          "internalType": "uint256",
          "name": "",
          "type": "uint256"
        }
      ],
      "payable": false,
      "stateMutability": "view",
      "type": "function"
    },
    {
      "constant": false,
      "inputs": [
        {
          "internalType": "address",
          "name": "_oAdd",
          "type": "address"
        }
      ],
      "name": "setIssuedBy",
      "outputs": [],
      "payable": false,
      "stateMutability": "nonpayable",
      "type": "function"
    },
    {
      "constant": false,
      "inputs": [
        {
          "internalType": "address",
          "name": "_iT",
          "type": "address"
        }
      ],
      "name": "setIssuedTo",
      "outputs": [],
      "payable": false,
      "stateMutability": "nonpayable",
      "type": "function"
    },
    {
      "constant": false,
      "inputs": [
        {
          "internalType": "string",
          "name": "name",
          "type": "string"
        }
      ],
      "name": "setStudentName",
      "outputs": [],
      "payable": false,
      "stateMutability": "nonpayable",
      "type": "function"
    },
    {
      "constant": false,
      "inputs": [
        {
          "internalType": "string",
          "name": "hashValue",
          "type": "string"
        }
      ],
      "name": "setCertificationIpfsHashvalue",
      "outputs": [],
      "payable": false,
      "stateMutability": "nonpayable",
      "type": "function"
    },
    {
      "constant": false,
      "inputs": [
        {
          "internalType": "string",
          "name": "merkleeHashavlue",
          "type": "string"
        }
      ],
      "name": "setMerkleeHashvalue",
      "outputs": [],
      "payable": false,
      "stateMutability": "nonpayable",
      "type": "function"
    },
    {
      "constant": false,
      "inputs": [
        {
          "internalType": "address",
          "name": "_addAddress",
          "type": "address"
        }
      ],
      "name": "addCertificationAddress",
      "outputs": [],
      "payable": false,
      "stateMutability": "nonpayable",
      "type": "function"
    },
    {
      "constant": false,
      "inputs": [
        {
          "internalType": "uint256",
          "name": "_id",
          "type": "uint256"
        }
      ],
      "name": "setUniqueId",
      "outputs": [],
      "payable": false,
      "stateMutability": "nonpayable",
      "type": "function"
    },
    {
      "constant": true,
      "inputs": [
        {
          "internalType": "address",
          "name": "_addr",
          "type": "address"
        }
      ],
      "name": "checkAddressAcess",
      "outputs": [
        {
          "internalType": "bool",
          "name": "",
          "type": "bool"
        }
      ],
      "payable": false,
      "stateMutability": "view",
      "type": "function"
    }
  ],
  "bytecode": "0x608060405234801561001057600080fd5b50610cda806100206000396000f3fe608060405234801561001057600080fd5b50600436106101165760003560e01c8063a982bd50116100a2578063d40afd8b11610071578063d40afd8b146105e2578063d6edce1c1461062c578063e5d235f4146106e7578063e6e6b7c11461072b578063f98500081461078757610116565b8063a982bd501461047f578063b508ba31146104c3578063bf088e5714610546578063cea1e858146105b457610116565b8063557084ce116100e9578063557084ce14610224578063565eeb5a146102a75780636bcda13b146103625780638a79aa701461038057806399aad9411461043b57610116565b8063091841f11461011b5780631f4591dd1461019e5780632b64818f146101e8578063323046b114610206575b600080fd5b610123610791565b6040518080602001828103825283818151815260200191508051906020019080838360005b83811015610163578082015181840152602081019050610148565b50505050905090810190601f1680156101905780820380516001836020036101000a031916815260200191505b509250505060405180910390f35b6101a661082f565b604051808273ffffffffffffffffffffffffffffffffffffffff1673ffffffffffffffffffffffffffffffffffffffff16815260200191505060405180910390f35b6101f0610855565b6040518082815260200191505060405180910390f35b61020e610862565b6040518082815260200191505060405180910390f35b61022c610868565b6040518080602001828103825283818151815260200191508051906020019080838360005b8381101561026c578082015181840152602081019050610251565b50505050905090810190601f1680156102995780820380516001836020036101000a031916815260200191505b509250505060405180910390f35b610360600480360360208110156102bd57600080fd5b81019080803590602001906401000000008111156102da57600080fd5b8201836020820111156102ec57600080fd5b8035906020019184600183028401116401000000008311171561030e57600080fd5b91908080601f016020809104026020016040519081016040528093929190818152602001838380828437600081840152601f19601f820116905080830192505050505050509192919290505050610906565b005b61036a610920565b6040518082815260200191505060405180910390f35b6104396004803603602081101561039657600080fd5b81019080803590602001906401000000008111156103b357600080fd5b8201836020820111156103c557600080fd5b803590602001918460018302840111640100000000831117156103e757600080fd5b91908080601f016020809104026020016040519081016040528093929190818152602001838380828437600081840152601f19601f820116905080830192505050505050509192919290505050610926565b005b61047d6004803603602081101561045157600080fd5b81019080803573ffffffffffffffffffffffffffffffffffffffff169060200190929190505050610940565b005b6104c16004803603602081101561049557600080fd5b81019080803573ffffffffffffffffffffffffffffffffffffffff169060200190929190505050610984565b005b6104cb6109ed565b6040518080602001828103825283818151815260200191508051906020019080838360005b8381101561050b5780820151818401526020810190506104f0565b50505050905090810190601f1680156105385780820380516001836020036101000a031916815260200191505b509250505060405180910390f35b6105726004803603602081101561055c57600080fd5b8101908080359060200190929190505050610a8b565b604051808273ffffffffffffffffffffffffffffffffffffffff1673ffffffffffffffffffffffffffffffffffffffff16815260200191505060405180910390f35b6105e0600480360360208110156105ca57600080fd5b8101908080359060200190929190505050610ac7565b005b6105ea610ad1565b604051808273ffffffffffffffffffffffffffffffffffffffff1673ffffffffffffffffffffffffffffffffffffffff16815260200191505060405180910390f35b6106e56004803603602081101561064257600080fd5b810190808035906020019064010000000081111561065f57600080fd5b82018360208201111561067157600080fd5b8035906020019184600183028401116401000000008311171561069357600080fd5b91908080601f016020809104026020016040519081016040528093929190818152602001838380828437600081840152601f19601f820116905080830192505050505050509192919290505050610af7565b005b610729600480360360208110156106fd57600080fd5b81019080803573ffffffffffffffffffffffffffffffffffffffff169060200190929190505050610b11565b005b61076d6004803603602081101561074157600080fd5b81019080803573ffffffffffffffffffffffffffffffffffffffff169060200190929190505050610b55565b604051808215151515815260200191505060405180910390f35b61078f610bf7565b005b60018054600181600116156101000203166002900480601f0160208091040260200160405190810160405280929190818152602001828054600181600116156101000203166002900480156108275780601f106107fc57610100808354040283529160200191610827565b820191906000526020600020905b81548152906001019060200180831161080a57829003601f168201915b505050505081565b600760009054906101000a900473ffffffffffffffffffffffffffffffffffffffff1681565b6000600280549050905090565b60065481565b60008054600181600116156101000203166002900480601f0160208091040260200160405190810160405280929190818152602001828054600181600116156101000203166002900480156108fe5780601f106108d3576101008083540402835291602001916108fe565b820191906000526020600020905b8154815290600101906020018083116108e157829003601f168201915b505050505081565b806001908051906020019061091c929190610c00565b5050565b60035481565b806005908051906020019061093c929190610c00565b5050565b80600460006101000a81548173ffffffffffffffffffffffffffffffffffffffff021916908373ffffffffffffffffffffffffffffffffffffffff16021790555050565b60028190806001815401808255809150509060018203906000526020600020016000909192909190916101000a81548173ffffffffffffffffffffffffffffffffffffffff021916908373ffffffffffffffffffffffffffffffffffffffff1602179055505050565b60058054600181600116156101000203166002900480601f016020809104026020016040519081016040528092919081815260200182805460018160011615610100020316600290048015610a835780601f10610a5857610100808354040283529160200191610a83565b820191906000526020600020905b815481529060010190602001808311610a6657829003601f168201915b505050505081565b60028181548110610a9857fe5b906000526020600020016000915054906101000a900473ffffffffffffffffffffffffffffffffffffffff1681565b8060038190555050565b600460009054906101000a900473ffffffffffffffffffffffffffffffffffffffff1681565b8060009080519060200190610b0d929190610c00565b5050565b80600760006101000a81548173ffffffffffffffffffffffffffffffffffffffff021916908373ffffffffffffffffffffffffffffffffffffffff16021790555050565b600080600090505b600280549050811015610bec578273ffffffffffffffffffffffffffffffffffffffff1660028281548110610b8e57fe5b9060005260206000200160009054906101000a900473ffffffffffffffffffffffffffffffffffffffff1673ffffffffffffffffffffffffffffffffffffffff161415610bdf576001915050610bf2565b8080600101915050610b5d565b50600090505b919050565b42600681905550565b828054600181600116156101000203166002900490600052602060002090601f016020900481019282601f10610c4157805160ff1916838001178555610c6f565b82800160010185558215610c6f579182015b82811115610c6e578251825591602001919060010190610c53565b5b509050610c7c9190610c80565b5090565b610ca291905b80821115610c9e576000816000905550600101610c86565b5090565b9056fea265627a7a72315820f29f672dfef226ea937a7a7c1a082147ca9d1126f9ced13b786c4fd8a3cc44cb64736f6c63430005100032",
  "source": "// SPDX-License-Identifier: MIT\r\npragma solidity >=0.4.21 <0.7.0;\r\n\r\ncontract Certification {\r\n    string public certification_ipfs_hashValue;\r\n    string public certification_merklee_hashvalue;\r\n    address[] public certification_acesss_by;\r\n    uint256 public certification_unique_id;\r\n    address public issued_to;\r\n    string public studentName;\r\n    uint256 public date;\r\n    address public issuedBy;\r\n\r\n    function setDate() public {\r\n        date = block.timestamp;\r\n    }\r\n\r\n    function accessLength() public view returns (uint256) {\r\n        return certification_acesss_by.length;\r\n    }\r\n\r\n    function setIssuedBy(address _oAdd) public {\r\n        issuedBy = _oAdd;\r\n    }\r\n\r\n    function setIssuedTo(address _iT) public {\r\n        issued_to = _iT;\r\n    }\r\n\r\n    function setStudentName(string memory name) public {\r\n        studentName = name;\r\n    }\r\n\r\n    function setCertificationIpfsHashvalue(string memory hashValue) public {\r\n        certification_ipfs_hashValue = hashValue;\r\n    }\r\n\r\n    function setMerkleeHashvalue(string memory merkleeHashavlue) public {\r\n        certification_merklee_hashvalue = merkleeHashavlue;\r\n    }\r\n\r\n    function addCertificationAddress(address _addAddress) public {\r\n        certification_acesss_by.push(_addAddress);\r\n    }\r\n\r\n    function setUniqueId(uint256 _id) public {\r\n        certification_unique_id = _id;\r\n    }\r\n    function checkAddressAcess(address _addr)public view returns( bool){\r\n        for(uint256 i = 0; i < certification_acesss_by.length; i++){\r\n            if(certification_acesss_by[i] == _addr){\r\n                return true;\r\n            }\r\n        }\r\n        return false;\r\n    }\r\n}",
  "sourcePath": "D:\\user_cherry\\User\\Projects\\miniprojectF\\contracts\\Certification.sol",
  "compiler": {
    "name": "solc",
    "version": "0.5.16+commit.9c3226ce.Emscripten.clang"
  },
  "schemaVersion": "3.2.3",
  "updatedAt": "2022-05-30T16:35:37.123Z",
  "networkType": "ethereum",
  "devdoc": {
    "methods": {}
  },
  "userdoc": {
    "methods": {}
  }
}