{
  "contractName": "Company",
  "abi": [
    {
      "constant": true,
      "inputs": [],
      "name": "companyAddress",
      "outputs": [
        {
          "internalType": "address",
          "name": "",
          "type": "address"
        }
      ],
      "payable": false,
      "stateMutability": "view",
      "type": "function"
    },
    {
      "constant": true,
      "inputs": [],
      "name": "companyName",
      "outputs": [
        {
          "internalType": "string",
          "name": "",
          "type": "string"
        }
      ],
      "payable": false,
      "stateMutability": "view",
      "type": "function"
    },
    {
      "constant": false,
      "inputs": [
        {
          "internalType": "string",
          "name": "_companyName",
          "type": "string"
        },
        {
          "internalType": "address",
          "name": "_addr",
          "type": "address"
        }
      ],
      "name": "addCompany",
      "outputs": [],
      "payable": false,
      "stateMutability": "nonpayable",
      "type": "function"
    }
  ],
  "bytecode": "0x608060405234801561001057600080fd5b506104f9806100206000396000f3fe608060405234801561001057600080fd5b50600436106100415760003560e01c806338f032691461004657806353e1ead914610062578063f5ec2eed14610080575b600080fd5b610060600480360361005b91908101906102cc565b61009e565b005b61006a6100fa565b6040516100779190610368565b60405180910390f35b610088610120565b6040516100959190610383565b60405180910390f35b81600090805190602001906100b49291906101be565b5080600160006101000a81548173ffffffffffffffffffffffffffffffffffffffff021916908373ffffffffffffffffffffffffffffffffffffffff1602179055505050565b600160009054906101000a900473ffffffffffffffffffffffffffffffffffffffff1681565b60008054600181600116156101000203166002900480601f0160208091040260200160405190810160405280929190818152602001828054600181600116156101000203166002900480156101b65780601f1061018b576101008083540402835291602001916101b6565b820191906000526020600020905b81548152906001019060200180831161019957829003601f168201915b505050505081565b828054600181600116156101000203166002900490600052602060002090601f016020900481019282601f106101ff57805160ff191683800117855561022d565b8280016001018555821561022d579182015b8281111561022c578251825591602001919060010190610211565b5b50905061023a919061023e565b5090565b61026091905b8082111561025c576000816000905550600101610244565b5090565b90565b6000813590506102728161049f565b92915050565b600082601f83011261028957600080fd5b813561029c610297826103d2565b6103a5565b915080825260208301602083018583830111156102b857600080fd5b6102c383828461044c565b50505092915050565b600080604083850312156102df57600080fd5b600083013567ffffffffffffffff8111156102f957600080fd5b61030585828601610278565b925050602061031685828601610263565b9150509250929050565b6103298161041a565b82525050565b600061033a826103fe565b6103448185610409565b935061035481856020860161045b565b61035d8161048e565b840191505092915050565b600060208201905061037d6000830184610320565b92915050565b6000602082019050818103600083015261039d818461032f565b905092915050565b6000604051905081810181811067ffffffffffffffff821117156103c857600080fd5b8060405250919050565b600067ffffffffffffffff8211156103e957600080fd5b601f19601f8301169050602081019050919050565b600081519050919050565b600082825260208201905092915050565b60006104258261042c565b9050919050565b600073ffffffffffffffffffffffffffffffffffffffff82169050919050565b82818337600083830152505050565b60005b8381101561047957808201518184015260208101905061045e565b83811115610488576000848401525b50505050565b6000601f19601f8301169050919050565b6104a88161041a565b81146104b357600080fd5b5056fea365627a7a72315820f870e264e738bb41696905b0d10f103f4857608c02e8dce2a68f95c63e95b4296c6578706572696d656e74616cf564736f6c63430005100040",
  "source": "pragma solidity >=0.4.21 <0.7.0;\r\npragma experimental ABIEncoderV2;\r\nimport \"./Student.sol\";\r\nimport \"./Certification.sol\";\r\n\r\ncontract Company {\r\n    string public companyName;\r\n    address public companyAddress;\r\n\r\n    function addCompany(string memory _companyName, address _addr) public {\r\n        companyName = _companyName;\r\n        companyAddress = _addr;\r\n    }\r\n}\r\n",
  "sourcePath": "D:\\user_cherry\\User\\Projects\\miniprojectF\\contracts\\Company.sol",
  "compiler": {
    "name": "solc",
    "version": "0.5.16+commit.9c3226ce.Emscripten.clang"
  },
  "schemaVersion": "3.2.3",
  "updatedAt": "2022-05-30T16:35:38.694Z",
  "networkType": "ethereum",
  "devdoc": {
    "methods": {}
  },
  "userdoc": {
    "methods": {}
  }
}