{
  "contractName": "Final",
  "abi": [
    {
      "constant": true,
      "inputs": [],
      "name": "helper",
      "outputs": [
        {
          "internalType": "contract Helper",
          "name": "",
          "type": "address"
        }
      ],
      "payable": false,
      "stateMutability": "view",
      "type": "function"
    },
    {
      "constant": true,
      "inputs": [],
      "name": "overAll",
      "outputs": [
        {
          "internalType": "contract OverAll",
          "name": "",
          "type": "address"
        }
      ],
      "payable": false,
      "stateMutability": "view",
      "type": "function"
    },
    {
      "constant": false,
      "inputs": [
        {
          "internalType": "string",
          "name": "_organisationName",
          "type": "string"
        }
      ],
      "name": "addOrganisation",
      "outputs": [],
      "payable": false,
      "stateMutability": "nonpayable",
      "type": "function"
    }
  ],
  "bytecode": "0x6080604052604051610010906100e7565b604051809103906000f08015801561002c573d6000803e3d6000fd5b506000806101000a81548173ffffffffffffffffffffffffffffffffffffffff021916908373ffffffffffffffffffffffffffffffffffffffff160217905550604051610078906100f4565b604051809103906000f080158015610094573d6000803e3d6000fd5b50600160006101000a81548173ffffffffffffffffffffffffffffffffffffffff021916908373ffffffffffffffffffffffffffffffffffffffff1602179055503480156100e157600080fd5b50610101565b610ebb8061365a83390190565b6105dc8061451583390190565b61354a806101106000396000f3fe608060405234801561001057600080fd5b50600436106100415760003560e01c806363b0e66a14610046578063988760c114610064578063e14c710714610080575b600080fd5b61004e61009e565b60405161005b919061032a565b60405180910390f35b61007e60048036036100799190810190610274565b6100c4565b005b6100886101ee565b6040516100959190610360565b60405180910390f35b600160009054906101000a900473ffffffffffffffffffffffffffffffffffffffff1681565b60006040516100d290610213565b604051809103906000f0801580156100ee573d6000803e3d6000fd5b5090508073ffffffffffffffffffffffffffffffffffffffff1663fe794b0083336040518363ffffffff1660e01b815260040161012c92919061037b565b600060405180830381600087803b15801561014657600080fd5b505af115801561015a573d6000803e3d6000fd5b505050506000809054906101000a900473ffffffffffffffffffffffffffffffffffffffff1673ffffffffffffffffffffffffffffffffffffffff1663bb23cbe7826040518263ffffffff1660e01b81526004016101b89190610345565b600060405180830381600087803b1580156101d257600080fd5b505af11580156101e6573d6000803e3d6000fd5b505050505050565b6000809054906101000a900473ffffffffffffffffffffffffffffffffffffffff1681565b612fd28061053683390190565b600082601f83011261023157600080fd5b813561024461023f826103d8565b6103ab565b9150808252602083016020830185838301111561026057600080fd5b61026b8382846104e2565b50505092915050565b60006020828403121561028657600080fd5b600082013567ffffffffffffffff8111156102a057600080fd5b6102ac84828501610220565b91505092915050565b6102be81610440565b82525050565b6102cd81610452565b82525050565b6102dc81610476565b82525050565b6102eb8161049a565b82525050565b60006102fc82610404565b610306818561040f565b93506103168185602086016104f1565b61031f81610524565b840191505092915050565b600060208201905061033f60008301846102c4565b92915050565b600060208201905061035a60008301846102d3565b92915050565b600060208201905061037560008301846102e2565b92915050565b6000604082019050818103600083015261039581856102f1565b90506103a460208301846102b5565b9392505050565b6000604051905081810181811067ffffffffffffffff821117156103ce57600080fd5b8060405250919050565b600067ffffffffffffffff8211156103ef57600080fd5b601f19601f8301169050602081019050919050565b600081519050919050565b600082825260208201905092915050565b600073ffffffffffffffffffffffffffffffffffffffff82169050919050565b600061044b826104be565b9050919050565b600061045d82610464565b9050919050565b600061046f82610420565b9050919050565b600061048182610488565b9050919050565b600061049382610420565b9050919050565b60006104a5826104ac565b9050919050565b60006104b782610420565b9050919050565b60006104c9826104d0565b9050919050565b60006104db82610420565b9050919050565b82818337600083830152505050565b60005b8381101561050f5780820151818401526020810190506104f4565b8381111561051e576000848401525b50505050565b6000601f19601f830116905091905056fe60806040526040518060800160405280600160ff168152602001600260ff168152602001600360ff168152602001600460ff168152506004906004610045929190610058565b5034801561005257600080fd5b506100cf565b828054828255906000526020600020908101928215610099579160200282015b82811115610098578251829060ff16905591602001919060010190610078565b5b5090506100a691906100aa565b5090565b6100cc91905b808211156100c85760008160009055506001016100b0565b5090565b90565b612ef4806100de6000396000f3fe608060405234801561001057600080fd5b50600436106100cf5760003560e01c806351d332311161008c578063c5d1637511610066578063c5d1637514610238578063ec5d9e5814610256578063faead81214610274578063fe794b00146102a4576100cf565b806351d33231146101bc57806371e5ee5f146101ec5780638c74a77b1461021c576100cf565b806306ead22e146100d4578063137c3f7d146101045780632bff309a146101205780632ce349be1461015057806330dc15531461018057806351c165d51461019e575b600080fd5b6100ee60048036036100e99190810190610a98565b6102c0565b6040516100fb9190610c74565b60405180910390f35b61011e60048036036101199190810190610a1d565b6102fc565b005b61013a60048036036101359190810190610a98565b6105ae565b6040516101479190610d15565b60405180910390f35b61016a60048036036101659190810190610a98565b61061a565b6040516101779190610d15565b60405180910390f35b61018861063b565b6040516101959190610d15565b60405180910390f35b6101a6610648565b6040516101b39190610d15565b60405180910390f35b6101d660048036036101d19190810190610a98565b610655565b6040516101e39190610c59565b60405180910390f35b61020660048036036102019190810190610a98565b6106ab565b6040516102139190610d15565b60405180910390f35b61023660048036036102319190810190610a98565b6106cc565b005b610240610746565b60405161024d9190610c3e565b60405180910390f35b61025e61076c565b60405161026b9190610c8f565b60405180910390f35b61028e60048036036102899190810190610a98565b61080a565b60405161029b9190610c3e565b60405180910390f35b6102be60048036036102b991908101906109c9565b61083d565b005b600581815481106102cd57fe5b906000526020600020016000915054906101000a900473ffffffffffffffffffffffffffffffffffffffff1681565b600060405161030a90610899565b604051809103906000f080158015610326573d6000803e3d6000fd5b5090508073ffffffffffffffffffffffffffffffffffffffff16638a79aa70866040518263ffffffff1660e01b81526004016103629190610cb1565b600060405180830381600087803b15801561037c57600080fd5b505af1158015610390573d6000803e3d6000fd5b505050508073ffffffffffffffffffffffffffffffffffffffff16635d37eeb7846040518263ffffffff1660e01b81526004016103cd9190610c3e565b600060405180830381600087803b1580156103e757600080fd5b505af11580156103fb573d6000803e3d6000fd5b505050508073ffffffffffffffffffffffffffffffffffffffff1663893ec75b856040518263ffffffff1660e01b81526004016104389190610d15565b600060405180830381600087803b15801561045257600080fd5b505af1158015610466573d6000803e3d6000fd5b505050508073ffffffffffffffffffffffffffffffffffffffff166396c58de060006040518263ffffffff1660e01b81526004016104a49190610cd3565b600060405180830381600087803b1580156104be57600080fd5b505af11580156104d2573d6000803e3d6000fd5b505050508073ffffffffffffffffffffffffffffffffffffffff1663506283cd836040518263ffffffff1660e01b815260040161050f9190610c3e565b600060405180830381600087803b15801561052957600080fd5b505af115801561053d573d6000803e3d6000fd5b5050505060058190806001815401808255809150509060018203906000526020600020016000909192909190916101000a81548173ffffffffffffffffffffffffffffffffffffffff021916908373ffffffffffffffffffffffffffffffffffffffff160217905550505050505050565b600080600090505b60028054905081101561060f5782600282815481106105d157fe5b9060005260206000200154141561060257600281815481106105ef57fe5b9060005260206000200154915050610615565b80806001019150506105b6565b50600090505b919050565b6002818154811061062757fe5b906000526020600020016000915090505481565b6000600580549050905090565b6000600280549050905090565b600080600090505b6002805490508110156106a057826002828154811061067857fe5b906000526020600020015414156106935760019150506106a6565b808060010191505061065d565b50600090505b919050565b600481815481106106b857fe5b906000526020600020016000915090505481565b6106d5816105ae565b811415610717576040517f08c379a000000000000000000000000000000000000000000000000000000000815260040161070e90610cf5565b60405180910390fd5b600281908060018154018082558091505090600182039060005260206000200160009091929091909150555050565b600160009054906101000a900473ffffffffffffffffffffffffffffffffffffffff1681565b60008054600181600116156101000203166002900480601f0160208091040260200160405190810160405280929190818152602001828054600181600116156101000203166002900480156108025780601f106107d757610100808354040283529160200191610802565b820191906000526020600020905b8154815290600101906020018083116107e557829003601f168201915b505050505081565b60036020528060005260406000206000915054906101000a900473ffffffffffffffffffffffffffffffffffffffff1681565b81600090805190602001906108539291906108a6565b5080600160006101000a81548173ffffffffffffffffffffffffffffffffffffffff021916908373ffffffffffffffffffffffffffffffffffffffff1602179055505050565b611fff80610eb383390190565b828054600181600116156101000203166002900490600052602060002090601f016020900481019282601f106108e757805160ff1916838001178555610915565b82800160010185558215610915579182015b828111156109145782518255916020019190600101906108f9565b5b5090506109229190610926565b5090565b61094891905b8082111561094457600081600090555060010161092c565b5090565b90565b60008135905061095a81610e84565b92915050565b600082601f83011261097157600080fd5b813561098461097f82610d5d565b610d30565b915080825260208301602083018583830111156109a057600080fd5b6109ab838284610e31565b50505092915050565b6000813590506109c381610e9b565b92915050565b600080604083850312156109dc57600080fd5b600083013567ffffffffffffffff8111156109f657600080fd5b610a0285828601610960565b9250506020610a138582860161094b565b9150509250929050565b60008060008060808587031215610a3357600080fd5b600085013567ffffffffffffffff811115610a4d57600080fd5b610a5987828801610960565b9450506020610a6a878288016109b4565b9350506040610a7b8782880161094b565b9250506060610a8c8782880161094b565b91505092959194509250565b600060208284031215610aaa57600080fd5b6000610ab8848285016109b4565b91505092915050565b610aca81610dc5565b82525050565b610ad981610dd7565b82525050565b610ae881610e0d565b82525050565b6000610af982610da9565b610b038185610db4565b9350610b13818560208601610e40565b610b1c81610e73565b840191505092915050565b6000610b3282610d9e565b610b3c8185610db4565b9350610b4c818560208601610e40565b610b5581610e73565b840191505092915050565b600081546001811660008114610b7d5760018114610ba357610be7565b607f6002830416610b8e8187610db4565b955060ff198316865260208601935050610be7565b60028204610bb18187610db4565b9550610bbc85610d89565b60005b82811015610bde57815481890152600182019150602081019050610bbf565b80880195505050505b505092915050565b6000610bfc601183610db4565b91507f494420616c7265616479206578697374730000000000000000000000000000006000830152602082019050919050565b610c3881610e03565b82525050565b6000602082019050610c536000830184610ac1565b92915050565b6000602082019050610c6e6000830184610ad0565b92915050565b6000602082019050610c896000830184610adf565b92915050565b60006020820190508181036000830152610ca98184610b27565b905092915050565b60006020820190508181036000830152610ccb8184610aee565b905092915050565b60006020820190508181036000830152610ced8184610b60565b905092915050565b60006020820190508181036000830152610d0e81610bef565b9050919050565b6000602082019050610d2a6000830184610c2f565b92915050565b6000604051905081810181811067ffffffffffffffff82111715610d5357600080fd5b8060405250919050565b600067ffffffffffffffff821115610d7457600080fd5b601f19601f8301169050602081019050919050565b60008190508160005260206000209050919050565b600081519050919050565b600081519050919050565b600082825260208201905092915050565b6000610dd082610de3565b9050919050565b60008115159050919050565b600073ffffffffffffffffffffffffffffffffffffffff82169050919050565b6000819050919050565b6000610e1882610e1f565b9050919050565b6000610e2a82610de3565b9050919050565b82818337600083830152505050565b60005b83811015610e5e578082015181840152602081019050610e43565b83811115610e6d576000848401525b50505050565b6000601f19601f8301169050919050565b610e8d81610dc5565b8114610e9857600080fd5b50565b610ea481610e03565b8114610eaf57600080fd5b5056fe608060405234801561001057600080fd5b50611fdf806100206000396000f3fe608060405234801561001057600080fd5b50600436106101005760003560e01c806368a969971161009757806396c58de01161006657806396c58de01461050b578063af991a05146105c6578063ec3615cd14610608578063f7692bea1461068b57610100565b806368a96997146103ba5780636af6d78c14610404578063893ec75b146104225780638a79aa701461045057610100565b8063506283cd116100d3578063506283cd1461025e57806351640fee146102a257806359519536146103105780635d37eeb71461037657610100565b8063331a01fd146101055780633c0359a4146101885780633e78c7c0146101f65780634cd0574214610240575b600080fd5b61010d610827565b6040518080602001828103825283818151815260200191508051906020019080838360005b8381101561014d578082015181840152602081019050610132565b50505050905090810190601f16801561017a5780820380516001836020036101000a031916815260200191505b509250505060405180910390f35b6101b46004803603602081101561019e57600080fd5b81019080803590602001909291905050506108c5565b604051808273ffffffffffffffffffffffffffffffffffffffff1673ffffffffffffffffffffffffffffffffffffffff16815260200191505060405180910390f35b6101fe610901565b604051808273ffffffffffffffffffffffffffffffffffffffff1673ffffffffffffffffffffffffffffffffffffffff16815260200191505060405180910390f35b610248610927565b6040518082815260200191505060405180910390f35b6102a06004803603602081101561027457600080fd5b81019080803573ffffffffffffffffffffffffffffffffffffffff16906020019092919050505061092d565b005b6102ce600480360360208110156102b857600080fd5b8101908080359060200190929190505050610971565b604051808273ffffffffffffffffffffffffffffffffffffffff1673ffffffffffffffffffffffffffffffffffffffff16815260200191505060405180910390f35b61035c6004803603604081101561032657600080fd5b81019080803573ffffffffffffffffffffffffffffffffffffffff16906020019092919080359060200190929190505050610a99565b604051808215151515815260200191505060405180910390f35b6103b86004803603602081101561038c57600080fd5b81019080803573ffffffffffffffffffffffffffffffffffffffff169060200190929190505050610b68565b005b6103c2610bac565b604051808273ffffffffffffffffffffffffffffffffffffffff1673ffffffffffffffffffffffffffffffffffffffff16815260200191505060405180910390f35b61040c610bd2565b6040518082815260200191505060405180910390f35b61044e6004803603602081101561043857600080fd5b8101908080359060200190929190505050610bdf565b005b6105096004803603602081101561046657600080fd5b810190808035906020019064010000000081111561048357600080fd5b82018360208201111561049557600080fd5b803590602001918460018302840111640100000000831117156104b757600080fd5b91908080601f016020809104026020016040519081016040528093929190818152602001838380828437600081840152601f19601f820116905080830192505050505050509192919290505050610be9565b005b6105c46004803603602081101561052157600080fd5b810190808035906020019064010000000081111561053e57600080fd5b82018360208201111561055057600080fd5b8035906020019184600183028401116401000000008311171561057257600080fd5b91908080601f016020809104026020016040519081016040528093929190818152602001838380828437600081840152601f19601f820116905080830192505050505050509192919290505050610c03565b005b6105f2600480360360208110156105dc57600080fd5b8101908080359060200190929190505050610c1d565b6040518082815260200191505060405180910390f35b610610610c3e565b6040518080602001828103825283818151815260200191508051906020019080838360005b83811015610650578082015181840152602081019050610635565b50505050905090810190601f16801561067d5780820380516001836020036101000a031916815260200191505b509250505060405180910390f35b610825600480360360a08110156106a157600080fd5b81019080803590602001906401000000008111156106be57600080fd5b8201836020820111156106d057600080fd5b803590602001918460018302840111640100000000831117156106f257600080fd5b91908080601f016020809104026020016040519081016040528093929190818152602001838380828437600081840152601f19601f8201169050808301925050505050505091929192908035906020019064010000000081111561075557600080fd5b82018360208201111561076757600080fd5b8035906020019184600183028401116401000000008311171561078957600080fd5b91908080601f016020809104026020016040519081016040528093929190818152602001838380828437600081840152601f19601f82011690508083019250505050505050919291929080359060200190929190803573ffffffffffffffffffffffffffffffffffffffff169060200190929190803573ffffffffffffffffffffffffffffffffffffffff169060200190929190505050610cdc565b005b60018054600181600116156101000203166002900480601f0160208091040260200160405190810160405280929190818152602001828054600181600116156101000203166002900480156108bd5780601f10610892576101008083540402835291602001916108bd565b820191906000526020600020905b8154815290600101906020018083116108a057829003601f168201915b505050505081565b600581815481106108d257fe5b906000526020600020016000915054906101000a900473ffffffffffffffffffffffffffffffffffffffff1681565b600260009054906101000a900473ffffffffffffffffffffffffffffffffffffffff1681565b60035481565b80600460006101000a81548173ffffffffffffffffffffffffffffffffffffffff021916908373ffffffffffffffffffffffffffffffffffffffff16021790555050565b600080600090505b600580549050811015610a9257826005828154811061099457fe5b9060005260206000200160009054906101000a900473ffffffffffffffffffffffffffffffffffffffff1673ffffffffffffffffffffffffffffffffffffffff16636bcda13b6040518163ffffffff1660e01b815260040160206040518083038186803b158015610a0457600080fd5b505afa158015610a18573d6000803e3d6000fd5b505050506040513d6020811015610a2e57600080fd5b81019080805190602001909291905050501415610a855760058181548110610a5257fe5b9060005260206000200160009054906101000a900473ffffffffffffffffffffffffffffffffffffffff16915050610a94565b8080600101915050610979565b505b919050565b600080610aa583610971565b90508073ffffffffffffffffffffffffffffffffffffffff1663e6e6b7c1856040518263ffffffff1660e01b8152600401808273ffffffffffffffffffffffffffffffffffffffff1673ffffffffffffffffffffffffffffffffffffffff16815260200191505060206040518083038186803b158015610b2457600080fd5b505afa158015610b38573d6000803e3d6000fd5b505050506040513d6020811015610b4e57600080fd5b810190808051906020019092919050505091505092915050565b80600260006101000a81548173ffffffffffffffffffffffffffffffffffffffff021916908373ffffffffffffffffffffffffffffffffffffffff16021790555050565b600460009054906101000a900473ffffffffffffffffffffffffffffffffffffffff1681565b6000600580549050905090565b8060038190555050565b8060009080519060200190610bff9291906111fe565b5050565b8060019080519060200190610c199291906111fe565b5050565b60068181548110610c2a57fe5b906000526020600020016000915090505481565b60008054600181600116156101000203166002900480601f016020809104026020016040519081016040528092919081815260200182805460018160011615610100020316600290048015610cd45780601f10610ca957610100808354040283529160200191610cd4565b820191906000526020600020905b815481529060010190602001808311610cb757829003601f168201915b505050505081565b6000604051610cea9061127e565b604051809103906000f080158015610d06573d6000803e3d6000fd5b5090508073ffffffffffffffffffffffffffffffffffffffff1663d6edce1c876040518263ffffffff1660e01b81526004018080602001828103825283818151815260200191508051906020019080838360005b83811015610d75578082015181840152602081019050610d5a565b50505050905090810190601f168015610da25780820380516001836020036101000a031916815260200191505b5092505050600060405180830381600087803b158015610dc157600080fd5b505af1158015610dd5573d6000803e3d6000fd5b505050508073ffffffffffffffffffffffffffffffffffffffff1663565eeb5a866040518263ffffffff1660e01b81526004018080602001828103825283818151815260200191508051906020019080838360005b83811015610e45578082015181840152602081019050610e2a565b50505050905090810190601f168015610e725780820380516001836020036101000a031916815260200191505b5092505050600060405180830381600087803b158015610e9157600080fd5b505af1158015610ea5573d6000803e3d6000fd5b505050508073ffffffffffffffffffffffffffffffffffffffff1663cea1e858856040518263ffffffff1660e01b815260040180828152602001915050600060405180830381600087803b158015610efc57600080fd5b505af1158015610f10573d6000803e3d6000fd5b505050508073ffffffffffffffffffffffffffffffffffffffff166399aad941846040518263ffffffff1660e01b8152600401808273ffffffffffffffffffffffffffffffffffffffff1673ffffffffffffffffffffffffffffffffffffffff168152602001915050600060405180830381600087803b158015610f9357600080fd5b505af1158015610fa7573d6000803e3d6000fd5b505050508073ffffffffffffffffffffffffffffffffffffffff1663f98500086040518163ffffffff1660e01b8152600401600060405180830381600087803b158015610ff357600080fd5b505af1158015611007573d6000803e3d6000fd5b505050508073ffffffffffffffffffffffffffffffffffffffff16638a79aa7060006040518263ffffffff1660e01b815260040180806020018281038252838181546001816001161561010002031660029004815260200191508054600181600116156101000203166002900480156110c15780601f10611096576101008083540402835291602001916110c1565b820191906000526020600020905b8154815290600101906020018083116110a457829003601f168201915b505092505050600060405180830381600087803b1580156110e157600080fd5b505af11580156110f5573d6000803e3d6000fd5b505050508073ffffffffffffffffffffffffffffffffffffffff1663e5d235f4836040518263ffffffff1660e01b8152600401808273ffffffffffffffffffffffffffffffffffffffff1673ffffffffffffffffffffffffffffffffffffffff168152602001915050600060405180830381600087803b15801561117857600080fd5b505af115801561118c573d6000803e3d6000fd5b5050505060058190806001815401808255809150509060018203906000526020600020016000909192909190916101000a81548173ffffffffffffffffffffffffffffffffffffffff021916908373ffffffffffffffffffffffffffffffffffffffff16021790555050505050505050565b828054600181600116156101000203166002900490600052602060002090601f016020900481019282601f1061123f57805160ff191683800117855561126d565b8280016001018555821561126d579182015b8281111561126c578251825591602001919060010190611251565b5b50905061127a919061128b565b5090565b610cfa806112b183390190565b6112ad91905b808211156112a9576000816000905550600101611291565b5090565b9056fe608060405234801561001057600080fd5b50610cda806100206000396000f3fe608060405234801561001057600080fd5b50600436106101165760003560e01c8063a982bd50116100a2578063d40afd8b11610071578063d40afd8b146105e2578063d6edce1c1461062c578063e5d235f4146106e7578063e6e6b7c11461072b578063f98500081461078757610116565b8063a982bd501461047f578063b508ba31146104c3578063bf088e5714610546578063cea1e858146105b457610116565b8063557084ce116100e9578063557084ce14610224578063565eeb5a146102a75780636bcda13b146103625780638a79aa701461038057806399aad9411461043b57610116565b8063091841f11461011b5780631f4591dd1461019e5780632b64818f146101e8578063323046b114610206575b600080fd5b610123610791565b6040518080602001828103825283818151815260200191508051906020019080838360005b83811015610163578082015181840152602081019050610148565b50505050905090810190601f1680156101905780820380516001836020036101000a031916815260200191505b509250505060405180910390f35b6101a661082f565b604051808273ffffffffffffffffffffffffffffffffffffffff1673ffffffffffffffffffffffffffffffffffffffff16815260200191505060405180910390f35b6101f0610855565b6040518082815260200191505060405180910390f35b61020e610862565b6040518082815260200191505060405180910390f35b61022c610868565b6040518080602001828103825283818151815260200191508051906020019080838360005b8381101561026c578082015181840152602081019050610251565b50505050905090810190601f1680156102995780820380516001836020036101000a031916815260200191505b509250505060405180910390f35b610360600480360360208110156102bd57600080fd5b81019080803590602001906401000000008111156102da57600080fd5b8201836020820111156102ec57600080fd5b8035906020019184600183028401116401000000008311171561030e57600080fd5b91908080601f016020809104026020016040519081016040528093929190818152602001838380828437600081840152601f19601f820116905080830192505050505050509192919290505050610906565b005b61036a610920565b6040518082815260200191505060405180910390f35b6104396004803603602081101561039657600080fd5b81019080803590602001906401000000008111156103b357600080fd5b8201836020820111156103c557600080fd5b803590602001918460018302840111640100000000831117156103e757600080fd5b91908080601f016020809104026020016040519081016040528093929190818152602001838380828437600081840152601f19601f820116905080830192505050505050509192919290505050610926565b005b61047d6004803603602081101561045157600080fd5b81019080803573ffffffffffffffffffffffffffffffffffffffff169060200190929190505050610940565b005b6104c16004803603602081101561049557600080fd5b81019080803573ffffffffffffffffffffffffffffffffffffffff169060200190929190505050610984565b005b6104cb6109ed565b6040518080602001828103825283818151815260200191508051906020019080838360005b8381101561050b5780820151818401526020810190506104f0565b50505050905090810190601f1680156105385780820380516001836020036101000a031916815260200191505b509250505060405180910390f35b6105726004803603602081101561055c57600080fd5b8101908080359060200190929190505050610a8b565b604051808273ffffffffffffffffffffffffffffffffffffffff1673ffffffffffffffffffffffffffffffffffffffff16815260200191505060405180910390f35b6105e0600480360360208110156105ca57600080fd5b8101908080359060200190929190505050610ac7565b005b6105ea610ad1565b604051808273ffffffffffffffffffffffffffffffffffffffff1673ffffffffffffffffffffffffffffffffffffffff16815260200191505060405180910390f35b6106e56004803603602081101561064257600080fd5b810190808035906020019064010000000081111561065f57600080fd5b82018360208201111561067157600080fd5b8035906020019184600183028401116401000000008311171561069357600080fd5b91908080601f016020809104026020016040519081016040528093929190818152602001838380828437600081840152601f19601f820116905080830192505050505050509192919290505050610af7565b005b610729600480360360208110156106fd57600080fd5b81019080803573ffffffffffffffffffffffffffffffffffffffff169060200190929190505050610b11565b005b61076d6004803603602081101561074157600080fd5b81019080803573ffffffffffffffffffffffffffffffffffffffff169060200190929190505050610b55565b604051808215151515815260200191505060405180910390f35b61078f610bf7565b005b60018054600181600116156101000203166002900480601f0160208091040260200160405190810160405280929190818152602001828054600181600116156101000203166002900480156108275780601f106107fc57610100808354040283529160200191610827565b820191906000526020600020905b81548152906001019060200180831161080a57829003601f168201915b505050505081565b600760009054906101000a900473ffffffffffffffffffffffffffffffffffffffff1681565b6000600280549050905090565b60065481565b60008054600181600116156101000203166002900480601f0160208091040260200160405190810160405280929190818152602001828054600181600116156101000203166002900480156108fe5780601f106108d3576101008083540402835291602001916108fe565b820191906000526020600020905b8154815290600101906020018083116108e157829003601f168201915b505050505081565b806001908051906020019061091c929190610c00565b5050565b60035481565b806005908051906020019061093c929190610c00565b5050565b80600460006101000a81548173ffffffffffffffffffffffffffffffffffffffff021916908373ffffffffffffffffffffffffffffffffffffffff16021790555050565b60028190806001815401808255809150509060018203906000526020600020016000909192909190916101000a81548173ffffffffffffffffffffffffffffffffffffffff021916908373ffffffffffffffffffffffffffffffffffffffff1602179055505050565b60058054600181600116156101000203166002900480601f016020809104026020016040519081016040528092919081815260200182805460018160011615610100020316600290048015610a835780601f10610a5857610100808354040283529160200191610a83565b820191906000526020600020905b815481529060010190602001808311610a6657829003601f168201915b505050505081565b60028181548110610a9857fe5b906000526020600020016000915054906101000a900473ffffffffffffffffffffffffffffffffffffffff1681565b8060038190555050565b600460009054906101000a900473ffffffffffffffffffffffffffffffffffffffff1681565b8060009080519060200190610b0d929190610c00565b5050565b80600760006101000a81548173ffffffffffffffffffffffffffffffffffffffff021916908373ffffffffffffffffffffffffffffffffffffffff16021790555050565b600080600090505b600280549050811015610bec578273ffffffffffffffffffffffffffffffffffffffff1660028281548110610b8e57fe5b9060005260206000200160009054906101000a900473ffffffffffffffffffffffffffffffffffffffff1673ffffffffffffffffffffffffffffffffffffffff161415610bdf576001915050610bf2565b8080600101915050610b5d565b50600090505b919050565b42600681905550565b828054600181600116156101000203166002900490600052602060002090601f016020900481019282601f10610c4157805160ff1916838001178555610c6f565b82800160010185558215610c6f579182015b82811115610c6e578251825591602001919060010190610c53565b5b509050610c7c9190610c80565b5090565b610ca291905b80821115610c9e576000816000905550600101610c86565b5090565b9056fea265627a7a72315820f29f672dfef226ea937a7a7c1a082147ca9d1126f9ced13b786c4fd8a3cc44cb64736f6c63430005100032a265627a7a72315820590d26624f6ddab6f2bd04397b9e1ef49f5406be4a31b9a9e9fd59f5916e79d264736f6c63430005100032a365627a7a7231582093acff7fa9672b4a7424a56d18085a1b1bb3e9ca731e4516f6c2a7f8410f2e1f6c6578706572696d656e74616cf564736f6c63430005100040a365627a7a72315820bace4a10335b753502f4dd321e247d7fa30c4c6b648fcd5e59b8b3adff3acef36c6578706572696d656e74616cf564736f6c6343000510004060806040526040516100109061007e565b604051809103906000f08015801561002c573d6000803e3d6000fd5b506000806101000a81548173ffffffffffffffffffffffffffffffffffffffff021916908373ffffffffffffffffffffffffffffffffffffffff16021790555034801561007857600080fd5b5061008b565b6105dc806108df83390190565b6108458061009a6000396000f3fe608060405234801561001057600080fd5b50600436106100625760003560e01c80634c71de3b1461006757806363b0e66a14610085578063a1263f6d146100a3578063b502a6e0146100c1578063bb23cbe7146100f1578063efeda3d71461010d575b600080fd5b61006f61013d565b60405161007c91906105ae565b60405180910390f35b61008d61014a565b60405161009a9190610556565b60405180910390f35b6100ab61016f565b6040516100b8919061058c565b60405180910390f35b6100db60048036036100d691908101906103ef565b610226565b6040516100e89190610571565b60405180910390f35b61010b60048036036101069190810190610385565b610262565b005b610127600480360361012291908101906103ef565b6102cb565b604051610134919061053b565b60405180910390f35b6000600180549050905090565b6000809054906101000a900473ffffffffffffffffffffffffffffffffffffffff1681565b60606000809054906101000a900473ffffffffffffffffffffffffffffffffffffffff1673ffffffffffffffffffffffffffffffffffffffff1663bd15c14960016040518263ffffffff1660e01b81526004016101cc9190610519565b60006040518083038186803b1580156101e457600080fd5b505afa1580156101f8573d6000803e3d6000fd5b505050506040513d6000823e3d601f19601f8201168201806040525061022191908101906103ae565b905090565b6001818154811061023357fe5b906000526020600020016000915054906101000a900473ffffffffffffffffffffffffffffffffffffffff1681565b60018190806001815401808255809150509060018203906000526020600020016000909192909190916101000a81548173ffffffffffffffffffffffffffffffffffffffff021916908373ffffffffffffffffffffffffffffffffffffffff1602179055505050565b600281815481106102d857fe5b906000526020600020016000915054906101000a900473ffffffffffffffffffffffffffffffffffffffff1681565b600081359050610316816107d4565b92915050565b600082601f83011261032d57600080fd5b815161034061033b826105f6565b6105c9565b9150808252602083016020830185838301111561035c57600080fd5b610367838284610756565b50505092915050565b60008135905061037f816107eb565b92915050565b60006020828403121561039757600080fd5b60006103a584828501610307565b91505092915050565b6000602082840312156103c057600080fd5b600082015167ffffffffffffffff8111156103da57600080fd5b6103e68482850161031c565b91505092915050565b60006020828403121561040157600080fd5b600061040f84828501610370565b91505092915050565b600061042483836104b3565b60208301905092915050565b600061043b82610637565b610445818561065a565b935061045083610622565b8060005b8381101561048857610465826107a3565b61046f8882610418565b975061047a8361064d565b925050600181019050610454565b5085935050505092915050565b61049e816106ea565b82525050565b6104ad8161070e565b82525050565b6104bc81610732565b82525050565b6104cb81610732565b82525050565b60006104dc82610642565b6104e6818561066b565b93506104f6818560208601610756565b6104ff816107b6565b840191505092915050565b610513816106e0565b82525050565b600060208201905081810360008301526105338184610430565b905092915050565b60006020820190506105506000830184610495565b92915050565b600060208201905061056b60008301846104a4565b92915050565b600060208201905061058660008301846104c2565b92915050565b600060208201905081810360008301526105a681846104d1565b905092915050565b60006020820190506105c3600083018461050a565b92915050565b6000604051905081810181811067ffffffffffffffff821117156105ec57600080fd5b8060405250919050565b600067ffffffffffffffff82111561060d57600080fd5b601f19601f8301169050602081019050919050565b60008190508160005260206000209050919050565b600081549050919050565b600081519050919050565b6000600182019050919050565b600082825260208201905092915050565b600082825260208201905092915050565b600073ffffffffffffffffffffffffffffffffffffffff82169050919050565b60006106a7826106c0565b9050919050565b60006106b98261069c565b9050919050565b600073ffffffffffffffffffffffffffffffffffffffff82169050919050565b6000819050919050565b60006106f5826106fc565b9050919050565b6000610707826106c0565b9050919050565b600061071982610720565b9050919050565b600061072b826106c0565b9050919050565b600061073d82610744565b9050919050565b600061074f826106c0565b9050919050565b60005b83811015610774578082015181840152602081019050610759565b83811115610783576000848401525b50505050565b600061079c610797836107c7565b61067c565b9050919050565b60006107af8254610789565b9050919050565b6000601f19601f8301169050919050565b60008160001c9050919050565b6107dd816106ae565b81146107e857600080fd5b50565b6107f4816106e0565b81146107ff57600080fd5b5056fea365627a7a723158204180e11692acf54023eaa67e2fd3ee51aa2dff23a09c589631ec75f8d7e04ce46c6578706572696d656e74616cf564736f6c63430005100040608060405234801561001057600080fd5b506105bc806100206000396000f3fe608060405234801561001057600080fd5b506004361061002b5760003560e01c8063bd15c14914610030575b600080fd5b61004a60048036036100459190810190610349565b610060565b6040516100579190610404565b60405180910390f35b606060008090505b82518110156101e0573373ffffffffffffffffffffffffffffffffffffffff1683828151811061009457fe5b602002602001015173ffffffffffffffffffffffffffffffffffffffff1663c5d163756040518163ffffffff1660e01b815260040160206040518083038186803b1580156100e157600080fd5b505afa1580156100f5573d6000803e3d6000fd5b505050506040513d601f19601f820116820180604052506101199190810190610320565b73ffffffffffffffffffffffffffffffffffffffff1614156101d35782818151811061014157fe5b602002602001015173ffffffffffffffffffffffffffffffffffffffff1663ec5d9e586040518163ffffffff1660e01b815260040160006040518083038186803b15801561018e57600080fd5b505afa1580156101a2573d6000803e3d6000fd5b505050506040513d6000823e3d601f19601f820116820180604052506101cb919081019061038a565b91505061021a565b8080600101915050610068565b506040518060400160405280600281526020017f6e6f00000000000000000000000000000000000000000000000000000000000081525090505b919050565b60008151905061022e8161054b565b92915050565b600082601f83011261024557600080fd5b813561025861025382610453565b610426565b9150818183526020840193506020810190508385602084028201111561027d57600080fd5b60005b838110156102ad578161029388826102b7565b845260208401935060208301925050600181019050610280565b5050505092915050565b6000813590506102c681610562565b92915050565b600082601f8301126102dd57600080fd5b81516102f06102eb8261047b565b610426565b9150808252602083016020830185838301111561030c57600080fd5b610317838284610507565b50505092915050565b60006020828403121561033257600080fd5b60006103408482850161021f565b91505092915050565b60006020828403121561035b57600080fd5b600082013567ffffffffffffffff81111561037557600080fd5b61038184828501610234565b91505092915050565b60006020828403121561039c57600080fd5b600082015167ffffffffffffffff8111156103b657600080fd5b6103c2848285016102cc565b91505092915050565b60006103d6826104a7565b6103e081856104b2565b93506103f0818560208601610507565b6103f98161053a565b840191505092915050565b6000602082019050818103600083015261041e81846103cb565b905092915050565b6000604051905081810181811067ffffffffffffffff8211171561044957600080fd5b8060405250919050565b600067ffffffffffffffff82111561046a57600080fd5b602082029050602081019050919050565b600067ffffffffffffffff82111561049257600080fd5b601f19601f8301169050602081019050919050565b600081519050919050565b600082825260208201905092915050565b60006104ce826104e7565b9050919050565b60006104e0826104c3565b9050919050565b600073ffffffffffffffffffffffffffffffffffffffff82169050919050565b60005b8381101561052557808201518184015260208101905061050a565b83811115610534576000848401525b50505050565b6000601f19601f8301169050919050565b610554816104c3565b811461055f57600080fd5b50565b61056b816104d5565b811461057657600080fd5b5056fea365627a7a72315820d6d162c5677ddbd14ddab5e27686e161bef19b49e096cea0426db15ee6428a756c6578706572696d656e74616cf564736f6c63430005100040608060405234801561001057600080fd5b506105bc806100206000396000f3fe608060405234801561001057600080fd5b506004361061002b5760003560e01c8063bd15c14914610030575b600080fd5b61004a60048036036100459190810190610349565b610060565b6040516100579190610404565b60405180910390f35b606060008090505b82518110156101e0573373ffffffffffffffffffffffffffffffffffffffff1683828151811061009457fe5b602002602001015173ffffffffffffffffffffffffffffffffffffffff1663c5d163756040518163ffffffff1660e01b815260040160206040518083038186803b1580156100e157600080fd5b505afa1580156100f5573d6000803e3d6000fd5b505050506040513d601f19601f820116820180604052506101199190810190610320565b73ffffffffffffffffffffffffffffffffffffffff1614156101d35782818151811061014157fe5b602002602001015173ffffffffffffffffffffffffffffffffffffffff1663ec5d9e586040518163ffffffff1660e01b815260040160006040518083038186803b15801561018e57600080fd5b505afa1580156101a2573d6000803e3d6000fd5b505050506040513d6000823e3d601f19601f820116820180604052506101cb919081019061038a565b91505061021a565b8080600101915050610068565b506040518060400160405280600281526020017f6e6f00000000000000000000000000000000000000000000000000000000000081525090505b919050565b60008151905061022e8161054b565b92915050565b600082601f83011261024557600080fd5b813561025861025382610453565b610426565b9150818183526020840193506020810190508385602084028201111561027d57600080fd5b60005b838110156102ad578161029388826102b7565b845260208401935060208301925050600181019050610280565b5050505092915050565b6000813590506102c681610562565b92915050565b600082601f8301126102dd57600080fd5b81516102f06102eb8261047b565b610426565b9150808252602083016020830185838301111561030c57600080fd5b610317838284610507565b50505092915050565b60006020828403121561033257600080fd5b60006103408482850161021f565b91505092915050565b60006020828403121561035b57600080fd5b600082013567ffffffffffffffff81111561037557600080fd5b61038184828501610234565b91505092915050565b60006020828403121561039c57600080fd5b600082015167ffffffffffffffff8111156103b657600080fd5b6103c2848285016102cc565b91505092915050565b60006103d6826104a7565b6103e081856104b2565b93506103f0818560208601610507565b6103f98161053a565b840191505092915050565b6000602082019050818103600083015261041e81846103cb565b905092915050565b6000604051905081810181811067ffffffffffffffff8211171561044957600080fd5b8060405250919050565b600067ffffffffffffffff82111561046a57600080fd5b602082029050602081019050919050565b600067ffffffffffffffff82111561049257600080fd5b601f19601f8301169050602081019050919050565b600081519050919050565b600082825260208201905092915050565b60006104ce826104e7565b9050919050565b60006104e0826104c3565b9050919050565b600073ffffffffffffffffffffffffffffffffffffffff82169050919050565b60005b8381101561052557808201518184015260208101905061050a565b83811115610534576000848401525b50505050565b6000601f19601f8301169050919050565b610554816104c3565b811461055f57600080fd5b50565b61056b816104d5565b811461057657600080fd5b5056fea365627a7a72315820d6d162c5677ddbd14ddab5e27686e161bef19b49e096cea0426db15ee6428a756c6578706572696d656e74616cf564736f6c63430005100040",
  "source": "// SPDX-License-Identifier: MIT\r\npragma solidity >=0.4.21 <0.7.0;\r\npragma experimental ABIEncoderV2;\r\nimport \"./Organisation.sol\";\r\nimport \"./Student.sol\";\r\nimport \"./Company.sol\";\r\nimport \"./OverAll.sol\";\r\nimport \"./Helper.sol\";\r\n\r\ncontract Final {\r\n    OverAll public overAll = new OverAll();\r\n    Helper public helper = new Helper();\r\n\r\n    function addOrganisation(string memory _organisationName) public {\r\n        Organisation org = new Organisation();\r\n        org.addOrganisation(_organisationName, msg.sender);\r\n        overAll.addOrganisation(org);\r\n    }\r\n\r\n   \r\n}\r\n",
  "sourcePath": "D:/user_cherry/User/Projects/miniprojectF/contracts/Final.sol",
  "compiler": {
    "name": "solc",
    "version": "0.5.16+commit.9c3226ce.Emscripten.clang"
  },
  "schemaVersion": "3.2.3",
  "updatedAt": "2022-05-30T14:03:58.632Z",
  "devdoc": {
    "methods": {}
  },
  "userdoc": {
    "methods": {}
  }
}