{
  "contractName": "HelperOrg",
  "abi": [
    {
      "constant": true,
      "inputs": [
        {
          "internalType": "contract Organisation[]",
          "name": "organisations",
          "type": "address[]"
        }
      ],
      "name": "checkOrganisation",
      "outputs": [
        {
          "internalType": "string",
          "name": "",
          "type": "string"
        }
      ],
      "payable": false,
      "stateMutability": "view",
      "type": "function"
    },
    {
      "constant": true,
      "inputs": [
        {
          "internalType": "contract Organisation[]",
          "name": "Orgaganisations",
          "type": "address[]"
        },
        {
          "internalType": "address",
          "name": "_orgAddress",
          "type": "address"
        }
      ],
      "name": "getOrganisation",
      "outputs": [
        {
          "internalType": "contract Organisation",
          "name": "",
          "type": "address"
        }
      ],
      "payable": false,
      "stateMutability": "view",
      "type": "function"
    },
    {
      "constant": true,
      "inputs": [
        {
          "internalType": "contract Organisation",
          "name": "org",
          "type": "address"
        }
      ],
      "name": "totalCertificates",
      "outputs": [
        {
          "internalType": "uint256",
          "name": "",
          "type": "uint256"
        }
      ],
      "payable": false,
      "stateMutability": "view",
      "type": "function"
    },
    {
      "constant": true,
      "inputs": [
        {
          "internalType": "contract Organisation[]",
          "name": "Orgaganisations",
          "type": "address[]"
        },
        {
          "internalType": "address",
          "name": "add",
          "type": "address"
        }
      ],
      "name": "getOrganisationDetails",
      "outputs": [
        {
          "internalType": "string",
          "name": "",
          "type": "string"
        },
        {
          "internalType": "address",
          "name": "",
          "type": "address"
        },
        {
          "internalType": "uint256",
          "name": "",
          "type": "uint256"
        },
        {
          "internalType": "uint256",
          "name": "",
          "type": "uint256"
        },
        {
          "internalType": "uint256",
          "name": "",
          "type": "uint256"
        }
      ],
      "payable": false,
      "stateMutability": "view",
      "type": "function"
    }
  ],
  "bytecode": "0x608060405234801561001057600080fd5b50610d1d806100206000396000f3fe608060405234801561001057600080fd5b506004361061004c5760003560e01c806306ae6148146100515780631a11a723146100815780636458f542146100b1578063bd15c149146100e5575b600080fd5b61006b600480360361006691908101906108f1565b610115565b6040516100789190610a67565b60405180910390f35b61009b60048036036100969190810190610945565b61021b565b6040516100a89190610afe565b60405180910390f35b6100cb60048036036100c691908101906108f1565b6103ce565b6040516100dc959493929190610aa4565b60405180910390f35b6100ff60048036036100fa91908101906108b0565b610588565b60405161010c9190610a82565b60405180910390f35b600080600090505b8351811015610213573373ffffffffffffffffffffffffffffffffffffffff1684828151811061014957fe5b602002602001015173ffffffffffffffffffffffffffffffffffffffff1663c5d163756040518163ffffffff1660e01b815260040160206040518083038186803b15801561019657600080fd5b505afa1580156101aa573d6000803e3d6000fd5b505050506040513d601f19601f820116820180604052506101ce9190810190610887565b73ffffffffffffffffffffffffffffffffffffffff161415610206578381815181106101f657fe5b6020026020010151915050610215565b808060010191505061011d565b505b92915050565b6000806000905060008090505b8373ffffffffffffffffffffffffffffffffffffffff166330dc15536040518163ffffffff1660e01b815260040160206040518083038186803b15801561026e57600080fd5b505afa158015610282573d6000803e3d6000fd5b505050506040513d601f19601f820116820180604052506102a691908101906109d8565b8110156103c4578373ffffffffffffffffffffffffffffffffffffffff166306ead22e826040518263ffffffff1660e01b81526004016102e69190610afe565b60206040518083038186803b1580156102fe57600080fd5b505afa158015610312573d6000803e3d6000fd5b505050506040513d601f19601f82011682018060405250610336919081019061096e565b73ffffffffffffffffffffffffffffffffffffffff16636af6d78c6040518163ffffffff1660e01b815260040160206040518083038186803b15801561037b57600080fd5b505afa15801561038f573d6000803e3d6000fd5b505050506040513d601f19601f820116820180604052506103b391908101906109d8565b820191508080600101915050610228565b5080915050919050565b606060008060008060006103e28888610115565b90508073ffffffffffffffffffffffffffffffffffffffff1663ec5d9e586040518163ffffffff1660e01b815260040160006040518083038186803b15801561042a57600080fd5b505afa15801561043e573d6000803e3d6000fd5b505050506040513d6000823e3d601f19601f820116820180604052506104679190810190610997565b338273ffffffffffffffffffffffffffffffffffffffff166351c165d56040518163ffffffff1660e01b815260040160206040518083038186803b1580156104ae57600080fd5b505afa1580156104c2573d6000803e3d6000fd5b505050506040513d601f19601f820116820180604052506104e691908101906109d8565b8373ffffffffffffffffffffffffffffffffffffffff166330dc15536040518163ffffffff1660e01b815260040160206040518083038186803b15801561052c57600080fd5b505afa158015610540573d6000803e3d6000fd5b505050506040513d601f19601f8201168201806040525061056491908101906109d8565b61056d8561021b565b84945083935095509550955095509550509295509295909350565b606060008090505b8251811015610708573373ffffffffffffffffffffffffffffffffffffffff168382815181106105bc57fe5b602002602001015173ffffffffffffffffffffffffffffffffffffffff1663c5d163756040518163ffffffff1660e01b815260040160206040518083038186803b15801561060957600080fd5b505afa15801561061d573d6000803e3d6000fd5b505050506040513d601f19601f820116820180604052506106419190810190610887565b73ffffffffffffffffffffffffffffffffffffffff1614156106fb5782818151811061066957fe5b602002602001015173ffffffffffffffffffffffffffffffffffffffff1663ec5d9e586040518163ffffffff1660e01b815260040160006040518083038186803b1580156106b657600080fd5b505afa1580156106ca573d6000803e3d6000fd5b505050506040513d6000823e3d601f19601f820116820180604052506106f39190810190610997565b915050610742565b8080600101915050610590565b506040518060400160405280600281526020017f6e6f00000000000000000000000000000000000000000000000000000000000081525090505b919050565b60008135905061075681610c7e565b92915050565b60008151905061076b81610c7e565b92915050565b600082601f83011261078257600080fd5b813561079561079082610b46565b610b19565b915081818352602084019350602081019050838560208402820111156107ba57600080fd5b60005b838110156107ea57816107d088826107f4565b8452602084019350602083019250506001810190506107bd565b5050505092915050565b60008135905061080381610c95565b92915050565b60008151905061081881610cac565b92915050565b600082601f83011261082f57600080fd5b815161084261083d82610b6e565b610b19565b9150808252602083016020830185838301111561085e57600080fd5b610869838284610c3a565b50505092915050565b60008151905061088181610cc3565b92915050565b60006020828403121561089957600080fd5b60006108a78482850161075c565b91505092915050565b6000602082840312156108c257600080fd5b600082013567ffffffffffffffff8111156108dc57600080fd5b6108e884828501610771565b91505092915050565b6000806040838503121561090457600080fd5b600083013567ffffffffffffffff81111561091e57600080fd5b61092a85828601610771565b925050602061093b85828601610747565b9150509250929050565b60006020828403121561095757600080fd5b6000610965848285016107f4565b91505092915050565b60006020828403121561098057600080fd5b600061098e84828501610809565b91505092915050565b6000602082840312156109a957600080fd5b600082015167ffffffffffffffff8111156109c357600080fd5b6109cf8482850161081e565b91505092915050565b6000602082840312156109ea57600080fd5b60006109f884828501610872565b91505092915050565b610a0a81610bb6565b82525050565b610a1981610c16565b82525050565b6000610a2a82610b9a565b610a348185610ba5565b9350610a44818560208601610c3a565b610a4d81610c6d565b840191505092915050565b610a6181610c0c565b82525050565b6000602082019050610a7c6000830184610a10565b92915050565b60006020820190508181036000830152610a9c8184610a1f565b905092915050565b600060a0820190508181036000830152610abe8188610a1f565b9050610acd6020830187610a01565b610ada6040830186610a58565b610ae76060830185610a58565b610af46080830184610a58565b9695505050505050565b6000602082019050610b136000830184610a58565b92915050565b6000604051905081810181811067ffffffffffffffff82111715610b3c57600080fd5b8060405250919050565b600067ffffffffffffffff821115610b5d57600080fd5b602082029050602081019050919050565b600067ffffffffffffffff821115610b8557600080fd5b601f19601f8301169050602081019050919050565b600081519050919050565b600082825260208201905092915050565b6000610bc182610bec565b9050919050565b6000610bd382610bb6565b9050919050565b6000610be582610bb6565b9050919050565b600073ffffffffffffffffffffffffffffffffffffffff82169050919050565b6000819050919050565b6000610c2182610c28565b9050919050565b6000610c3382610bec565b9050919050565b60005b83811015610c58578082015181840152602081019050610c3d565b83811115610c67576000848401525b50505050565b6000601f19601f8301169050919050565b610c8781610bb6565b8114610c9257600080fd5b50565b610c9e81610bc8565b8114610ca957600080fd5b50565b610cb581610bda565b8114610cc057600080fd5b50565b610ccc81610c0c565b8114610cd757600080fd5b5056fea365627a7a7231582097723788e280457f082563837f1491b552d9a2a4b2c5505954ecb156581d77a56c6578706572696d656e74616cf564736f6c63430005100040",
  "source": "// SPDX-License-Identifier: MIT\r\npragma solidity >=0.4.21 <0.7.0;\r\npragma experimental ABIEncoderV2;\r\nimport \"./Organisation.sol\";\r\nimport \"./Student.sol\";\r\nimport \"./Company.sol\";\r\nimport \"./OverAll.sol\";\r\n\r\ncontract HelperOrg {\r\n    struct organisation {\r\n        string name;\r\n        address addr;\r\n        // uint256 noOfStudents;\r\n    }\r\n\r\n    function checkOrganisation(Organisation[] memory organisations)\r\n        public\r\n        view\r\n        returns (string memory)\r\n    {\r\n        for (uint256 i = 0; i < organisations.length; i++) {\r\n            if (organisations[i].organisationAddress() == msg.sender) {\r\n                return organisations[i].organisationName();\r\n            }\r\n        }\r\n        return \"no\";\r\n    }\r\n\r\n    function getOrganisation(\r\n        Organisation[] memory Orgaganisations,\r\n        address _orgAddress\r\n    ) public view returns (Organisation) {\r\n        for (uint256 i = 0; i < Orgaganisations.length; i++) {\r\n            if (Orgaganisations[i].organisationAddress() == msg.sender) {\r\n                return Orgaganisations[i];\r\n            }\r\n        }\r\n    }\r\n\r\n    function totalCertificates(Organisation org) public view returns (uint256) {\r\n        uint256 total = 0;\r\n        for (uint256 i = 0; i < org.noOfStudents(); i++) {\r\n            total += org.students(i).noOfCertificates();\r\n        }\r\n        return total;\r\n    }\r\n\r\n    function getOrganisationDetails(\r\n        Organisation[] memory Orgaganisations,\r\n        address add\r\n    )\r\n        public\r\n        view\r\n        returns (\r\n            string memory,\r\n            address,\r\n            uint256,\r\n            uint256,\r\n            uint256\r\n        )\r\n    {\r\n        Organisation org = getOrganisation(Orgaganisations, add);\r\n\r\n        return (\r\n            org.organisationName(),\r\n            msg.sender,\r\n            org.noOfUniqueIds(),\r\n            org.noOfStudents(),\r\n            totalCertificates(org)\r\n        );\r\n    }\r\n}\r\n",
  "sourcePath": "D:\\user_cherry\\User\\Projects\\miniprojectF\\contracts\\HelperOrg.sol",
  "compiler": {
    "name": "solc",
    "version": "0.5.16+commit.9c3226ce.Emscripten.clang"
  },
  "schemaVersion": "3.2.3",
  "updatedAt": "2022-05-30T16:35:39.247Z",
  "networkType": "ethereum",
  "devdoc": {
    "methods": {}
  },
  "userdoc": {
    "methods": {}
  }
}