{
  "contractName": "Helper",
  "abi": [
    {
      "constant": true,
      "inputs": [
        {
          "internalType": "contract Organisation[]",
          "name": "organisations",
          "type": "address[]"
        }
      ],
      "name": "checkOrganisation",
      "outputs": [
        {
          "internalType": "string",
          "name": "",
          "type": "string"
        }
      ],
      "payable": false,
      "stateMutability": "view",
      "type": "function"
    }
  ],
  "bytecode": "0x608060405234801561001057600080fd5b506105bc806100206000396000f3fe608060405234801561001057600080fd5b506004361061002b5760003560e01c8063bd15c14914610030575b600080fd5b61004a60048036036100459190810190610349565b610060565b6040516100579190610404565b60405180910390f35b606060008090505b82518110156101e0573373ffffffffffffffffffffffffffffffffffffffff1683828151811061009457fe5b602002602001015173ffffffffffffffffffffffffffffffffffffffff1663c5d163756040518163ffffffff1660e01b815260040160206040518083038186803b1580156100e157600080fd5b505afa1580156100f5573d6000803e3d6000fd5b505050506040513d601f19601f820116820180604052506101199190810190610320565b73ffffffffffffffffffffffffffffffffffffffff1614156101d35782818151811061014157fe5b602002602001015173ffffffffffffffffffffffffffffffffffffffff1663ec5d9e586040518163ffffffff1660e01b815260040160006040518083038186803b15801561018e57600080fd5b505afa1580156101a2573d6000803e3d6000fd5b505050506040513d6000823e3d601f19601f820116820180604052506101cb919081019061038a565b91505061021a565b8080600101915050610068565b506040518060400160405280600281526020017f6e6f00000000000000000000000000000000000000000000000000000000000081525090505b919050565b60008151905061022e8161054b565b92915050565b600082601f83011261024557600080fd5b813561025861025382610453565b610426565b9150818183526020840193506020810190508385602084028201111561027d57600080fd5b60005b838110156102ad578161029388826102b7565b845260208401935060208301925050600181019050610280565b5050505092915050565b6000813590506102c681610562565b92915050565b600082601f8301126102dd57600080fd5b81516102f06102eb8261047b565b610426565b9150808252602083016020830185838301111561030c57600080fd5b610317838284610507565b50505092915050565b60006020828403121561033257600080fd5b60006103408482850161021f565b91505092915050565b60006020828403121561035b57600080fd5b600082013567ffffffffffffffff81111561037557600080fd5b61038184828501610234565b91505092915050565b60006020828403121561039c57600080fd5b600082015167ffffffffffffffff8111156103b657600080fd5b6103c2848285016102cc565b91505092915050565b60006103d6826104a7565b6103e081856104b2565b93506103f0818560208601610507565b6103f98161053a565b840191505092915050565b6000602082019050818103600083015261041e81846103cb565b905092915050565b6000604051905081810181811067ffffffffffffffff8211171561044957600080fd5b8060405250919050565b600067ffffffffffffffff82111561046a57600080fd5b602082029050602081019050919050565b600067ffffffffffffffff82111561049257600080fd5b601f19601f8301169050602081019050919050565b600081519050919050565b600082825260208201905092915050565b60006104ce826104e7565b9050919050565b60006104e0826104c3565b9050919050565b600073ffffffffffffffffffffffffffffffffffffffff82169050919050565b60005b8381101561052557808201518184015260208101905061050a565b83811115610534576000848401525b50505050565b6000601f19601f8301169050919050565b610554816104c3565b811461055f57600080fd5b50565b61056b816104d5565b811461057657600080fd5b5056fea365627a7a72315820d6d162c5677ddbd14ddab5e27686e161bef19b49e096cea0426db15ee6428a756c6578706572696d656e74616cf564736f6c63430005100040",
  "source": "// SPDX-License-Identifier: MIT\r\npragma solidity >=0.4.21 <0.7.0;\r\npragma experimental ABIEncoderV2;\r\nimport \"./Organisation.sol\";\r\nimport \"./Student.sol\";\r\nimport \"./Company.sol\";\r\nimport './OverAll.sol';\r\n\r\n\r\ncontract Helper{\r\n\r\n   \r\n\r\n     function checkOrganisation(Organisation[] memory organisations) public view returns (string memory) {\r\n        for (uint256 i = 0; i < organisations.length; i++) {\r\n            if (organisations[i].organisationAddress() == msg.sender) {\r\n                return organisations[i].organisationName();\r\n            }\r\n        }\r\n        return \"no\";\r\n    }\r\n\r\n\r\n   \r\n    \r\n\r\n}\r\n",
  "sourcePath": "D:\\user_cherry\\User\\Projects\\miniprojectF\\contracts\\Helper.sol",
  "compiler": {
    "name": "solc",
    "version": "0.5.16+commit.9c3226ce.Emscripten.clang"
  },
  "schemaVersion": "3.2.3",
  "updatedAt": "2022-05-30T14:03:58.847Z",
  "devdoc": {
    "methods": {}
  },
  "userdoc": {
    "methods": {}
  }
}