{
  "contractName": "Organisation",
  "abi": [
    {
      "constant": true,
      "inputs": [
        {
          "internalType": "uint256",
          "name": "",
          "type": "uint256"
        }
      ],
      "name": "arr",
      "outputs": [
        {
          "internalType": "uint256",
          "name": "",
          "type": "uint256"
        }
      ],
      "payable": false,
      "stateMutability": "view",
      "type": "function"
    },
    {
      "constant": true,
      "inputs": [],
      "name": "organisationAddress",
      "outputs": [
        {
          "internalType": "address",
          "name": "",
          "type": "address"
        }
      ],
      "payable": false,
      "stateMutability": "view",
      "type": "function"
    },
    {
      "constant": true,
      "inputs": [],
      "name": "organisationName",
      "outputs": [
        {
          "internalType": "string",
          "name": "",
          "type": "string"
        }
      ],
      "payable": false,
      "stateMutability": "view",
      "type": "function"
    },
    {
      "constant": true,
      "inputs": [
        {
          "internalType": "uint256",
          "name": "",
          "type": "uint256"
        }
      ],
      "name": "studentIDs",
      "outputs": [
        {
          "internalType": "uint256",
          "name": "",
          "type": "uint256"
        }
      ],
      "payable": false,
      "stateMutability": "view",
      "type": "function"
    },
    {
      "constant": true,
      "inputs": [
        {
          "internalType": "uint256",
          "name": "",
          "type": "uint256"
        }
      ],
      "name": "students",
      "outputs": [
        {
          "internalType": "contract Student",
          "name": "",
          "type": "address"
        }
      ],
      "payable": false,
      "stateMutability": "view",
      "type": "function"
    },
    {
      "constant": true,
      "inputs": [
        {
          "internalType": "uint256",
          "name": "",
          "type": "uint256"
        }
      ],
      "name": "suidToAddress",
      "outputs": [
        {
          "internalType": "address",
          "name": "",
          "type": "address"
        }
      ],
      "payable": false,
      "stateMutability": "view",
      "type": "function"
    },
    {
      "constant": false,
      "inputs": [
        {
          "internalType": "string",
          "name": "_name",
          "type": "string"
        },
        {
          "internalType": "uint256",
          "name": "_uid",
          "type": "uint256"
        },
        {
          "internalType": "address",
          "name": "_addr",
          "type": "address"
        },
        {
          "internalType": "address",
          "name": "_orgAddress",
          "type": "address"
        }
      ],
      "name": "addStudent",
      "outputs": [],
      "payable": false,
      "stateMutability": "nonpayable",
      "type": "function"
    },
    {
      "constant": true,
      "inputs": [],
      "name": "noOfStudents",
      "outputs": [
        {
          "internalType": "uint256",
          "name": "",
          "type": "uint256"
        }
      ],
      "payable": false,
      "stateMutability": "view",
      "type": "function"
    },
    {
      "constant": true,
      "inputs": [],
      "name": "noOfUniqueIds",
      "outputs": [
        {
          "internalType": "uint256",
          "name": "",
          "type": "uint256"
        }
      ],
      "payable": false,
      "stateMutability": "view",
      "type": "function"
    },
    {
      "constant": false,
      "inputs": [
        {
          "internalType": "string",
          "name": "_organisationName",
          "type": "string"
        },
        {
          "internalType": "address",
          "name": "_organisationAddress",
          "type": "address"
        }
      ],
      "name": "addOrganisation",
      "outputs": [],
      "payable": false,
      "stateMutability": "nonpayable",
      "type": "function"
    },
    {
      "constant": false,
      "inputs": [
        {
          "internalType": "uint256",
          "name": "_id",
          "type": "uint256"
        }
      ],
      "name": "findId",
      "outputs": [
        {
          "internalType": "uint256",
          "name": "",
          "type": "uint256"
        }
      ],
      "payable": false,
      "stateMutability": "nonpayable",
      "type": "function"
    },
    {
      "constant": false,
      "inputs": [
        {
          "internalType": "uint256",
          "name": "_studentID",
          "type": "uint256"
        }
      ],
      "name": "addStudentId",
      "outputs": [],
      "payable": false,
      "stateMutability": "nonpayable",
      "type": "function"
    },
    {
      "constant": true,
      "inputs": [
        {
          "internalType": "uint256",
          "name": "_studentID",
          "type": "uint256"
        }
      ],
      "name": "checkStudentId",
      "outputs": [
        {
          "internalType": "bool",
          "name": "",
          "type": "bool"
        }
      ],
      "payable": false,
      "stateMutability": "view",
      "type": "function"
    }
  ],
  "bytecode": "0x60806040526040518060800160405280600160ff168152602001600260ff168152602001600360ff168152602001600460ff168152506004906004610045929190610058565b5034801561005257600080fd5b506100cf565b828054828255906000526020600020908101928215610099579160200282015b82811115610098578251829060ff16905591602001919060010190610078565b5b5090506100a691906100aa565b5090565b6100cc91905b808211156100c85760008160009055506001016100b0565b5090565b90565b612ef4806100de6000396000f3fe608060405234801561001057600080fd5b50600436106100cf5760003560e01c806351d332311161008c578063c5d1637511610066578063c5d1637514610238578063ec5d9e5814610256578063faead81214610274578063fe794b00146102a4576100cf565b806351d33231146101bc57806371e5ee5f146101ec5780638c74a77b1461021c576100cf565b806306ead22e146100d4578063137c3f7d146101045780632bff309a146101205780632ce349be1461015057806330dc15531461018057806351c165d51461019e575b600080fd5b6100ee60048036036100e99190810190610a98565b6102c0565b6040516100fb9190610c74565b60405180910390f35b61011e60048036036101199190810190610a1d565b6102fc565b005b61013a60048036036101359190810190610a98565b6105ae565b6040516101479190610d15565b60405180910390f35b61016a60048036036101659190810190610a98565b61061a565b6040516101779190610d15565b60405180910390f35b61018861063b565b6040516101959190610d15565b60405180910390f35b6101a6610648565b6040516101b39190610d15565b60405180910390f35b6101d660048036036101d19190810190610a98565b610655565b6040516101e39190610c59565b60405180910390f35b61020660048036036102019190810190610a98565b6106ab565b6040516102139190610d15565b60405180910390f35b61023660048036036102319190810190610a98565b6106cc565b005b610240610746565b60405161024d9190610c3e565b60405180910390f35b61025e61076c565b60405161026b9190610c8f565b60405180910390f35b61028e60048036036102899190810190610a98565b61080a565b60405161029b9190610c3e565b60405180910390f35b6102be60048036036102b991908101906109c9565b61083d565b005b600581815481106102cd57fe5b906000526020600020016000915054906101000a900473ffffffffffffffffffffffffffffffffffffffff1681565b600060405161030a90610899565b604051809103906000f080158015610326573d6000803e3d6000fd5b5090508073ffffffffffffffffffffffffffffffffffffffff16638a79aa70866040518263ffffffff1660e01b81526004016103629190610cb1565b600060405180830381600087803b15801561037c57600080fd5b505af1158015610390573d6000803e3d6000fd5b505050508073ffffffffffffffffffffffffffffffffffffffff16635d37eeb7846040518263ffffffff1660e01b81526004016103cd9190610c3e565b600060405180830381600087803b1580156103e757600080fd5b505af11580156103fb573d6000803e3d6000fd5b505050508073ffffffffffffffffffffffffffffffffffffffff1663893ec75b856040518263ffffffff1660e01b81526004016104389190610d15565b600060405180830381600087803b15801561045257600080fd5b505af1158015610466573d6000803e3d6000fd5b505050508073ffffffffffffffffffffffffffffffffffffffff166396c58de060006040518263ffffffff1660e01b81526004016104a49190610cd3565b600060405180830381600087803b1580156104be57600080fd5b505af11580156104d2573d6000803e3d6000fd5b505050508073ffffffffffffffffffffffffffffffffffffffff1663506283cd836040518263ffffffff1660e01b815260040161050f9190610c3e565b600060405180830381600087803b15801561052957600080fd5b505af115801561053d573d6000803e3d6000fd5b5050505060058190806001815401808255809150509060018203906000526020600020016000909192909190916101000a81548173ffffffffffffffffffffffffffffffffffffffff021916908373ffffffffffffffffffffffffffffffffffffffff160217905550505050505050565b600080600090505b60028054905081101561060f5782600282815481106105d157fe5b9060005260206000200154141561060257600281815481106105ef57fe5b9060005260206000200154915050610615565b80806001019150506105b6565b50600090505b919050565b6002818154811061062757fe5b906000526020600020016000915090505481565b6000600580549050905090565b6000600280549050905090565b600080600090505b6002805490508110156106a057826002828154811061067857fe5b906000526020600020015414156106935760019150506106a6565b808060010191505061065d565b50600090505b919050565b600481815481106106b857fe5b906000526020600020016000915090505481565b6106d5816105ae565b811415610717576040517f08c379a000000000000000000000000000000000000000000000000000000000815260040161070e90610cf5565b60405180910390fd5b600281908060018154018082558091505090600182039060005260206000200160009091929091909150555050565b600160009054906101000a900473ffffffffffffffffffffffffffffffffffffffff1681565b60008054600181600116156101000203166002900480601f0160208091040260200160405190810160405280929190818152602001828054600181600116156101000203166002900480156108025780601f106107d757610100808354040283529160200191610802565b820191906000526020600020905b8154815290600101906020018083116107e557829003601f168201915b505050505081565b60036020528060005260406000206000915054906101000a900473ffffffffffffffffffffffffffffffffffffffff1681565b81600090805190602001906108539291906108a6565b5080600160006101000a81548173ffffffffffffffffffffffffffffffffffffffff021916908373ffffffffffffffffffffffffffffffffffffffff1602179055505050565b611fff80610eb383390190565b828054600181600116156101000203166002900490600052602060002090601f016020900481019282601f106108e757805160ff1916838001178555610915565b82800160010185558215610915579182015b828111156109145782518255916020019190600101906108f9565b5b5090506109229190610926565b5090565b61094891905b8082111561094457600081600090555060010161092c565b5090565b90565b60008135905061095a81610e84565b92915050565b600082601f83011261097157600080fd5b813561098461097f82610d5d565b610d30565b915080825260208301602083018583830111156109a057600080fd5b6109ab838284610e31565b50505092915050565b6000813590506109c381610e9b565b92915050565b600080604083850312156109dc57600080fd5b600083013567ffffffffffffffff8111156109f657600080fd5b610a0285828601610960565b9250506020610a138582860161094b565b9150509250929050565b60008060008060808587031215610a3357600080fd5b600085013567ffffffffffffffff811115610a4d57600080fd5b610a5987828801610960565b9450506020610a6a878288016109b4565b9350506040610a7b8782880161094b565b9250506060610a8c8782880161094b565b91505092959194509250565b600060208284031215610aaa57600080fd5b6000610ab8848285016109b4565b91505092915050565b610aca81610dc5565b82525050565b610ad981610dd7565b82525050565b610ae881610e0d565b82525050565b6000610af982610da9565b610b038185610db4565b9350610b13818560208601610e40565b610b1c81610e73565b840191505092915050565b6000610b3282610d9e565b610b3c8185610db4565b9350610b4c818560208601610e40565b610b5581610e73565b840191505092915050565b600081546001811660008114610b7d5760018114610ba357610be7565b607f6002830416610b8e8187610db4565b955060ff198316865260208601935050610be7565b60028204610bb18187610db4565b9550610bbc85610d89565b60005b82811015610bde57815481890152600182019150602081019050610bbf565b80880195505050505b505092915050565b6000610bfc601183610db4565b91507f494420616c7265616479206578697374730000000000000000000000000000006000830152602082019050919050565b610c3881610e03565b82525050565b6000602082019050610c536000830184610ac1565b92915050565b6000602082019050610c6e6000830184610ad0565b92915050565b6000602082019050610c896000830184610adf565b92915050565b60006020820190508181036000830152610ca98184610b27565b905092915050565b60006020820190508181036000830152610ccb8184610aee565b905092915050565b60006020820190508181036000830152610ced8184610b60565b905092915050565b60006020820190508181036000830152610d0e81610bef565b9050919050565b6000602082019050610d2a6000830184610c2f565b92915050565b6000604051905081810181811067ffffffffffffffff82111715610d5357600080fd5b8060405250919050565b600067ffffffffffffffff821115610d7457600080fd5b601f19601f8301169050602081019050919050565b60008190508160005260206000209050919050565b600081519050919050565b600081519050919050565b600082825260208201905092915050565b6000610dd082610de3565b9050919050565b60008115159050919050565b600073ffffffffffffffffffffffffffffffffffffffff82169050919050565b6000819050919050565b6000610e1882610e1f565b9050919050565b6000610e2a82610de3565b9050919050565b82818337600083830152505050565b60005b83811015610e5e578082015181840152602081019050610e43565b83811115610e6d576000848401525b50505050565b6000601f19601f8301169050919050565b610e8d81610dc5565b8114610e9857600080fd5b50565b610ea481610e03565b8114610eaf57600080fd5b5056fe608060405234801561001057600080fd5b50611fdf806100206000396000f3fe608060405234801561001057600080fd5b50600436106101005760003560e01c806368a969971161009757806396c58de01161006657806396c58de01461050b578063af991a05146105c6578063ec3615cd14610608578063f7692bea1461068b57610100565b806368a96997146103ba5780636af6d78c14610404578063893ec75b146104225780638a79aa701461045057610100565b8063506283cd116100d3578063506283cd1461025e57806351640fee146102a257806359519536146103105780635d37eeb71461037657610100565b8063331a01fd146101055780633c0359a4146101885780633e78c7c0146101f65780634cd0574214610240575b600080fd5b61010d610827565b6040518080602001828103825283818151815260200191508051906020019080838360005b8381101561014d578082015181840152602081019050610132565b50505050905090810190601f16801561017a5780820380516001836020036101000a031916815260200191505b509250505060405180910390f35b6101b46004803603602081101561019e57600080fd5b81019080803590602001909291905050506108c5565b604051808273ffffffffffffffffffffffffffffffffffffffff1673ffffffffffffffffffffffffffffffffffffffff16815260200191505060405180910390f35b6101fe610901565b604051808273ffffffffffffffffffffffffffffffffffffffff1673ffffffffffffffffffffffffffffffffffffffff16815260200191505060405180910390f35b610248610927565b6040518082815260200191505060405180910390f35b6102a06004803603602081101561027457600080fd5b81019080803573ffffffffffffffffffffffffffffffffffffffff16906020019092919050505061092d565b005b6102ce600480360360208110156102b857600080fd5b8101908080359060200190929190505050610971565b604051808273ffffffffffffffffffffffffffffffffffffffff1673ffffffffffffffffffffffffffffffffffffffff16815260200191505060405180910390f35b61035c6004803603604081101561032657600080fd5b81019080803573ffffffffffffffffffffffffffffffffffffffff16906020019092919080359060200190929190505050610a99565b604051808215151515815260200191505060405180910390f35b6103b86004803603602081101561038c57600080fd5b81019080803573ffffffffffffffffffffffffffffffffffffffff169060200190929190505050610b68565b005b6103c2610bac565b604051808273ffffffffffffffffffffffffffffffffffffffff1673ffffffffffffffffffffffffffffffffffffffff16815260200191505060405180910390f35b61040c610bd2565b6040518082815260200191505060405180910390f35b61044e6004803603602081101561043857600080fd5b8101908080359060200190929190505050610bdf565b005b6105096004803603602081101561046657600080fd5b810190808035906020019064010000000081111561048357600080fd5b82018360208201111561049557600080fd5b803590602001918460018302840111640100000000831117156104b757600080fd5b91908080601f016020809104026020016040519081016040528093929190818152602001838380828437600081840152601f19601f820116905080830192505050505050509192919290505050610be9565b005b6105c46004803603602081101561052157600080fd5b810190808035906020019064010000000081111561053e57600080fd5b82018360208201111561055057600080fd5b8035906020019184600183028401116401000000008311171561057257600080fd5b91908080601f016020809104026020016040519081016040528093929190818152602001838380828437600081840152601f19601f820116905080830192505050505050509192919290505050610c03565b005b6105f2600480360360208110156105dc57600080fd5b8101908080359060200190929190505050610c1d565b6040518082815260200191505060405180910390f35b610610610c3e565b6040518080602001828103825283818151815260200191508051906020019080838360005b83811015610650578082015181840152602081019050610635565b50505050905090810190601f16801561067d5780820380516001836020036101000a031916815260200191505b509250505060405180910390f35b610825600480360360a08110156106a157600080fd5b81019080803590602001906401000000008111156106be57600080fd5b8201836020820111156106d057600080fd5b803590602001918460018302840111640100000000831117156106f257600080fd5b91908080601f016020809104026020016040519081016040528093929190818152602001838380828437600081840152601f19601f8201169050808301925050505050505091929192908035906020019064010000000081111561075557600080fd5b82018360208201111561076757600080fd5b8035906020019184600183028401116401000000008311171561078957600080fd5b91908080601f016020809104026020016040519081016040528093929190818152602001838380828437600081840152601f19601f82011690508083019250505050505050919291929080359060200190929190803573ffffffffffffffffffffffffffffffffffffffff169060200190929190803573ffffffffffffffffffffffffffffffffffffffff169060200190929190505050610cdc565b005b60018054600181600116156101000203166002900480601f0160208091040260200160405190810160405280929190818152602001828054600181600116156101000203166002900480156108bd5780601f10610892576101008083540402835291602001916108bd565b820191906000526020600020905b8154815290600101906020018083116108a057829003601f168201915b505050505081565b600581815481106108d257fe5b906000526020600020016000915054906101000a900473ffffffffffffffffffffffffffffffffffffffff1681565b600260009054906101000a900473ffffffffffffffffffffffffffffffffffffffff1681565b60035481565b80600460006101000a81548173ffffffffffffffffffffffffffffffffffffffff021916908373ffffffffffffffffffffffffffffffffffffffff16021790555050565b600080600090505b600580549050811015610a9257826005828154811061099457fe5b9060005260206000200160009054906101000a900473ffffffffffffffffffffffffffffffffffffffff1673ffffffffffffffffffffffffffffffffffffffff16636bcda13b6040518163ffffffff1660e01b815260040160206040518083038186803b158015610a0457600080fd5b505afa158015610a18573d6000803e3d6000fd5b505050506040513d6020811015610a2e57600080fd5b81019080805190602001909291905050501415610a855760058181548110610a5257fe5b9060005260206000200160009054906101000a900473ffffffffffffffffffffffffffffffffffffffff16915050610a94565b8080600101915050610979565b505b919050565b600080610aa583610971565b90508073ffffffffffffffffffffffffffffffffffffffff1663e6e6b7c1856040518263ffffffff1660e01b8152600401808273ffffffffffffffffffffffffffffffffffffffff1673ffffffffffffffffffffffffffffffffffffffff16815260200191505060206040518083038186803b158015610b2457600080fd5b505afa158015610b38573d6000803e3d6000fd5b505050506040513d6020811015610b4e57600080fd5b810190808051906020019092919050505091505092915050565b80600260006101000a81548173ffffffffffffffffffffffffffffffffffffffff021916908373ffffffffffffffffffffffffffffffffffffffff16021790555050565b600460009054906101000a900473ffffffffffffffffffffffffffffffffffffffff1681565b6000600580549050905090565b8060038190555050565b8060009080519060200190610bff9291906111fe565b5050565b8060019080519060200190610c199291906111fe565b5050565b60068181548110610c2a57fe5b906000526020600020016000915090505481565b60008054600181600116156101000203166002900480601f016020809104026020016040519081016040528092919081815260200182805460018160011615610100020316600290048015610cd45780601f10610ca957610100808354040283529160200191610cd4565b820191906000526020600020905b815481529060010190602001808311610cb757829003601f168201915b505050505081565b6000604051610cea9061127e565b604051809103906000f080158015610d06573d6000803e3d6000fd5b5090508073ffffffffffffffffffffffffffffffffffffffff1663d6edce1c876040518263ffffffff1660e01b81526004018080602001828103825283818151815260200191508051906020019080838360005b83811015610d75578082015181840152602081019050610d5a565b50505050905090810190601f168015610da25780820380516001836020036101000a031916815260200191505b5092505050600060405180830381600087803b158015610dc157600080fd5b505af1158015610dd5573d6000803e3d6000fd5b505050508073ffffffffffffffffffffffffffffffffffffffff1663565eeb5a866040518263ffffffff1660e01b81526004018080602001828103825283818151815260200191508051906020019080838360005b83811015610e45578082015181840152602081019050610e2a565b50505050905090810190601f168015610e725780820380516001836020036101000a031916815260200191505b5092505050600060405180830381600087803b158015610e9157600080fd5b505af1158015610ea5573d6000803e3d6000fd5b505050508073ffffffffffffffffffffffffffffffffffffffff1663cea1e858856040518263ffffffff1660e01b815260040180828152602001915050600060405180830381600087803b158015610efc57600080fd5b505af1158015610f10573d6000803e3d6000fd5b505050508073ffffffffffffffffffffffffffffffffffffffff166399aad941846040518263ffffffff1660e01b8152600401808273ffffffffffffffffffffffffffffffffffffffff1673ffffffffffffffffffffffffffffffffffffffff168152602001915050600060405180830381600087803b158015610f9357600080fd5b505af1158015610fa7573d6000803e3d6000fd5b505050508073ffffffffffffffffffffffffffffffffffffffff1663f98500086040518163ffffffff1660e01b8152600401600060405180830381600087803b158015610ff357600080fd5b505af1158015611007573d6000803e3d6000fd5b505050508073ffffffffffffffffffffffffffffffffffffffff16638a79aa7060006040518263ffffffff1660e01b815260040180806020018281038252838181546001816001161561010002031660029004815260200191508054600181600116156101000203166002900480156110c15780601f10611096576101008083540402835291602001916110c1565b820191906000526020600020905b8154815290600101906020018083116110a457829003601f168201915b505092505050600060405180830381600087803b1580156110e157600080fd5b505af11580156110f5573d6000803e3d6000fd5b505050508073ffffffffffffffffffffffffffffffffffffffff1663e5d235f4836040518263ffffffff1660e01b8152600401808273ffffffffffffffffffffffffffffffffffffffff1673ffffffffffffffffffffffffffffffffffffffff168152602001915050600060405180830381600087803b15801561117857600080fd5b505af115801561118c573d6000803e3d6000fd5b5050505060058190806001815401808255809150509060018203906000526020600020016000909192909190916101000a81548173ffffffffffffffffffffffffffffffffffffffff021916908373ffffffffffffffffffffffffffffffffffffffff16021790555050505050505050565b828054600181600116156101000203166002900490600052602060002090601f016020900481019282601f1061123f57805160ff191683800117855561126d565b8280016001018555821561126d579182015b8281111561126c578251825591602001919060010190611251565b5b50905061127a919061128b565b5090565b610cfa806112b183390190565b6112ad91905b808211156112a9576000816000905550600101611291565b5090565b9056fe608060405234801561001057600080fd5b50610cda806100206000396000f3fe608060405234801561001057600080fd5b50600436106101165760003560e01c8063a982bd50116100a2578063d40afd8b11610071578063d40afd8b146105e2578063d6edce1c1461062c578063e5d235f4146106e7578063e6e6b7c11461072b578063f98500081461078757610116565b8063a982bd501461047f578063b508ba31146104c3578063bf088e5714610546578063cea1e858146105b457610116565b8063557084ce116100e9578063557084ce14610224578063565eeb5a146102a75780636bcda13b146103625780638a79aa701461038057806399aad9411461043b57610116565b8063091841f11461011b5780631f4591dd1461019e5780632b64818f146101e8578063323046b114610206575b600080fd5b610123610791565b6040518080602001828103825283818151815260200191508051906020019080838360005b83811015610163578082015181840152602081019050610148565b50505050905090810190601f1680156101905780820380516001836020036101000a031916815260200191505b509250505060405180910390f35b6101a661082f565b604051808273ffffffffffffffffffffffffffffffffffffffff1673ffffffffffffffffffffffffffffffffffffffff16815260200191505060405180910390f35b6101f0610855565b6040518082815260200191505060405180910390f35b61020e610862565b6040518082815260200191505060405180910390f35b61022c610868565b6040518080602001828103825283818151815260200191508051906020019080838360005b8381101561026c578082015181840152602081019050610251565b50505050905090810190601f1680156102995780820380516001836020036101000a031916815260200191505b509250505060405180910390f35b610360600480360360208110156102bd57600080fd5b81019080803590602001906401000000008111156102da57600080fd5b8201836020820111156102ec57600080fd5b8035906020019184600183028401116401000000008311171561030e57600080fd5b91908080601f016020809104026020016040519081016040528093929190818152602001838380828437600081840152601f19601f820116905080830192505050505050509192919290505050610906565b005b61036a610920565b6040518082815260200191505060405180910390f35b6104396004803603602081101561039657600080fd5b81019080803590602001906401000000008111156103b357600080fd5b8201836020820111156103c557600080fd5b803590602001918460018302840111640100000000831117156103e757600080fd5b91908080601f016020809104026020016040519081016040528093929190818152602001838380828437600081840152601f19601f820116905080830192505050505050509192919290505050610926565b005b61047d6004803603602081101561045157600080fd5b81019080803573ffffffffffffffffffffffffffffffffffffffff169060200190929190505050610940565b005b6104c16004803603602081101561049557600080fd5b81019080803573ffffffffffffffffffffffffffffffffffffffff169060200190929190505050610984565b005b6104cb6109ed565b6040518080602001828103825283818151815260200191508051906020019080838360005b8381101561050b5780820151818401526020810190506104f0565b50505050905090810190601f1680156105385780820380516001836020036101000a031916815260200191505b509250505060405180910390f35b6105726004803603602081101561055c57600080fd5b8101908080359060200190929190505050610a8b565b604051808273ffffffffffffffffffffffffffffffffffffffff1673ffffffffffffffffffffffffffffffffffffffff16815260200191505060405180910390f35b6105e0600480360360208110156105ca57600080fd5b8101908080359060200190929190505050610ac7565b005b6105ea610ad1565b604051808273ffffffffffffffffffffffffffffffffffffffff1673ffffffffffffffffffffffffffffffffffffffff16815260200191505060405180910390f35b6106e56004803603602081101561064257600080fd5b810190808035906020019064010000000081111561065f57600080fd5b82018360208201111561067157600080fd5b8035906020019184600183028401116401000000008311171561069357600080fd5b91908080601f016020809104026020016040519081016040528093929190818152602001838380828437600081840152601f19601f820116905080830192505050505050509192919290505050610af7565b005b610729600480360360208110156106fd57600080fd5b81019080803573ffffffffffffffffffffffffffffffffffffffff169060200190929190505050610b11565b005b61076d6004803603602081101561074157600080fd5b81019080803573ffffffffffffffffffffffffffffffffffffffff169060200190929190505050610b55565b604051808215151515815260200191505060405180910390f35b61078f610bf7565b005b60018054600181600116156101000203166002900480601f0160208091040260200160405190810160405280929190818152602001828054600181600116156101000203166002900480156108275780601f106107fc57610100808354040283529160200191610827565b820191906000526020600020905b81548152906001019060200180831161080a57829003601f168201915b505050505081565b600760009054906101000a900473ffffffffffffffffffffffffffffffffffffffff1681565b6000600280549050905090565b60065481565b60008054600181600116156101000203166002900480601f0160208091040260200160405190810160405280929190818152602001828054600181600116156101000203166002900480156108fe5780601f106108d3576101008083540402835291602001916108fe565b820191906000526020600020905b8154815290600101906020018083116108e157829003601f168201915b505050505081565b806001908051906020019061091c929190610c00565b5050565b60035481565b806005908051906020019061093c929190610c00565b5050565b80600460006101000a81548173ffffffffffffffffffffffffffffffffffffffff021916908373ffffffffffffffffffffffffffffffffffffffff16021790555050565b60028190806001815401808255809150509060018203906000526020600020016000909192909190916101000a81548173ffffffffffffffffffffffffffffffffffffffff021916908373ffffffffffffffffffffffffffffffffffffffff1602179055505050565b60058054600181600116156101000203166002900480601f016020809104026020016040519081016040528092919081815260200182805460018160011615610100020316600290048015610a835780601f10610a5857610100808354040283529160200191610a83565b820191906000526020600020905b815481529060010190602001808311610a6657829003601f168201915b505050505081565b60028181548110610a9857fe5b906000526020600020016000915054906101000a900473ffffffffffffffffffffffffffffffffffffffff1681565b8060038190555050565b600460009054906101000a900473ffffffffffffffffffffffffffffffffffffffff1681565b8060009080519060200190610b0d929190610c00565b5050565b80600760006101000a81548173ffffffffffffffffffffffffffffffffffffffff021916908373ffffffffffffffffffffffffffffffffffffffff16021790555050565b600080600090505b600280549050811015610bec578273ffffffffffffffffffffffffffffffffffffffff1660028281548110610b8e57fe5b9060005260206000200160009054906101000a900473ffffffffffffffffffffffffffffffffffffffff1673ffffffffffffffffffffffffffffffffffffffff161415610bdf576001915050610bf2565b8080600101915050610b5d565b50600090505b919050565b42600681905550565b828054600181600116156101000203166002900490600052602060002090601f016020900481019282601f10610c4157805160ff1916838001178555610c6f565b82800160010185558215610c6f579182015b82811115610c6e578251825591602001919060010190610c53565b5b509050610c7c9190610c80565b5090565b610ca291905b80821115610c9e576000816000905550600101610c86565b5090565b9056fea265627a7a72315820f29f672dfef226ea937a7a7c1a082147ca9d1126f9ced13b786c4fd8a3cc44cb64736f6c63430005100032a265627a7a72315820590d26624f6ddab6f2bd04397b9e1ef49f5406be4a31b9a9e9fd59f5916e79d264736f6c63430005100032a365627a7a7231582093acff7fa9672b4a7424a56d18085a1b1bb3e9ca731e4516f6c2a7f8410f2e1f6c6578706572696d656e74616cf564736f6c63430005100040",
  "source": "// SPDX-License-Identifier: MIT\r\npragma solidity >=0.4.21 <0.7.0;\r\npragma experimental ABIEncoderV2;\r\nimport \"./Student.sol\";\r\nimport \"./Certification.sol\";\r\n\r\ncontract Organisation {\r\n    string public organisationName;\r\n    address public organisationAddress;\r\n\r\n    uint256[] public studentIDs;\r\n\r\n    mapping(uint256 => address) public suidToAddress;\r\n\r\n    uint256[] public arr = [1, 2, 3, 4];\r\n\r\n    Student[] public students;\r\n\r\n    function addStudent(\r\n        string memory _name,\r\n        uint256 _uid,\r\n        address _addr,\r\n        address _orgAddress\r\n    ) public {\r\n        Student s = new Student();\r\n        s.setStudentName(_name);\r\n        s.setStudentAccAddress(_addr);\r\n        s.setStudentUniqueId(_uid);\r\n        s.setOrganisationName(organisationName);\r\n        s.setOrganisationAddress(_orgAddress);\r\n\r\n        students.push(s);\r\n    }\r\n\r\n    function noOfStudents() public view returns (uint256) {\r\n        return students.length;\r\n    }\r\n\r\n    function noOfUniqueIds() public view returns (uint256) {\r\n        return studentIDs.length;\r\n    }\r\n\r\n    function addOrganisation(\r\n        string memory _organisationName,\r\n        address _organisationAddress\r\n    ) public {\r\n        organisationName = _organisationName;\r\n        organisationAddress = _organisationAddress;\r\n    }\r\n\r\n    function findId(uint256 _id) public returns (uint256) {\r\n        for (uint256 i = 0; i < studentIDs.length; i++) {\r\n            if (studentIDs[i] == _id) {\r\n                return studentIDs[i];\r\n            }\r\n        }\r\n        return 0;\r\n    }\r\n\r\n    function addStudentId(uint256 _studentID) public {\r\n        require(_studentID != findId(_studentID), \"ID already exists\");\r\n        studentIDs.push(_studentID);\r\n    }\r\n\r\n    function checkStudentId(uint256 _studentID) public view returns (bool) {\r\n        for (uint256 i = 0; i < studentIDs.length; i++) {\r\n            if (studentIDs[i] == _studentID) {\r\n                return true;\r\n            }\r\n        }\r\n        return false;\r\n    }\r\n}",
  "sourcePath": "D:\\user_cherry\\User\\Projects\\miniprojectF\\contracts\\Organisation.sol",
  "compiler": {
    "name": "solc",
    "version": "0.5.16+commit.9c3226ce.Emscripten.clang"
  },
  "schemaVersion": "3.2.3",
  "updatedAt": "2022-05-30T16:35:35.648Z",
  "networkType": "ethereum",
  "devdoc": {
    "methods": {}
  },
  "userdoc": {
    "methods": {}
  }
}