{
  "contractName": "OverAll",
  "abi": [
    {
      "constant": true,
      "inputs": [
        {
          "internalType": "uint256",
          "name": "",
          "type": "uint256"
        }
      ],
      "name": "Companies",
      "outputs": [
        {
          "internalType": "contract Company",
          "name": "",
          "type": "address"
        }
      ],
      "payable": false,
      "stateMutability": "view",
      "type": "function"
    },
    {
      "constant": true,
      "inputs": [
        {
          "internalType": "uint256",
          "name": "",
          "type": "uint256"
        }
      ],
      "name": "Orgaganisations",
      "outputs": [
        {
          "internalType": "contract Organisation",
          "name": "",
          "type": "address"
        }
      ],
      "payable": false,
      "stateMutability": "view",
      "type": "function"
    },
    {
      "constant": true,
      "inputs": [],
      "name": "helper",
      "outputs": [
        {
          "internalType": "contract HelperOrg",
          "name": "",
          "type": "address"
        }
      ],
      "payable": false,
      "stateMutability": "view",
      "type": "function"
    },
    {
      "constant": false,
      "inputs": [
        {
          "internalType": "string",
          "name": "name",
          "type": "string"
        }
      ],
      "name": "addOrganisation",
      "outputs": [],
      "payable": false,
      "stateMutability": "nonpayable",
      "type": "function"
    },
    {
      "constant": true,
      "inputs": [],
      "name": "organisationsLength",
      "outputs": [
        {
          "internalType": "uint256",
          "name": "",
          "type": "uint256"
        }
      ],
      "payable": false,
      "stateMutability": "view",
      "type": "function"
    },
    {
      "constant": true,
      "inputs": [],
      "name": "checkOrganisation",
      "outputs": [
        {
          "internalType": "string",
          "name": "",
          "type": "string"
        }
      ],
      "payable": false,
      "stateMutability": "view",
      "type": "function"
    },
    {
      "constant": true,
      "inputs": [],
      "name": "getOrganisation",
      "outputs": [
        {
          "internalType": "contract Organisation",
          "name": "",
          "type": "address"
        }
      ],
      "payable": false,
      "stateMutability": "view",
      "type": "function"
    },
    {
      "constant": true,
      "inputs": [],
      "name": "getAllOrganisations",
      "outputs": [
        {
          "components": [
            {
              "internalType": "string",
              "name": "name",
              "type": "string"
            },
            {
              "internalType": "address",
              "name": "addr",
              "type": "address"
            }
          ],
          "internalType": "struct OverAll.organisation[]",
          "name": "",
          "type": "tuple[]"
        }
      ],
      "payable": false,
      "stateMutability": "view",
      "type": "function"
    },
    {
      "constant": true,
      "inputs": [],
      "name": "getOrganisationDetails",
      "outputs": [
        {
          "internalType": "string",
          "name": "",
          "type": "string"
        },
        {
          "internalType": "address",
          "name": "",
          "type": "address"
        },
        {
          "internalType": "uint256",
          "name": "",
          "type": "uint256"
        },
        {
          "internalType": "uint256",
          "name": "",
          "type": "uint256"
        },
        {
          "internalType": "uint256",
          "name": "",
          "type": "uint256"
        }
      ],
      "payable": false,
      "stateMutability": "view",
      "type": "function"
    },
    {
      "constant": true,
      "inputs": [],
      "name": "getAllStudents",
      "outputs": [
        {
          "components": [
            {
              "internalType": "string",
              "name": "name",
              "type": "string"
            },
            {
              "internalType": "address",
              "name": "addr",
              "type": "address"
            },
            {
              "internalType": "uint256",
              "name": "studentUniqueId",
              "type": "uint256"
            },
            {
              "internalType": "uint256",
              "name": "noOfCertificates",
              "type": "uint256"
            }
          ],
          "internalType": "struct OverAll.student[]",
          "name": "",
          "type": "tuple[]"
        }
      ],
      "payable": false,
      "stateMutability": "view",
      "type": "function"
    },
    {
      "constant": false,
      "inputs": [
        {
          "internalType": "string",
          "name": "_name",
          "type": "string"
        },
        {
          "internalType": "uint256",
          "name": "_uid",
          "type": "uint256"
        },
        {
          "internalType": "address",
          "name": "_orgAddr",
          "type": "address"
        }
      ],
      "name": "addStudent",
      "outputs": [],
      "payable": false,
      "stateMutability": "nonpayable",
      "type": "function"
    },
    {
      "constant": true,
      "inputs": [],
      "name": "getAllCertificates",
      "outputs": [
        {
          "components": [
            {
              "internalType": "string",
              "name": "name",
              "type": "string"
            },
            {
              "internalType": "uint256",
              "name": "uniqueId",
              "type": "uint256"
            },
            {
              "internalType": "address",
              "name": "issuedTo",
              "type": "address"
            },
            {
              "internalType": "uint256",
              "name": "date",
              "type": "uint256"
            },
            {
              "internalType": "address",
              "name": "issuedBy",
              "type": "address"
            }
          ],
          "internalType": "struct OverAll.certificate[]",
          "name": "",
          "type": "tuple[]"
        }
      ],
      "payable": false,
      "stateMutability": "view",
      "type": "function"
    }
  ],
  "bytecode": "0x6080604052604051620000129062000083565b604051809103906000f0801580156200002f573d6000803e3d6000fd5b506000806101000a81548173ffffffffffffffffffffffffffffffffffffffff021916908373ffffffffffffffffffffffffffffffffffffffff1602179055503480156200007c57600080fd5b5062000091565b610d3d8062005d4583390190565b615ca480620000a16000396000f3fe60806040523480156200001157600080fd5b5060043610620000c45760003560e01c8063b1743b8e116200007b578063b1743b8e1462000193578063b502a6e014620001b9578063c79f28bb14620001ef578063e9e309271462000211578063e9e8a17c1462000233578063efeda3d7146200025357620000c4565b806313fcfe8014620000c95780634c71de3b14620000eb57806363b0e66a146200010d578063988760c1146200012f578063a1263f6d146200014f578063b163e03d1462000171575b600080fd5b620000d362000289565b604051620000e2919062002690565b60405180910390f35b620000f562000dfc565b60405162000104919062002863565b60405180910390f35b6200011762000e09565b60405162000126919062002719565b60405180910390f35b6200014d600480360362000147919081019062001fb3565b62000e2e565b005b6200015962000f39565b60405162000168919062002753565b60405180910390f35b6200017b62000ff6565b6040516200018a9190620026b4565b60405180910390f35b6200019d62001249565b604051620001b0959493929190620027ab565b60405180910390f35b620001d76004803603620001d1919081019062002147565b6200131a565b604051620001e6919062002736565b60405180910390f35b620001f962001357565b60405162000208919062002736565b60405180910390f35b6200021b62001411565b6040516200022a9190620026d8565b60405180910390f35b6200025160048036036200024b9190810190620020d8565b62001a2a565b005b6200027160048036036200026b919081019062002147565b62001b5c565b604051620002809190620026fc565b60405180910390f35b606060006200029762001357565b905060606000809054906101000a900473ffffffffffffffffffffffffffffffffffffffff1673ffffffffffffffffffffffffffffffffffffffff16631a11a723836040518263ffffffff1660e01b8152600401620002f7919062002736565b60206040518083038186803b1580156200031057600080fd5b505afa15801562000325573d6000803e3d6000fd5b505050506040513d601f19601f820116820180604052506200034b919081019062002173565b6040519080825280602002602001820160405280156200038857816020015b6200037462001b99565b8152602001906001900390816200036a5790505b509050600080905060008090505b8373ffffffffffffffffffffffffffffffffffffffff166330dc15536040518163ffffffff1660e01b815260040160206040518083038186803b158015620003dd57600080fd5b505afa158015620003f2573d6000803e3d6000fd5b505050506040513d601f19601f8201168201806040525062000418919081019062002173565b81101562000df25760008090505b8473ffffffffffffffffffffffffffffffffffffffff166306ead22e836040518263ffffffff1660e01b815260040162000461919062002863565b60206040518083038186803b1580156200047a57600080fd5b505afa1580156200048f573d6000803e3d6000fd5b505050506040513d601f19601f82011682018060405250620004b5919081019062001f42565b73ffffffffffffffffffffffffffffffffffffffff16636af6d78c6040518163ffffffff1660e01b815260040160206040518083038186803b158015620004fb57600080fd5b505afa15801562000510573d6000803e3d6000fd5b505050506040513d601f19601f8201168201806040525062000536919081019062002173565b81101562000de3576200054862001bf4565b6040518060a001604052808773ffffffffffffffffffffffffffffffffffffffff166306ead22e866040518263ffffffff1660e01b81526004016200058e919062002863565b60206040518083038186803b158015620005a757600080fd5b505afa158015620005bc573d6000803e3d6000fd5b505050506040513d601f19601f82011682018060405250620005e2919081019062001f42565b73ffffffffffffffffffffffffffffffffffffffff16633c0359a4856040518263ffffffff1660e01b81526004016200061c919062002863565b60206040518083038186803b1580156200063557600080fd5b505afa1580156200064a573d6000803e3d6000fd5b505050506040513d601f19601f8201168201806040525062000670919081019062001eea565b73ffffffffffffffffffffffffffffffffffffffff1663b508ba316040518163ffffffff1660e01b815260040160006040518083038186803b158015620006b657600080fd5b505afa158015620006cb573d6000803e3d6000fd5b505050506040513d6000823e3d601f19601f82011682018060405250620006f6919081019062001f6e565b81526020018773ffffffffffffffffffffffffffffffffffffffff166306ead22e866040518263ffffffff1660e01b815260040162000736919062002863565b60206040518083038186803b1580156200074f57600080fd5b505afa15801562000764573d6000803e3d6000fd5b505050506040513d601f19601f820116820180604052506200078a919081019062001f42565b73ffffffffffffffffffffffffffffffffffffffff16633c0359a4856040518263ffffffff1660e01b8152600401620007c4919062002863565b60206040518083038186803b158015620007dd57600080fd5b505afa158015620007f2573d6000803e3d6000fd5b505050506040513d601f19601f8201168201806040525062000818919081019062001eea565b73ffffffffffffffffffffffffffffffffffffffff16636bcda13b6040518163ffffffff1660e01b815260040160206040518083038186803b1580156200085e57600080fd5b505afa15801562000873573d6000803e3d6000fd5b505050506040513d601f19601f8201168201806040525062000899919081019062002173565b81526020018773ffffffffffffffffffffffffffffffffffffffff166306ead22e866040518263ffffffff1660e01b8152600401620008d9919062002863565b60206040518083038186803b158015620008f257600080fd5b505afa15801562000907573d6000803e3d6000fd5b505050506040513d601f19601f820116820180604052506200092d919081019062001f42565b73ffffffffffffffffffffffffffffffffffffffff16633c0359a4856040518263ffffffff1660e01b815260040162000967919062002863565b60206040518083038186803b1580156200098057600080fd5b505afa15801562000995573d6000803e3d6000fd5b505050506040513d601f19601f82011682018060405250620009bb919081019062001eea565b73ffffffffffffffffffffffffffffffffffffffff1663d40afd8b6040518163ffffffff1660e01b815260040160206040518083038186803b15801562000a0157600080fd5b505afa15801562000a16573d6000803e3d6000fd5b505050506040513d601f19601f8201168201806040525062000a3c919081019062001ebe565b73ffffffffffffffffffffffffffffffffffffffff1681526020018773ffffffffffffffffffffffffffffffffffffffff166306ead22e866040518263ffffffff1660e01b815260040162000a92919062002863565b60206040518083038186803b15801562000aab57600080fd5b505afa15801562000ac0573d6000803e3d6000fd5b505050506040513d601f19601f8201168201806040525062000ae6919081019062001f42565b73ffffffffffffffffffffffffffffffffffffffff16633c0359a4856040518263ffffffff1660e01b815260040162000b20919062002863565b60206040518083038186803b15801562000b3957600080fd5b505afa15801562000b4e573d6000803e3d6000fd5b505050506040513d601f19601f8201168201806040525062000b74919081019062001eea565b73ffffffffffffffffffffffffffffffffffffffff1663323046b16040518163ffffffff1660e01b815260040160206040518083038186803b15801562000bba57600080fd5b505afa15801562000bcf573d6000803e3d6000fd5b505050506040513d601f19601f8201168201806040525062000bf5919081019062002173565b81526020018773ffffffffffffffffffffffffffffffffffffffff166306ead22e866040518263ffffffff1660e01b815260040162000c35919062002863565b60206040518083038186803b15801562000c4e57600080fd5b505afa15801562000c63573d6000803e3d6000fd5b505050506040513d601f19601f8201168201806040525062000c89919081019062001f42565b73ffffffffffffffffffffffffffffffffffffffff16633c0359a4856040518263ffffffff1660e01b815260040162000cc3919062002863565b60206040518083038186803b15801562000cdc57600080fd5b505afa15801562000cf1573d6000803e3d6000fd5b505050506040513d601f19601f8201168201806040525062000d17919081019062001eea565b73ffffffffffffffffffffffffffffffffffffffff16631f4591dd6040518163ffffffff1660e01b815260040160206040518083038186803b15801562000d5d57600080fd5b505afa15801562000d72573d6000803e3d6000fd5b505050506040513d601f19601f8201168201806040525062000d98919081019062001ebe565b73ffffffffffffffffffffffffffffffffffffffff1681525090508085858151811062000dc157fe5b6020026020010181905250838060010194505050808060010191505062000426565b50808060010191505062000396565b5081935050505090565b6000600180549050905090565b6000809054906101000a900473ffffffffffffffffffffffffffffffffffffffff1681565b600060405162000e3e9062001c4f565b604051809103906000f08015801562000e5b573d6000803e3d6000fd5b5090508073ffffffffffffffffffffffffffffffffffffffff1663fe794b0083336040518363ffffffff1660e01b815260040162000e9b92919062002777565b600060405180830381600087803b15801562000eb657600080fd5b505af115801562000ecb573d6000803e3d6000fd5b5050505060018190806001815401808255809150509060018203906000526020600020016000909192909190916101000a81548173ffffffffffffffffffffffffffffffffffffffff021916908373ffffffffffffffffffffffffffffffffffffffff160217905550505050565b60606000809054906101000a900473ffffffffffffffffffffffffffffffffffffffff1673ffffffffffffffffffffffffffffffffffffffff1663bd15c14960016040518263ffffffff1660e01b815260040162000f98919062002638565b60006040518083038186803b15801562000fb157600080fd5b505afa15801562000fc6573d6000803e3d6000fd5b505050506040513d6000823e3d601f19601f8201168201806040525062000ff1919081019062001ff8565b905090565b6060806001805490506040519080825280602002602001820160405280156200103c57816020015b6200102862001c5d565b8152602001906001900390816200101e5790505b50905060008090505b6001805490508110156200124157600181815481106200106157fe5b9060005260206000200160009054906101000a900473ffffffffffffffffffffffffffffffffffffffff1673ffffffffffffffffffffffffffffffffffffffff1663ec5d9e586040518163ffffffff1660e01b815260040160006040518083038186803b158015620010d257600080fd5b505afa158015620010e7573d6000803e3d6000fd5b505050506040513d6000823e3d601f19601f8201168201806040525062001112919081019062001f6e565b8282815181106200111f57fe5b602002602001015160000181905250600181815481106200113c57fe5b9060005260206000200160009054906101000a900473ffffffffffffffffffffffffffffffffffffffff1673ffffffffffffffffffffffffffffffffffffffff1663c5d163756040518163ffffffff1660e01b815260040160206040518083038186803b158015620011ad57600080fd5b505afa158015620011c2573d6000803e3d6000fd5b505050506040513d601f19601f82011682018060405250620011e8919081019062001ebe565b828281518110620011f557fe5b60200260200101516020019073ffffffffffffffffffffffffffffffffffffffff16908173ffffffffffffffffffffffffffffffffffffffff1681525050808060010191505062001045565b508091505090565b60606000806000806000809054906101000a900473ffffffffffffffffffffffffffffffffffffffff1673ffffffffffffffffffffffffffffffffffffffff16636458f5426001336040518363ffffffff1660e01b8152600401620012b09291906200265c565b60006040518083038186803b158015620012c957600080fd5b505afa158015620012de573d6000803e3d6000fd5b505050506040513d6000823e3d601f19601f820116820180604052506200130991908101906200203d565b945094509450945094509091929394565b600181815481106200132857fe5b906000526020600020016000915054906101000a900473ffffffffffffffffffffffffffffffffffffffff1681565b60008060009054906101000a900473ffffffffffffffffffffffffffffffffffffffff1673ffffffffffffffffffffffffffffffffffffffff166306ae61486001336040518363ffffffff1660e01b8152600401620013b89291906200265c565b60206040518083038186803b158015620013d157600080fd5b505afa158015620013e6573d6000803e3d6000fd5b505050506040513d601f19601f820116820180604052506200140c919081019062001f16565b905090565b606060006200141f62001357565b905060608173ffffffffffffffffffffffffffffffffffffffff166330dc15536040518163ffffffff1660e01b815260040160206040518083038186803b1580156200146a57600080fd5b505afa1580156200147f573d6000803e3d6000fd5b505050506040513d601f19601f82011682018060405250620014a5919081019062002173565b604051908082528060200260200182016040528015620014e257816020015b620014ce62001c8d565b815260200190600190039081620014c45790505b50905060008090505b8273ffffffffffffffffffffffffffffffffffffffff166330dc15536040518163ffffffff1660e01b815260040160206040518083038186803b1580156200153257600080fd5b505afa15801562001547573d6000803e3d6000fd5b505050506040513d601f19601f820116820180604052506200156d919081019062002173565b81101562001a21576200157f62001ccb565b60405180608001604052808573ffffffffffffffffffffffffffffffffffffffff166306ead22e856040518263ffffffff1660e01b8152600401620015c5919062002863565b60206040518083038186803b158015620015de57600080fd5b505afa158015620015f3573d6000803e3d6000fd5b505050506040513d601f19601f8201168201806040525062001619919081019062001f42565b73ffffffffffffffffffffffffffffffffffffffff1663ec3615cd6040518163ffffffff1660e01b815260040160006040518083038186803b1580156200165f57600080fd5b505afa15801562001674573d6000803e3d6000fd5b505050506040513d6000823e3d601f19601f820116820180604052506200169f919081019062001f6e565b81526020018573ffffffffffffffffffffffffffffffffffffffff166306ead22e856040518263ffffffff1660e01b8152600401620016df919062002863565b60206040518083038186803b158015620016f857600080fd5b505afa1580156200170d573d6000803e3d6000fd5b505050506040513d601f19601f8201168201806040525062001733919081019062001f42565b73ffffffffffffffffffffffffffffffffffffffff16633e78c7c06040518163ffffffff1660e01b815260040160206040518083038186803b1580156200177957600080fd5b505afa1580156200178e573d6000803e3d6000fd5b505050506040513d601f19601f82011682018060405250620017b4919081019062001ebe565b73ffffffffffffffffffffffffffffffffffffffff1681526020018573ffffffffffffffffffffffffffffffffffffffff166306ead22e856040518263ffffffff1660e01b81526004016200180a919062002863565b60206040518083038186803b1580156200182357600080fd5b505afa15801562001838573d6000803e3d6000fd5b505050506040513d601f19601f820116820180604052506200185e919081019062001f42565b73ffffffffffffffffffffffffffffffffffffffff16634cd057426040518163ffffffff1660e01b815260040160206040518083038186803b158015620018a457600080fd5b505afa158015620018b9573d6000803e3d6000fd5b505050506040513d601f19601f82011682018060405250620018df919081019062002173565b81526020018573ffffffffffffffffffffffffffffffffffffffff166306ead22e856040518263ffffffff1660e01b81526004016200191f919062002863565b60206040518083038186803b1580156200193857600080fd5b505afa1580156200194d573d6000803e3d6000fd5b505050506040513d601f19601f8201168201806040525062001973919081019062001f42565b73ffffffffffffffffffffffffffffffffffffffff16636af6d78c6040518163ffffffff1660e01b815260040160206040518083038186803b158015620019b957600080fd5b505afa158015620019ce573d6000803e3d6000fd5b505050506040513d601f19601f82011682018060405250620019f4919081019062002173565b81525090508083838151811062001a0757fe5b6020026020010181905250508080600101915050620014eb565b50809250505090565b60008060009054906101000a900473ffffffffffffffffffffffffffffffffffffffff1673ffffffffffffffffffffffffffffffffffffffff166306ae61486001336040518363ffffffff1660e01b815260040162001a8b9291906200265c565b60206040518083038186803b15801562001aa457600080fd5b505afa15801562001ab9573d6000803e3d6000fd5b505050506040513d601f19601f8201168201806040525062001adf919081019062001f16565b90508073ffffffffffffffffffffffffffffffffffffffff1663137c3f7d858533866040518563ffffffff1660e01b815260040162001b2294939291906200280f565b600060405180830381600087803b15801562001b3d57600080fd5b505af115801562001b52573d6000803e3d6000fd5b5050505050505050565b6002818154811062001b6a57fe5b906000526020600020016000915054906101000a900473ffffffffffffffffffffffffffffffffffffffff1681565b6040518060a001604052806060815260200160008152602001600073ffffffffffffffffffffffffffffffffffffffff16815260200160008152602001600073ffffffffffffffffffffffffffffffffffffffff1681525090565b6040518060a001604052806060815260200160008152602001600073ffffffffffffffffffffffffffffffffffffffff16815260200160008152602001600073ffffffffffffffffffffffffffffffffffffffff1681525090565b612fd28062002c9083390190565b604051806040016040528060608152602001600073ffffffffffffffffffffffffffffffffffffffff1681525090565b604051806080016040528060608152602001600073ffffffffffffffffffffffffffffffffffffffff16815260200160008152602001600081525090565b604051806080016040528060608152602001600073ffffffffffffffffffffffffffffffffffffffff16815260200160008152602001600081525090565b60008135905062001d1a8162002c0d565b92915050565b60008151905062001d318162002c0d565b92915050565b60008151905062001d488162002c27565b92915050565b60008151905062001d5f8162002c41565b92915050565b60008151905062001d768162002c5b565b92915050565b600082601f83011262001d8e57600080fd5b815162001da562001d9f82620028ae565b62002880565b9150808252602083016020830185838301111562001dc257600080fd5b62001dcf83828462002b86565b50505092915050565b600082601f83011262001dea57600080fd5b813562001e0162001dfb82620028db565b62002880565b9150808252602083016020830185838301111562001e1e57600080fd5b62001e2b83828462002b77565b50505092915050565b600082601f83011262001e4657600080fd5b815162001e5d62001e5782620028db565b62002880565b9150808252602083016020830185838301111562001e7a57600080fd5b62001e8783828462002b86565b50505092915050565b60008135905062001ea18162002c75565b92915050565b60008151905062001eb88162002c75565b92915050565b60006020828403121562001ed157600080fd5b600062001ee18482850162001d20565b91505092915050565b60006020828403121562001efd57600080fd5b600062001f0d8482850162001d37565b91505092915050565b60006020828403121562001f2957600080fd5b600062001f398482850162001d4e565b91505092915050565b60006020828403121562001f5557600080fd5b600062001f658482850162001d65565b91505092915050565b60006020828403121562001f8157600080fd5b600082015167ffffffffffffffff81111562001f9c57600080fd5b62001faa8482850162001d7c565b91505092915050565b60006020828403121562001fc657600080fd5b600082013567ffffffffffffffff81111562001fe157600080fd5b62001fef8482850162001dd8565b91505092915050565b6000602082840312156200200b57600080fd5b600082015167ffffffffffffffff8111156200202657600080fd5b620020348482850162001e34565b91505092915050565b600080600080600060a086880312156200205657600080fd5b600086015167ffffffffffffffff8111156200207157600080fd5b6200207f8882890162001e34565b9550506020620020928882890162001d20565b9450506040620020a58882890162001ea7565b9350506060620020b88882890162001ea7565b9250506080620020cb8882890162001ea7565b9150509295509295909350565b600080600060608486031215620020ee57600080fd5b600084013567ffffffffffffffff8111156200210957600080fd5b620021178682870162001dd8565b93505060206200212a8682870162001e90565b92505060406200213d8682870162001d09565b9150509250925092565b6000602082840312156200215a57600080fd5b60006200216a8482850162001e90565b91505092915050565b6000602082840312156200218657600080fd5b6000620021968482850162001ea7565b91505092915050565b6000620021ad838362002446565b60208301905092915050565b6000620021c78383620024ea565b905092915050565b6000620021dd83836200256a565b905092915050565b6000620021f38383620025ab565b905092915050565b620022068162002ac3565b82525050565b620022178162002a49565b82525050565b620022288162002a49565b82525050565b60006200223b826200294d565b620022478185620029c3565b9350620022548362002908565b8060005b8381101562002294576200226c8262002bda565b6200227888826200219f565b975062002285836200298f565b92505060018101905062002258565b5085935050505092915050565b6000620022ae8262002958565b620022ba8185620029d4565b935083602082028501620022ce856200291d565b8060005b85811015620023105784840389528151620022ee8582620021b9565b9450620022fb836200299c565b925060208a01995050600181019050620022d2565b50829750879550505050505092915050565b60006200232f8262002963565b6200233b8185620029e5565b9350836020820285016200234f856200292d565b8060005b858110156200239157848403895281516200236f8582620021cf565b94506200237c83620029a9565b925060208a0199505060018101905062002353565b50829750879550505050505092915050565b6000620023b0826200296e565b620023bc8185620029f6565b935083602082028501620023d0856200293d565b8060005b85811015620024125784840389528151620023f08582620021e5565b9450620023fd83620029b6565b925060208a01995050600181019050620023d4565b50829750879550505050505092915050565b6200242f8162002ad7565b82525050565b620024408162002aff565b82525050565b620024518162002b27565b82525050565b620024628162002b27565b82525050565b6000620024758262002984565b62002481818562002a18565b93506200249381856020860162002b86565b6200249e8162002bef565b840191505092915050565b6000620024b68262002979565b620024c2818562002a07565b9350620024d481856020860162002b86565b620024df8162002bef565b840191505092915050565b600060a0830160008301518482036000860152620025098282620024a9565b915050602083015162002520602086018262002616565b5060408301516200253560408601826200220c565b5060608301516200254a606086018262002616565b5060808301516200255f60808601826200220c565b508091505092915050565b60006040830160008301518482036000860152620025898282620024a9565b9150506020830151620025a060208601826200220c565b508091505092915050565b60006080830160008301518482036000860152620025ca8282620024a9565b9150506020830151620025e160208601826200220c565b506040830151620025f6604086018262002616565b5060608301516200260b606086018262002616565b508091505092915050565b620026218162002ab9565b82525050565b620026328162002ab9565b82525050565b600060208201905081810360008301526200265481846200222e565b905092915050565b600060408201905081810360008301526200267881856200222e565b9050620026896020830184620021fb565b9392505050565b60006020820190508181036000830152620026ac8184620022a1565b905092915050565b60006020820190508181036000830152620026d0818462002322565b905092915050565b60006020820190508181036000830152620026f48184620023a3565b905092915050565b600060208201905062002713600083018462002424565b92915050565b600060208201905062002730600083018462002435565b92915050565b60006020820190506200274d600083018462002457565b92915050565b600060208201905081810360008301526200276f818462002468565b905092915050565b6000604082019050818103600083015262002793818562002468565b9050620027a46020830184620021fb565b9392505050565b600060a0820190508181036000830152620027c7818862002468565b9050620027d860208301876200221d565b620027e7604083018662002627565b620027f6606083018562002627565b62002805608083018462002627565b9695505050505050565b600060808201905081810360008301526200282b818762002468565b90506200283c602083018662002627565b6200284b6040830185620021fb565b6200285a60608301846200221d565b95945050505050565b60006020820190506200287a600083018462002627565b92915050565b6000604051905081810181811067ffffffffffffffff82111715620028a457600080fd5b8060405250919050565b600067ffffffffffffffff821115620028c657600080fd5b601f19601f8301169050602081019050919050565b600067ffffffffffffffff821115620028f357600080fd5b601f19601f8301169050602081019050919050565b60008190508160005260206000209050919050565b6000819050602082019050919050565b6000819050602082019050919050565b6000819050602082019050919050565b600081549050919050565b600081519050919050565b600081519050919050565b600081519050919050565b600081519050919050565b600081519050919050565b6000600182019050919050565b6000602082019050919050565b6000602082019050919050565b6000602082019050919050565b600082825260208201905092915050565b600082825260208201905092915050565b600082825260208201905092915050565b600082825260208201905092915050565b600082825260208201905092915050565b600082825260208201905092915050565b600073ffffffffffffffffffffffffffffffffffffffff82169050919050565b600062002a568262002a99565b9050919050565b600062002a6a8262002a49565b9050919050565b600062002a7e8262002a49565b9050919050565b600062002a928262002a49565b9050919050565b600073ffffffffffffffffffffffffffffffffffffffff82169050919050565b6000819050919050565b600062002ad08262002b4f565b9050919050565b600062002ae48262002aeb565b9050919050565b600062002af88262002a99565b9050919050565b600062002b0c8262002b13565b9050919050565b600062002b208262002a99565b9050919050565b600062002b348262002b3b565b9050919050565b600062002b488262002a99565b9050919050565b600062002b5c8262002b63565b9050919050565b600062002b708262002a99565b9050919050565b82818337600083830152505050565b60005b8381101562002ba657808201518184015260208101905062002b89565b8381111562002bb6576000848401525b50505050565b600062002bd362002bcd8362002c00565b62002a29565b9050919050565b600062002be8825462002bbc565b9050919050565b6000601f19601f8301169050919050565b60008160001c9050919050565b62002c188162002a49565b811462002c2457600080fd5b50565b62002c328162002a5d565b811462002c3e57600080fd5b50565b62002c4c8162002a71565b811462002c5857600080fd5b50565b62002c668162002a85565b811462002c7257600080fd5b50565b62002c808162002ab9565b811462002c8c57600080fd5b5056fe60806040526040518060800160405280600160ff168152602001600260ff168152602001600360ff168152602001600460ff168152506004906004610045929190610058565b5034801561005257600080fd5b506100cf565b828054828255906000526020600020908101928215610099579160200282015b82811115610098578251829060ff16905591602001919060010190610078565b5b5090506100a691906100aa565b5090565b6100cc91905b808211156100c85760008160009055506001016100b0565b5090565b90565b612ef4806100de6000396000f3fe608060405234801561001057600080fd5b50600436106100cf5760003560e01c806351d332311161008c578063c5d1637511610066578063c5d1637514610238578063ec5d9e5814610256578063faead81214610274578063fe794b00146102a4576100cf565b806351d33231146101bc57806371e5ee5f146101ec5780638c74a77b1461021c576100cf565b806306ead22e146100d4578063137c3f7d146101045780632bff309a146101205780632ce349be1461015057806330dc15531461018057806351c165d51461019e575b600080fd5b6100ee60048036036100e99190810190610a98565b6102c0565b6040516100fb9190610c74565b60405180910390f35b61011e60048036036101199190810190610a1d565b6102fc565b005b61013a60048036036101359190810190610a98565b6105ae565b6040516101479190610d15565b60405180910390f35b61016a60048036036101659190810190610a98565b61061a565b6040516101779190610d15565b60405180910390f35b61018861063b565b6040516101959190610d15565b60405180910390f35b6101a6610648565b6040516101b39190610d15565b60405180910390f35b6101d660048036036101d19190810190610a98565b610655565b6040516101e39190610c59565b60405180910390f35b61020660048036036102019190810190610a98565b6106ab565b6040516102139190610d15565b60405180910390f35b61023660048036036102319190810190610a98565b6106cc565b005b610240610746565b60405161024d9190610c3e565b60405180910390f35b61025e61076c565b60405161026b9190610c8f565b60405180910390f35b61028e60048036036102899190810190610a98565b61080a565b60405161029b9190610c3e565b60405180910390f35b6102be60048036036102b991908101906109c9565b61083d565b005b600581815481106102cd57fe5b906000526020600020016000915054906101000a900473ffffffffffffffffffffffffffffffffffffffff1681565b600060405161030a90610899565b604051809103906000f080158015610326573d6000803e3d6000fd5b5090508073ffffffffffffffffffffffffffffffffffffffff16638a79aa70866040518263ffffffff1660e01b81526004016103629190610cb1565b600060405180830381600087803b15801561037c57600080fd5b505af1158015610390573d6000803e3d6000fd5b505050508073ffffffffffffffffffffffffffffffffffffffff16635d37eeb7846040518263ffffffff1660e01b81526004016103cd9190610c3e565b600060405180830381600087803b1580156103e757600080fd5b505af11580156103fb573d6000803e3d6000fd5b505050508073ffffffffffffffffffffffffffffffffffffffff1663893ec75b856040518263ffffffff1660e01b81526004016104389190610d15565b600060405180830381600087803b15801561045257600080fd5b505af1158015610466573d6000803e3d6000fd5b505050508073ffffffffffffffffffffffffffffffffffffffff166396c58de060006040518263ffffffff1660e01b81526004016104a49190610cd3565b600060405180830381600087803b1580156104be57600080fd5b505af11580156104d2573d6000803e3d6000fd5b505050508073ffffffffffffffffffffffffffffffffffffffff1663506283cd836040518263ffffffff1660e01b815260040161050f9190610c3e565b600060405180830381600087803b15801561052957600080fd5b505af115801561053d573d6000803e3d6000fd5b5050505060058190806001815401808255809150509060018203906000526020600020016000909192909190916101000a81548173ffffffffffffffffffffffffffffffffffffffff021916908373ffffffffffffffffffffffffffffffffffffffff160217905550505050505050565b600080600090505b60028054905081101561060f5782600282815481106105d157fe5b9060005260206000200154141561060257600281815481106105ef57fe5b9060005260206000200154915050610615565b80806001019150506105b6565b50600090505b919050565b6002818154811061062757fe5b906000526020600020016000915090505481565b6000600580549050905090565b6000600280549050905090565b600080600090505b6002805490508110156106a057826002828154811061067857fe5b906000526020600020015414156106935760019150506106a6565b808060010191505061065d565b50600090505b919050565b600481815481106106b857fe5b906000526020600020016000915090505481565b6106d5816105ae565b811415610717576040517f08c379a000000000000000000000000000000000000000000000000000000000815260040161070e90610cf5565b60405180910390fd5b600281908060018154018082558091505090600182039060005260206000200160009091929091909150555050565b600160009054906101000a900473ffffffffffffffffffffffffffffffffffffffff1681565b60008054600181600116156101000203166002900480601f0160208091040260200160405190810160405280929190818152602001828054600181600116156101000203166002900480156108025780601f106107d757610100808354040283529160200191610802565b820191906000526020600020905b8154815290600101906020018083116107e557829003601f168201915b505050505081565b60036020528060005260406000206000915054906101000a900473ffffffffffffffffffffffffffffffffffffffff1681565b81600090805190602001906108539291906108a6565b5080600160006101000a81548173ffffffffffffffffffffffffffffffffffffffff021916908373ffffffffffffffffffffffffffffffffffffffff1602179055505050565b611fff80610eb383390190565b828054600181600116156101000203166002900490600052602060002090601f016020900481019282601f106108e757805160ff1916838001178555610915565b82800160010185558215610915579182015b828111156109145782518255916020019190600101906108f9565b5b5090506109229190610926565b5090565b61094891905b8082111561094457600081600090555060010161092c565b5090565b90565b60008135905061095a81610e84565b92915050565b600082601f83011261097157600080fd5b813561098461097f82610d5d565b610d30565b915080825260208301602083018583830111156109a057600080fd5b6109ab838284610e31565b50505092915050565b6000813590506109c381610e9b565b92915050565b600080604083850312156109dc57600080fd5b600083013567ffffffffffffffff8111156109f657600080fd5b610a0285828601610960565b9250506020610a138582860161094b565b9150509250929050565b60008060008060808587031215610a3357600080fd5b600085013567ffffffffffffffff811115610a4d57600080fd5b610a5987828801610960565b9450506020610a6a878288016109b4565b9350506040610a7b8782880161094b565b9250506060610a8c8782880161094b565b91505092959194509250565b600060208284031215610aaa57600080fd5b6000610ab8848285016109b4565b91505092915050565b610aca81610dc5565b82525050565b610ad981610dd7565b82525050565b610ae881610e0d565b82525050565b6000610af982610da9565b610b038185610db4565b9350610b13818560208601610e40565b610b1c81610e73565b840191505092915050565b6000610b3282610d9e565b610b3c8185610db4565b9350610b4c818560208601610e40565b610b5581610e73565b840191505092915050565b600081546001811660008114610b7d5760018114610ba357610be7565b607f6002830416610b8e8187610db4565b955060ff198316865260208601935050610be7565b60028204610bb18187610db4565b9550610bbc85610d89565b60005b82811015610bde57815481890152600182019150602081019050610bbf565b80880195505050505b505092915050565b6000610bfc601183610db4565b91507f494420616c7265616479206578697374730000000000000000000000000000006000830152602082019050919050565b610c3881610e03565b82525050565b6000602082019050610c536000830184610ac1565b92915050565b6000602082019050610c6e6000830184610ad0565b92915050565b6000602082019050610c896000830184610adf565b92915050565b60006020820190508181036000830152610ca98184610b27565b905092915050565b60006020820190508181036000830152610ccb8184610aee565b905092915050565b60006020820190508181036000830152610ced8184610b60565b905092915050565b60006020820190508181036000830152610d0e81610bef565b9050919050565b6000602082019050610d2a6000830184610c2f565b92915050565b6000604051905081810181811067ffffffffffffffff82111715610d5357600080fd5b8060405250919050565b600067ffffffffffffffff821115610d7457600080fd5b601f19601f8301169050602081019050919050565b60008190508160005260206000209050919050565b600081519050919050565b600081519050919050565b600082825260208201905092915050565b6000610dd082610de3565b9050919050565b60008115159050919050565b600073ffffffffffffffffffffffffffffffffffffffff82169050919050565b6000819050919050565b6000610e1882610e1f565b9050919050565b6000610e2a82610de3565b9050919050565b82818337600083830152505050565b60005b83811015610e5e578082015181840152602081019050610e43565b83811115610e6d576000848401525b50505050565b6000601f19601f8301169050919050565b610e8d81610dc5565b8114610e9857600080fd5b50565b610ea481610e03565b8114610eaf57600080fd5b5056fe608060405234801561001057600080fd5b50611fdf806100206000396000f3fe608060405234801561001057600080fd5b50600436106101005760003560e01c806368a969971161009757806396c58de01161006657806396c58de01461050b578063af991a05146105c6578063ec3615cd14610608578063f7692bea1461068b57610100565b806368a96997146103ba5780636af6d78c14610404578063893ec75b146104225780638a79aa701461045057610100565b8063506283cd116100d3578063506283cd1461025e57806351640fee146102a257806359519536146103105780635d37eeb71461037657610100565b8063331a01fd146101055780633c0359a4146101885780633e78c7c0146101f65780634cd0574214610240575b600080fd5b61010d610827565b6040518080602001828103825283818151815260200191508051906020019080838360005b8381101561014d578082015181840152602081019050610132565b50505050905090810190601f16801561017a5780820380516001836020036101000a031916815260200191505b509250505060405180910390f35b6101b46004803603602081101561019e57600080fd5b81019080803590602001909291905050506108c5565b604051808273ffffffffffffffffffffffffffffffffffffffff1673ffffffffffffffffffffffffffffffffffffffff16815260200191505060405180910390f35b6101fe610901565b604051808273ffffffffffffffffffffffffffffffffffffffff1673ffffffffffffffffffffffffffffffffffffffff16815260200191505060405180910390f35b610248610927565b6040518082815260200191505060405180910390f35b6102a06004803603602081101561027457600080fd5b81019080803573ffffffffffffffffffffffffffffffffffffffff16906020019092919050505061092d565b005b6102ce600480360360208110156102b857600080fd5b8101908080359060200190929190505050610971565b604051808273ffffffffffffffffffffffffffffffffffffffff1673ffffffffffffffffffffffffffffffffffffffff16815260200191505060405180910390f35b61035c6004803603604081101561032657600080fd5b81019080803573ffffffffffffffffffffffffffffffffffffffff16906020019092919080359060200190929190505050610a99565b604051808215151515815260200191505060405180910390f35b6103b86004803603602081101561038c57600080fd5b81019080803573ffffffffffffffffffffffffffffffffffffffff169060200190929190505050610b68565b005b6103c2610bac565b604051808273ffffffffffffffffffffffffffffffffffffffff1673ffffffffffffffffffffffffffffffffffffffff16815260200191505060405180910390f35b61040c610bd2565b6040518082815260200191505060405180910390f35b61044e6004803603602081101561043857600080fd5b8101908080359060200190929190505050610bdf565b005b6105096004803603602081101561046657600080fd5b810190808035906020019064010000000081111561048357600080fd5b82018360208201111561049557600080fd5b803590602001918460018302840111640100000000831117156104b757600080fd5b91908080601f016020809104026020016040519081016040528093929190818152602001838380828437600081840152601f19601f820116905080830192505050505050509192919290505050610be9565b005b6105c46004803603602081101561052157600080fd5b810190808035906020019064010000000081111561053e57600080fd5b82018360208201111561055057600080fd5b8035906020019184600183028401116401000000008311171561057257600080fd5b91908080601f016020809104026020016040519081016040528093929190818152602001838380828437600081840152601f19601f820116905080830192505050505050509192919290505050610c03565b005b6105f2600480360360208110156105dc57600080fd5b8101908080359060200190929190505050610c1d565b6040518082815260200191505060405180910390f35b610610610c3e565b6040518080602001828103825283818151815260200191508051906020019080838360005b83811015610650578082015181840152602081019050610635565b50505050905090810190601f16801561067d5780820380516001836020036101000a031916815260200191505b509250505060405180910390f35b610825600480360360a08110156106a157600080fd5b81019080803590602001906401000000008111156106be57600080fd5b8201836020820111156106d057600080fd5b803590602001918460018302840111640100000000831117156106f257600080fd5b91908080601f016020809104026020016040519081016040528093929190818152602001838380828437600081840152601f19601f8201169050808301925050505050505091929192908035906020019064010000000081111561075557600080fd5b82018360208201111561076757600080fd5b8035906020019184600183028401116401000000008311171561078957600080fd5b91908080601f016020809104026020016040519081016040528093929190818152602001838380828437600081840152601f19601f82011690508083019250505050505050919291929080359060200190929190803573ffffffffffffffffffffffffffffffffffffffff169060200190929190803573ffffffffffffffffffffffffffffffffffffffff169060200190929190505050610cdc565b005b60018054600181600116156101000203166002900480601f0160208091040260200160405190810160405280929190818152602001828054600181600116156101000203166002900480156108bd5780601f10610892576101008083540402835291602001916108bd565b820191906000526020600020905b8154815290600101906020018083116108a057829003601f168201915b505050505081565b600581815481106108d257fe5b906000526020600020016000915054906101000a900473ffffffffffffffffffffffffffffffffffffffff1681565b600260009054906101000a900473ffffffffffffffffffffffffffffffffffffffff1681565b60035481565b80600460006101000a81548173ffffffffffffffffffffffffffffffffffffffff021916908373ffffffffffffffffffffffffffffffffffffffff16021790555050565b600080600090505b600580549050811015610a9257826005828154811061099457fe5b9060005260206000200160009054906101000a900473ffffffffffffffffffffffffffffffffffffffff1673ffffffffffffffffffffffffffffffffffffffff16636bcda13b6040518163ffffffff1660e01b815260040160206040518083038186803b158015610a0457600080fd5b505afa158015610a18573d6000803e3d6000fd5b505050506040513d6020811015610a2e57600080fd5b81019080805190602001909291905050501415610a855760058181548110610a5257fe5b9060005260206000200160009054906101000a900473ffffffffffffffffffffffffffffffffffffffff16915050610a94565b8080600101915050610979565b505b919050565b600080610aa583610971565b90508073ffffffffffffffffffffffffffffffffffffffff1663e6e6b7c1856040518263ffffffff1660e01b8152600401808273ffffffffffffffffffffffffffffffffffffffff1673ffffffffffffffffffffffffffffffffffffffff16815260200191505060206040518083038186803b158015610b2457600080fd5b505afa158015610b38573d6000803e3d6000fd5b505050506040513d6020811015610b4e57600080fd5b810190808051906020019092919050505091505092915050565b80600260006101000a81548173ffffffffffffffffffffffffffffffffffffffff021916908373ffffffffffffffffffffffffffffffffffffffff16021790555050565b600460009054906101000a900473ffffffffffffffffffffffffffffffffffffffff1681565b6000600580549050905090565b8060038190555050565b8060009080519060200190610bff9291906111fe565b5050565b8060019080519060200190610c199291906111fe565b5050565b60068181548110610c2a57fe5b906000526020600020016000915090505481565b60008054600181600116156101000203166002900480601f016020809104026020016040519081016040528092919081815260200182805460018160011615610100020316600290048015610cd45780601f10610ca957610100808354040283529160200191610cd4565b820191906000526020600020905b815481529060010190602001808311610cb757829003601f168201915b505050505081565b6000604051610cea9061127e565b604051809103906000f080158015610d06573d6000803e3d6000fd5b5090508073ffffffffffffffffffffffffffffffffffffffff1663d6edce1c876040518263ffffffff1660e01b81526004018080602001828103825283818151815260200191508051906020019080838360005b83811015610d75578082015181840152602081019050610d5a565b50505050905090810190601f168015610da25780820380516001836020036101000a031916815260200191505b5092505050600060405180830381600087803b158015610dc157600080fd5b505af1158015610dd5573d6000803e3d6000fd5b505050508073ffffffffffffffffffffffffffffffffffffffff1663565eeb5a866040518263ffffffff1660e01b81526004018080602001828103825283818151815260200191508051906020019080838360005b83811015610e45578082015181840152602081019050610e2a565b50505050905090810190601f168015610e725780820380516001836020036101000a031916815260200191505b5092505050600060405180830381600087803b158015610e9157600080fd5b505af1158015610ea5573d6000803e3d6000fd5b505050508073ffffffffffffffffffffffffffffffffffffffff1663cea1e858856040518263ffffffff1660e01b815260040180828152602001915050600060405180830381600087803b158015610efc57600080fd5b505af1158015610f10573d6000803e3d6000fd5b505050508073ffffffffffffffffffffffffffffffffffffffff166399aad941846040518263ffffffff1660e01b8152600401808273ffffffffffffffffffffffffffffffffffffffff1673ffffffffffffffffffffffffffffffffffffffff168152602001915050600060405180830381600087803b158015610f9357600080fd5b505af1158015610fa7573d6000803e3d6000fd5b505050508073ffffffffffffffffffffffffffffffffffffffff1663f98500086040518163ffffffff1660e01b8152600401600060405180830381600087803b158015610ff357600080fd5b505af1158015611007573d6000803e3d6000fd5b505050508073ffffffffffffffffffffffffffffffffffffffff16638a79aa7060006040518263ffffffff1660e01b815260040180806020018281038252838181546001816001161561010002031660029004815260200191508054600181600116156101000203166002900480156110c15780601f10611096576101008083540402835291602001916110c1565b820191906000526020600020905b8154815290600101906020018083116110a457829003601f168201915b505092505050600060405180830381600087803b1580156110e157600080fd5b505af11580156110f5573d6000803e3d6000fd5b505050508073ffffffffffffffffffffffffffffffffffffffff1663e5d235f4836040518263ffffffff1660e01b8152600401808273ffffffffffffffffffffffffffffffffffffffff1673ffffffffffffffffffffffffffffffffffffffff168152602001915050600060405180830381600087803b15801561117857600080fd5b505af115801561118c573d6000803e3d6000fd5b5050505060058190806001815401808255809150509060018203906000526020600020016000909192909190916101000a81548173ffffffffffffffffffffffffffffffffffffffff021916908373ffffffffffffffffffffffffffffffffffffffff16021790555050505050505050565b828054600181600116156101000203166002900490600052602060002090601f016020900481019282601f1061123f57805160ff191683800117855561126d565b8280016001018555821561126d579182015b8281111561126c578251825591602001919060010190611251565b5b50905061127a919061128b565b5090565b610cfa806112b183390190565b6112ad91905b808211156112a9576000816000905550600101611291565b5090565b9056fe608060405234801561001057600080fd5b50610cda806100206000396000f3fe608060405234801561001057600080fd5b50600436106101165760003560e01c8063a982bd50116100a2578063d40afd8b11610071578063d40afd8b146105e2578063d6edce1c1461062c578063e5d235f4146106e7578063e6e6b7c11461072b578063f98500081461078757610116565b8063a982bd501461047f578063b508ba31146104c3578063bf088e5714610546578063cea1e858146105b457610116565b8063557084ce116100e9578063557084ce14610224578063565eeb5a146102a75780636bcda13b146103625780638a79aa701461038057806399aad9411461043b57610116565b8063091841f11461011b5780631f4591dd1461019e5780632b64818f146101e8578063323046b114610206575b600080fd5b610123610791565b6040518080602001828103825283818151815260200191508051906020019080838360005b83811015610163578082015181840152602081019050610148565b50505050905090810190601f1680156101905780820380516001836020036101000a031916815260200191505b509250505060405180910390f35b6101a661082f565b604051808273ffffffffffffffffffffffffffffffffffffffff1673ffffffffffffffffffffffffffffffffffffffff16815260200191505060405180910390f35b6101f0610855565b6040518082815260200191505060405180910390f35b61020e610862565b6040518082815260200191505060405180910390f35b61022c610868565b6040518080602001828103825283818151815260200191508051906020019080838360005b8381101561026c578082015181840152602081019050610251565b50505050905090810190601f1680156102995780820380516001836020036101000a031916815260200191505b509250505060405180910390f35b610360600480360360208110156102bd57600080fd5b81019080803590602001906401000000008111156102da57600080fd5b8201836020820111156102ec57600080fd5b8035906020019184600183028401116401000000008311171561030e57600080fd5b91908080601f016020809104026020016040519081016040528093929190818152602001838380828437600081840152601f19601f820116905080830192505050505050509192919290505050610906565b005b61036a610920565b6040518082815260200191505060405180910390f35b6104396004803603602081101561039657600080fd5b81019080803590602001906401000000008111156103b357600080fd5b8201836020820111156103c557600080fd5b803590602001918460018302840111640100000000831117156103e757600080fd5b91908080601f016020809104026020016040519081016040528093929190818152602001838380828437600081840152601f19601f820116905080830192505050505050509192919290505050610926565b005b61047d6004803603602081101561045157600080fd5b81019080803573ffffffffffffffffffffffffffffffffffffffff169060200190929190505050610940565b005b6104c16004803603602081101561049557600080fd5b81019080803573ffffffffffffffffffffffffffffffffffffffff169060200190929190505050610984565b005b6104cb6109ed565b6040518080602001828103825283818151815260200191508051906020019080838360005b8381101561050b5780820151818401526020810190506104f0565b50505050905090810190601f1680156105385780820380516001836020036101000a031916815260200191505b509250505060405180910390f35b6105726004803603602081101561055c57600080fd5b8101908080359060200190929190505050610a8b565b604051808273ffffffffffffffffffffffffffffffffffffffff1673ffffffffffffffffffffffffffffffffffffffff16815260200191505060405180910390f35b6105e0600480360360208110156105ca57600080fd5b8101908080359060200190929190505050610ac7565b005b6105ea610ad1565b604051808273ffffffffffffffffffffffffffffffffffffffff1673ffffffffffffffffffffffffffffffffffffffff16815260200191505060405180910390f35b6106e56004803603602081101561064257600080fd5b810190808035906020019064010000000081111561065f57600080fd5b82018360208201111561067157600080fd5b8035906020019184600183028401116401000000008311171561069357600080fd5b91908080601f016020809104026020016040519081016040528093929190818152602001838380828437600081840152601f19601f820116905080830192505050505050509192919290505050610af7565b005b610729600480360360208110156106fd57600080fd5b81019080803573ffffffffffffffffffffffffffffffffffffffff169060200190929190505050610b11565b005b61076d6004803603602081101561074157600080fd5b81019080803573ffffffffffffffffffffffffffffffffffffffff169060200190929190505050610b55565b604051808215151515815260200191505060405180910390f35b61078f610bf7565b005b60018054600181600116156101000203166002900480601f0160208091040260200160405190810160405280929190818152602001828054600181600116156101000203166002900480156108275780601f106107fc57610100808354040283529160200191610827565b820191906000526020600020905b81548152906001019060200180831161080a57829003601f168201915b505050505081565b600760009054906101000a900473ffffffffffffffffffffffffffffffffffffffff1681565b6000600280549050905090565b60065481565b60008054600181600116156101000203166002900480601f0160208091040260200160405190810160405280929190818152602001828054600181600116156101000203166002900480156108fe5780601f106108d3576101008083540402835291602001916108fe565b820191906000526020600020905b8154815290600101906020018083116108e157829003601f168201915b505050505081565b806001908051906020019061091c929190610c00565b5050565b60035481565b806005908051906020019061093c929190610c00565b5050565b80600460006101000a81548173ffffffffffffffffffffffffffffffffffffffff021916908373ffffffffffffffffffffffffffffffffffffffff16021790555050565b60028190806001815401808255809150509060018203906000526020600020016000909192909190916101000a81548173ffffffffffffffffffffffffffffffffffffffff021916908373ffffffffffffffffffffffffffffffffffffffff1602179055505050565b60058054600181600116156101000203166002900480601f016020809104026020016040519081016040528092919081815260200182805460018160011615610100020316600290048015610a835780601f10610a5857610100808354040283529160200191610a83565b820191906000526020600020905b815481529060010190602001808311610a6657829003601f168201915b505050505081565b60028181548110610a9857fe5b906000526020600020016000915054906101000a900473ffffffffffffffffffffffffffffffffffffffff1681565b8060038190555050565b600460009054906101000a900473ffffffffffffffffffffffffffffffffffffffff1681565b8060009080519060200190610b0d929190610c00565b5050565b80600760006101000a81548173ffffffffffffffffffffffffffffffffffffffff021916908373ffffffffffffffffffffffffffffffffffffffff16021790555050565b600080600090505b600280549050811015610bec578273ffffffffffffffffffffffffffffffffffffffff1660028281548110610b8e57fe5b9060005260206000200160009054906101000a900473ffffffffffffffffffffffffffffffffffffffff1673ffffffffffffffffffffffffffffffffffffffff161415610bdf576001915050610bf2565b8080600101915050610b5d565b50600090505b919050565b42600681905550565b828054600181600116156101000203166002900490600052602060002090601f016020900481019282601f10610c4157805160ff1916838001178555610c6f565b82800160010185558215610c6f579182015b82811115610c6e578251825591602001919060010190610c53565b5b509050610c7c9190610c80565b5090565b610ca291905b80821115610c9e576000816000905550600101610c86565b5090565b9056fea265627a7a72315820f29f672dfef226ea937a7a7c1a082147ca9d1126f9ced13b786c4fd8a3cc44cb64736f6c63430005100032a265627a7a72315820590d26624f6ddab6f2bd04397b9e1ef49f5406be4a31b9a9e9fd59f5916e79d264736f6c63430005100032a365627a7a7231582093acff7fa9672b4a7424a56d18085a1b1bb3e9ca731e4516f6c2a7f8410f2e1f6c6578706572696d656e74616cf564736f6c63430005100040a365627a7a72315820943d984955022bfc3fea0e554c42f11e4169193191ca2e7da85fed46d2e163d56c6578706572696d656e74616cf564736f6c63430005100040608060405234801561001057600080fd5b50610d1d806100206000396000f3fe608060405234801561001057600080fd5b506004361061004c5760003560e01c806306ae6148146100515780631a11a723146100815780636458f542146100b1578063bd15c149146100e5575b600080fd5b61006b600480360361006691908101906108f1565b610115565b6040516100789190610a67565b60405180910390f35b61009b60048036036100969190810190610945565b61021b565b6040516100a89190610afe565b60405180910390f35b6100cb60048036036100c691908101906108f1565b6103ce565b6040516100dc959493929190610aa4565b60405180910390f35b6100ff60048036036100fa91908101906108b0565b610588565b60405161010c9190610a82565b60405180910390f35b600080600090505b8351811015610213573373ffffffffffffffffffffffffffffffffffffffff1684828151811061014957fe5b602002602001015173ffffffffffffffffffffffffffffffffffffffff1663c5d163756040518163ffffffff1660e01b815260040160206040518083038186803b15801561019657600080fd5b505afa1580156101aa573d6000803e3d6000fd5b505050506040513d601f19601f820116820180604052506101ce9190810190610887565b73ffffffffffffffffffffffffffffffffffffffff161415610206578381815181106101f657fe5b6020026020010151915050610215565b808060010191505061011d565b505b92915050565b6000806000905060008090505b8373ffffffffffffffffffffffffffffffffffffffff166330dc15536040518163ffffffff1660e01b815260040160206040518083038186803b15801561026e57600080fd5b505afa158015610282573d6000803e3d6000fd5b505050506040513d601f19601f820116820180604052506102a691908101906109d8565b8110156103c4578373ffffffffffffffffffffffffffffffffffffffff166306ead22e826040518263ffffffff1660e01b81526004016102e69190610afe565b60206040518083038186803b1580156102fe57600080fd5b505afa158015610312573d6000803e3d6000fd5b505050506040513d601f19601f82011682018060405250610336919081019061096e565b73ffffffffffffffffffffffffffffffffffffffff16636af6d78c6040518163ffffffff1660e01b815260040160206040518083038186803b15801561037b57600080fd5b505afa15801561038f573d6000803e3d6000fd5b505050506040513d601f19601f820116820180604052506103b391908101906109d8565b820191508080600101915050610228565b5080915050919050565b606060008060008060006103e28888610115565b90508073ffffffffffffffffffffffffffffffffffffffff1663ec5d9e586040518163ffffffff1660e01b815260040160006040518083038186803b15801561042a57600080fd5b505afa15801561043e573d6000803e3d6000fd5b505050506040513d6000823e3d601f19601f820116820180604052506104679190810190610997565b338273ffffffffffffffffffffffffffffffffffffffff166351c165d56040518163ffffffff1660e01b815260040160206040518083038186803b1580156104ae57600080fd5b505afa1580156104c2573d6000803e3d6000fd5b505050506040513d601f19601f820116820180604052506104e691908101906109d8565b8373ffffffffffffffffffffffffffffffffffffffff166330dc15536040518163ffffffff1660e01b815260040160206040518083038186803b15801561052c57600080fd5b505afa158015610540573d6000803e3d6000fd5b505050506040513d601f19601f8201168201806040525061056491908101906109d8565b61056d8561021b565b84945083935095509550955095509550509295509295909350565b606060008090505b8251811015610708573373ffffffffffffffffffffffffffffffffffffffff168382815181106105bc57fe5b602002602001015173ffffffffffffffffffffffffffffffffffffffff1663c5d163756040518163ffffffff1660e01b815260040160206040518083038186803b15801561060957600080fd5b505afa15801561061d573d6000803e3d6000fd5b505050506040513d601f19601f820116820180604052506106419190810190610887565b73ffffffffffffffffffffffffffffffffffffffff1614156106fb5782818151811061066957fe5b602002602001015173ffffffffffffffffffffffffffffffffffffffff1663ec5d9e586040518163ffffffff1660e01b815260040160006040518083038186803b1580156106b657600080fd5b505afa1580156106ca573d6000803e3d6000fd5b505050506040513d6000823e3d601f19601f820116820180604052506106f39190810190610997565b915050610742565b8080600101915050610590565b506040518060400160405280600281526020017f6e6f00000000000000000000000000000000000000000000000000000000000081525090505b919050565b60008135905061075681610c7e565b92915050565b60008151905061076b81610c7e565b92915050565b600082601f83011261078257600080fd5b813561079561079082610b46565b610b19565b915081818352602084019350602081019050838560208402820111156107ba57600080fd5b60005b838110156107ea57816107d088826107f4565b8452602084019350602083019250506001810190506107bd565b5050505092915050565b60008135905061080381610c95565b92915050565b60008151905061081881610cac565b92915050565b600082601f83011261082f57600080fd5b815161084261083d82610b6e565b610b19565b9150808252602083016020830185838301111561085e57600080fd5b610869838284610c3a565b50505092915050565b60008151905061088181610cc3565b92915050565b60006020828403121561089957600080fd5b60006108a78482850161075c565b91505092915050565b6000602082840312156108c257600080fd5b600082013567ffffffffffffffff8111156108dc57600080fd5b6108e884828501610771565b91505092915050565b6000806040838503121561090457600080fd5b600083013567ffffffffffffffff81111561091e57600080fd5b61092a85828601610771565b925050602061093b85828601610747565b9150509250929050565b60006020828403121561095757600080fd5b6000610965848285016107f4565b91505092915050565b60006020828403121561098057600080fd5b600061098e84828501610809565b91505092915050565b6000602082840312156109a957600080fd5b600082015167ffffffffffffffff8111156109c357600080fd5b6109cf8482850161081e565b91505092915050565b6000602082840312156109ea57600080fd5b60006109f884828501610872565b91505092915050565b610a0a81610bb6565b82525050565b610a1981610c16565b82525050565b6000610a2a82610b9a565b610a348185610ba5565b9350610a44818560208601610c3a565b610a4d81610c6d565b840191505092915050565b610a6181610c0c565b82525050565b6000602082019050610a7c6000830184610a10565b92915050565b60006020820190508181036000830152610a9c8184610a1f565b905092915050565b600060a0820190508181036000830152610abe8188610a1f565b9050610acd6020830187610a01565b610ada6040830186610a58565b610ae76060830185610a58565b610af46080830184610a58565b9695505050505050565b6000602082019050610b136000830184610a58565b92915050565b6000604051905081810181811067ffffffffffffffff82111715610b3c57600080fd5b8060405250919050565b600067ffffffffffffffff821115610b5d57600080fd5b602082029050602081019050919050565b600067ffffffffffffffff821115610b8557600080fd5b601f19601f8301169050602081019050919050565b600081519050919050565b600082825260208201905092915050565b6000610bc182610bec565b9050919050565b6000610bd382610bb6565b9050919050565b6000610be582610bb6565b9050919050565b600073ffffffffffffffffffffffffffffffffffffffff82169050919050565b6000819050919050565b6000610c2182610c28565b9050919050565b6000610c3382610bec565b9050919050565b60005b83811015610c58578082015181840152602081019050610c3d565b83811115610c67576000848401525b50505050565b6000601f19601f8301169050919050565b610c8781610bb6565b8114610c9257600080fd5b50565b610c9e81610bc8565b8114610ca957600080fd5b50565b610cb581610bda565b8114610cc057600080fd5b50565b610ccc81610c0c565b8114610cd757600080fd5b5056fea365627a7a7231582097723788e280457f082563837f1491b552d9a2a4b2c5505954ecb156581d77a56c6578706572696d656e74616cf564736f6c63430005100040",
  "source": "// SPDX-License-Identifier: MIT\r\npragma solidity >=0.4.21 <0.7.0;\r\npragma experimental ABIEncoderV2;\r\nimport \"./Organisation.sol\";\r\nimport \"./Student.sol\";\r\nimport \"./Company.sol\";\r\nimport \"./HelperOrg.sol\";\r\n\r\ncontract OverAll {\r\n    struct certificate {\r\n        string name;\r\n        uint256 uniqueId;\r\n        address issuedTo;\r\n        uint256 date;\r\n        address issuedBy;\r\n    }\r\n    HelperOrg public helper = new HelperOrg();\r\n    Organisation[] public Orgaganisations;\r\n\r\n    Company[] public Companies;\r\n    struct organisation {\r\n        string name;\r\n        address addr;\r\n    }\r\n    struct student {\r\n        string name;\r\n        address addr;\r\n        uint256 studentUniqueId;\r\n        uint256 noOfCertificates;\r\n    }\r\n\r\n    // addd organisation\r\n    function addOrganisation(string memory name) public {\r\n        Organisation org = new Organisation();\r\n        org.addOrganisation(name, msg.sender);\r\n        Orgaganisations.push(org);\r\n    }\r\n\r\n    // length of organisation\r\n\r\n    function organisationsLength() public view returns (uint256) {\r\n        return Orgaganisations.length;\r\n    }\r\n\r\n    function checkOrganisation() public view returns (string memory) {\r\n        return helper.checkOrganisation(Orgaganisations);\r\n    }\r\n\r\n    function getOrganisation() public view returns (Organisation) {\r\n        return helper.getOrganisation(Orgaganisations, msg.sender);\r\n    }\r\n\r\n    function getAllOrganisations() public view returns (organisation[] memory) {\r\n        organisation[] memory orgs = new organisation[](Orgaganisations.length);\r\n        for (uint256 i = 0; i < Orgaganisations.length; i++) {\r\n            orgs[i].name = Orgaganisations[i].organisationName();\r\n            orgs[i].addr = Orgaganisations[i].organisationAddress();\r\n        }\r\n        return orgs;\r\n    }\r\n\r\n    function getOrganisationDetails()\r\n        public\r\n        view\r\n        returns (\r\n            string memory,\r\n            address,\r\n            uint256,\r\n            uint256,\r\n            uint256\r\n        )\r\n    {\r\n        return helper.getOrganisationDetails(Orgaganisations, msg.sender);\r\n    }\r\n\r\n    function getAllStudents() public view returns (student[] memory) {\r\n        Organisation org = getOrganisation();\r\n        student[] memory allStudents = new student[](org.noOfStudents());\r\n        for (uint256 i = 0; i < org.noOfStudents(); i++) {\r\n            student memory s = student(\r\n                org.students(i).student_name(),\r\n                org.students(i).student_acc_address(),\r\n                org.students(i).student_unique_id(),\r\n                org.students(i).noOfCertificates()\r\n            );\r\n            allStudents[i] = s;\r\n        }\r\n        return allStudents;\r\n    }\r\n\r\n    // add student\r\n    function addStudent(\r\n        string memory _name,\r\n        uint256 _uid,\r\n        address _orgAddr\r\n    ) public {\r\n        Organisation org = helper.getOrganisation(Orgaganisations, msg.sender);\r\n        org.addStudent(_name, _uid, msg.sender, _orgAddr);\r\n\r\n        // has to done\r\n        //   studentToOrganisationArray.push(\r\n        //     studentToOrganisation(msg.sender, _orgAddr)\r\n    }\r\n\r\n    function getAllCertificates() public view returns (certificate[] memory) {\r\n        Organisation org = getOrganisation();\r\n        certificate[] memory allCertificates = new certificate[](\r\n            helper.totalCertificates(org)\r\n        );\r\n        uint256 k = 0;\r\n        for (uint256 i = 0; i < org.noOfStudents(); i++) {\r\n            for (uint256 j = 0; j < org.students(i).noOfCertificates(); j++) {\r\n                certificate memory c = certificate(\r\n                    org.students(i).certifications(j).studentName(),\r\n                    org.students(i).certifications(j).certification_unique_id(),\r\n                    org.students(i).certifications(j).issued_to(),\r\n                    org.students(i).certifications(j).date(),\r\n                    org.students(i).certifications(j).issuedBy()\r\n                );\r\n                allCertificates[k] = c;\r\n                k++;\r\n            }\r\n        }\r\n        return allCertificates;\r\n    }\r\n}\r\n",
  "sourcePath": "D:\\user_cherry\\User\\Projects\\miniprojectF\\contracts\\OverAll.sol",
  "compiler": {
    "name": "solc",
    "version": "0.5.16+commit.9c3226ce.Emscripten.clang"
  },
  "schemaVersion": "3.2.3",
  "updatedAt": "2022-05-30T16:35:38.031Z",
  "networkType": "ethereum",
  "devdoc": {
    "methods": {}
  },
  "userdoc": {
    "methods": {}
  }
}