{
  "contractName": "OverAllTem",
  "abi": [
    {
      "constant": true,
      "inputs": [
        {
          "internalType": "uint256",
          "name": "",
          "type": "uint256"
        }
      ],
      "name": "Companies",
      "outputs": [
        {
          "internalType": "contract Company",
          "name": "",
          "type": "address"
        }
      ],
      "payable": false,
      "stateMutability": "view",
      "type": "function"
    },
    {
      "constant": true,
      "inputs": [
        {
          "internalType": "uint256",
          "name": "",
          "type": "uint256"
        }
      ],
      "name": "Orgaganisations",
      "outputs": [
        {
          "internalType": "contract Organisation",
          "name": "",
          "type": "address"
        }
      ],
      "payable": false,
      "stateMutability": "view",
      "type": "function"
    },
    {
      "constant": true,
      "inputs": [
        {
          "internalType": "uint256",
          "name": "",
          "type": "uint256"
        }
      ],
      "name": "studentToOrganisationArray",
      "outputs": [
        {
          "internalType": "address",
          "name": "_studentAdd",
          "type": "address"
        },
        {
          "internalType": "address",
          "name": "_orgAddress",
          "type": "address"
        }
      ],
      "payable": false,
      "stateMutability": "view",
      "type": "function"
    },
    {
      "constant": true,
      "inputs": [
        {
          "internalType": "address",
          "name": "_stAddress",
          "type": "address"
        }
      ],
      "name": "getStudentOrgAddress",
      "outputs": [
        {
          "internalType": "address",
          "name": "",
          "type": "address"
        }
      ],
      "payable": false,
      "stateMutability": "view",
      "type": "function"
    },
    {
      "constant": true,
      "inputs": [
        {
          "internalType": "address",
          "name": "_orgAddress",
          "type": "address"
        }
      ],
      "name": "getOrganisationByAddress",
      "outputs": [
        {
          "internalType": "contract Organisation",
          "name": "",
          "type": "address"
        }
      ],
      "payable": false,
      "stateMutability": "view",
      "type": "function"
    },
    {
      "constant": false,
      "inputs": [
        {
          "internalType": "string",
          "name": "_ipfs",
          "type": "string"
        },
        {
          "internalType": "string",
          "name": "_merklee",
          "type": "string"
        },
        {
          "internalType": "uint256",
          "name": "cUnique",
          "type": "uint256"
        },
        {
          "internalType": "address",
          "name": "sUnique",
          "type": "address"
        }
      ],
      "name": "addCertificate",
      "outputs": [],
      "payable": false,
      "stateMutability": "nonpayable",
      "type": "function"
    },
    {
      "constant": true,
      "inputs": [],
      "name": "getStudentDetail",
      "outputs": [
        {
          "internalType": "string",
          "name": "",
          "type": "string"
        },
        {
          "internalType": "uint256",
          "name": "",
          "type": "uint256"
        },
        {
          "internalType": "string",
          "name": "",
          "type": "string"
        },
        {
          "internalType": "address",
          "name": "",
          "type": "address"
        },
        {
          "internalType": "uint256",
          "name": "",
          "type": "uint256"
        }
      ],
      "payable": false,
      "stateMutability": "view",
      "type": "function"
    },
    {
      "constant": false,
      "inputs": [
        {
          "internalType": "string",
          "name": "_name",
          "type": "string"
        },
        {
          "internalType": "uint256",
          "name": "_uid",
          "type": "uint256"
        },
        {
          "internalType": "address",
          "name": "_orgAddr",
          "type": "address"
        }
      ],
      "name": "addStudent",
      "outputs": [],
      "payable": false,
      "stateMutability": "nonpayable",
      "type": "function"
    },
    {
      "constant": false,
      "inputs": [
        {
          "internalType": "string",
          "name": "_companyName",
          "type": "string"
        }
      ],
      "name": "addCompany",
      "outputs": [],
      "payable": false,
      "stateMutability": "nonpayable",
      "type": "function"
    },
    {
      "constant": true,
      "inputs": [],
      "name": "getAllOrganisations",
      "outputs": [
        {
          "components": [
            {
              "internalType": "string",
              "name": "name",
              "type": "string"
            },
            {
              "internalType": "address",
              "name": "addr",
              "type": "address"
            }
          ],
          "internalType": "struct OverAllTem.organisation[]",
          "name": "",
          "type": "tuple[]"
        }
      ],
      "payable": false,
      "stateMutability": "view",
      "type": "function"
    },
    {
      "constant": false,
      "inputs": [
        {
          "internalType": "string",
          "name": "_organisationName",
          "type": "string"
        }
      ],
      "name": "addOrganisation",
      "outputs": [],
      "payable": false,
      "stateMutability": "nonpayable",
      "type": "function"
    },
    {
      "constant": true,
      "inputs": [],
      "name": "checkOrganisation",
      "outputs": [
        {
          "internalType": "string",
          "name": "",
          "type": "string"
        }
      ],
      "payable": false,
      "stateMutability": "view",
      "type": "function"
    },
    {
      "constant": true,
      "inputs": [],
      "name": "checkStudent",
      "outputs": [
        {
          "internalType": "string",
          "name": "",
          "type": "string"
        }
      ],
      "payable": false,
      "stateMutability": "view",
      "type": "function"
    },
    {
      "constant": true,
      "inputs": [],
      "name": "getOrganisation",
      "outputs": [
        {
          "internalType": "contract Organisation",
          "name": "",
          "type": "address"
        }
      ],
      "payable": false,
      "stateMutability": "view",
      "type": "function"
    },
    {
      "constant": true,
      "inputs": [],
      "name": "getOrganisationDetails",
      "outputs": [
        {
          "internalType": "string",
          "name": "",
          "type": "string"
        },
        {
          "internalType": "address",
          "name": "",
          "type": "address"
        },
        {
          "internalType": "uint256",
          "name": "",
          "type": "uint256"
        },
        {
          "internalType": "uint256",
          "name": "",
          "type": "uint256"
        },
        {
          "internalType": "uint256",
          "name": "",
          "type": "uint256"
        }
      ],
      "payable": false,
      "stateMutability": "view",
      "type": "function"
    },
    {
      "constant": true,
      "inputs": [],
      "name": "getAllStudents",
      "outputs": [
        {
          "components": [
            {
              "internalType": "string",
              "name": "name",
              "type": "string"
            },
            {
              "internalType": "address",
              "name": "addr",
              "type": "address"
            },
            {
              "internalType": "uint256",
              "name": "studentUniqueId",
              "type": "uint256"
            },
            {
              "internalType": "uint256",
              "name": "noOfCertificates",
              "type": "uint256"
            }
          ],
          "internalType": "struct OverAllTem.student[]",
          "name": "",
          "type": "tuple[]"
        }
      ],
      "payable": false,
      "stateMutability": "view",
      "type": "function"
    },
    {
      "constant": true,
      "inputs": [],
      "name": "totalCertificates",
      "outputs": [
        {
          "internalType": "uint256",
          "name": "",
          "type": "uint256"
        }
      ],
      "payable": false,
      "stateMutability": "view",
      "type": "function"
    },
    {
      "constant": true,
      "inputs": [],
      "name": "getAllCertificates",
      "outputs": [
        {
          "components": [
            {
              "internalType": "string",
              "name": "name",
              "type": "string"
            },
            {
              "internalType": "uint256",
              "name": "uniqueId",
              "type": "uint256"
            },
            {
              "internalType": "address",
              "name": "issuedTo",
              "type": "address"
            },
            {
              "internalType": "uint256",
              "name": "date",
              "type": "uint256"
            },
            {
              "internalType": "address",
              "name": "issuedBy",
              "type": "address"
            }
          ],
          "internalType": "struct OverAllTem.certificate[]",
          "name": "",
          "type": "tuple[]"
        }
      ],
      "payable": false,
      "stateMutability": "view",
      "type": "function"
    },
    {
      "constant": false,
      "inputs": [
        {
          "internalType": "uint256",
          "name": "_id",
          "type": "uint256"
        }
      ],
      "name": "addStudentUniqueID",
      "outputs": [],
      "payable": false,
      "stateMutability": "nonpayable",
      "type": "function"
    }
  ],
  "bytecode": "0x608060405234801561001057600080fd5b5061800d80620000216000396000f3fe60806040523480156200001157600080fd5b50600436106200013b5760003560e01c8063988760c111620000bd578063c79f28bb116200007b578063c79f28bb146200036f578063d6483d171462000391578063e9e3092714620003b1578063e9e8a17c14620003d3578063efeda3d714620003f3576200013b565b8063988760c114620002af578063a1263f6d14620002cf578063b163e03d14620002f1578063b1743b8e1462000313578063b502a6e01462000339576200013b565b80632adb5687116200010b5780632adb568714620001ca5780632d978fb114620002005780633e03a1f11462000237578063596b772f146200025757806368be78871462000279576200013b565b80628fafaf146200014057806313fcfe801462000162578063281c27301462000184578063294f2eee14620001a4575b600080fd5b6200014a62000429565b604051620001599190620045c1565b60405180910390f35b6200016c6200071d565b6040516200017b91906200451b565b60405180910390f35b620001a260048036036200019c91908101906200408f565b620011ea565b005b620001ae6200126b565b604051620001c19594939291906200473c565b60405180910390f35b620001e86004803603620001e2919081019062003e48565b62001cf9565b604051620001f79190620044d1565b60405180910390f35b6200021e60048036036200021891908101906200408f565b62001de5565b6040516200022e929190620044ee565b60405180910390f35b6200025560048036036200024f919081019062003f82565b62001e57565b005b62000261620023b9565b604051620002709190620047a7565b60405180910390f35b62000297600480360362000291919081019062003e48565b62002588565b604051620002a69190620045a4565b60405180910390f35b620002cd6004803603620002c7919081019062003f3d565b620026e3565b005b620002d9620027ee565b604051620002e89190620045c1565b60405180910390f35b620002fb62002a05565b6040516200030a91906200453f565b60405180910390f35b6200031d62002c58565b6040516200033095949392919062004619565b60405180910390f35b6200035760048036036200035191908101906200408f565b62002fce565b604051620003669190620045a4565b60405180910390f35b620003796200300b565b604051620003889190620045a4565b60405180910390f35b620003af6004803603620003a9919081019062003f3d565b62003164565b005b620003bb6200326f565b604051620003ca919062004563565b60405180910390f35b620003f16004803603620003eb919081019062004020565b62003888565b005b6200041160048036036200040b91908101906200408f565b62003b4b565b60405162000420919062004587565b60405180910390f35b606060008090505b600080549050811015620006e05760008090505b600082815481106200045357fe5b9060005260206000200160009054906101000a900473ffffffffffffffffffffffffffffffffffffffff1673ffffffffffffffffffffffffffffffffffffffff166330dc15536040518163ffffffff1660e01b815260040160206040518083038186803b158015620004c457600080fd5b505afa158015620004d9573d6000803e3d6000fd5b505050506040513d601f19601f82011682018060405250620004ff9190810190620040bb565b811015620006d1573373ffffffffffffffffffffffffffffffffffffffff16600083815481106200052c57fe5b9060005260206000200160009054906101000a900473ffffffffffffffffffffffffffffffffffffffff1673ffffffffffffffffffffffffffffffffffffffff166306ead22e836040518263ffffffff1660e01b8152600401620005919190620047a7565b60206040518083038186803b158015620005aa57600080fd5b505afa158015620005bf573d6000803e3d6000fd5b505050506040513d601f19601f82011682018060405250620005e5919081019062003ecc565b73ffffffffffffffffffffffffffffffffffffffff16633e78c7c06040518163ffffffff1660e01b815260040160206040518083038186803b1580156200062b57600080fd5b505afa15801562000640573d6000803e3d6000fd5b505050506040513d601f19601f8201168201806040525062000666919081019062003e74565b73ffffffffffffffffffffffffffffffffffffffff161415620006c3576040518060400160405280600381526020017f7965730000000000000000000000000000000000000000000000000000000000815250925050506200071a565b808060010191505062000445565b50808060010191505062000431565b506040518060400160405280600281526020017f6e6f00000000000000000000000000000000000000000000000000000000000081525090505b90565b606060006200072b6200300b565b9050606062000739620023b9565b6040519080825280602002602001820160405280156200077657816020015b6200076262003b88565b815260200190600190039081620007585790505b509050600080905060008090505b8373ffffffffffffffffffffffffffffffffffffffff166330dc15536040518163ffffffff1660e01b815260040160206040518083038186803b158015620007cb57600080fd5b505afa158015620007e0573d6000803e3d6000fd5b505050506040513d601f19601f82011682018060405250620008069190810190620040bb565b811015620011e05760008090505b8473ffffffffffffffffffffffffffffffffffffffff166306ead22e836040518263ffffffff1660e01b81526004016200084f9190620047a7565b60206040518083038186803b1580156200086857600080fd5b505afa1580156200087d573d6000803e3d6000fd5b505050506040513d601f19601f82011682018060405250620008a3919081019062003ecc565b73ffffffffffffffffffffffffffffffffffffffff16636af6d78c6040518163ffffffff1660e01b815260040160206040518083038186803b158015620008e957600080fd5b505afa158015620008fe573d6000803e3d6000fd5b505050506040513d601f19601f82011682018060405250620009249190810190620040bb565b811015620011d1576200093662003be3565b6040518060a001604052808773ffffffffffffffffffffffffffffffffffffffff166306ead22e866040518263ffffffff1660e01b81526004016200097c9190620047a7565b60206040518083038186803b1580156200099557600080fd5b505afa158015620009aa573d6000803e3d6000fd5b505050506040513d601f19601f82011682018060405250620009d0919081019062003ecc565b73ffffffffffffffffffffffffffffffffffffffff16633c0359a4856040518263ffffffff1660e01b815260040162000a0a9190620047a7565b60206040518083038186803b15801562000a2357600080fd5b505afa15801562000a38573d6000803e3d6000fd5b505050506040513d601f19601f8201168201806040525062000a5e919081019062003ea0565b73ffffffffffffffffffffffffffffffffffffffff1663b508ba316040518163ffffffff1660e01b815260040160006040518083038186803b15801562000aa457600080fd5b505afa15801562000ab9573d6000803e3d6000fd5b505050506040513d6000823e3d601f19601f8201168201806040525062000ae4919081019062003ef8565b81526020018773ffffffffffffffffffffffffffffffffffffffff166306ead22e866040518263ffffffff1660e01b815260040162000b249190620047a7565b60206040518083038186803b15801562000b3d57600080fd5b505afa15801562000b52573d6000803e3d6000fd5b505050506040513d601f19601f8201168201806040525062000b78919081019062003ecc565b73ffffffffffffffffffffffffffffffffffffffff16633c0359a4856040518263ffffffff1660e01b815260040162000bb29190620047a7565b60206040518083038186803b15801562000bcb57600080fd5b505afa15801562000be0573d6000803e3d6000fd5b505050506040513d601f19601f8201168201806040525062000c06919081019062003ea0565b73ffffffffffffffffffffffffffffffffffffffff16636bcda13b6040518163ffffffff1660e01b815260040160206040518083038186803b15801562000c4c57600080fd5b505afa15801562000c61573d6000803e3d6000fd5b505050506040513d601f19601f8201168201806040525062000c879190810190620040bb565b81526020018773ffffffffffffffffffffffffffffffffffffffff166306ead22e866040518263ffffffff1660e01b815260040162000cc79190620047a7565b60206040518083038186803b15801562000ce057600080fd5b505afa15801562000cf5573d6000803e3d6000fd5b505050506040513d601f19601f8201168201806040525062000d1b919081019062003ecc565b73ffffffffffffffffffffffffffffffffffffffff16633c0359a4856040518263ffffffff1660e01b815260040162000d559190620047a7565b60206040518083038186803b15801562000d6e57600080fd5b505afa15801562000d83573d6000803e3d6000fd5b505050506040513d601f19601f8201168201806040525062000da9919081019062003ea0565b73ffffffffffffffffffffffffffffffffffffffff1663d40afd8b6040518163ffffffff1660e01b815260040160206040518083038186803b15801562000def57600080fd5b505afa15801562000e04573d6000803e3d6000fd5b505050506040513d601f19601f8201168201806040525062000e2a919081019062003e74565b73ffffffffffffffffffffffffffffffffffffffff1681526020018773ffffffffffffffffffffffffffffffffffffffff166306ead22e866040518263ffffffff1660e01b815260040162000e809190620047a7565b60206040518083038186803b15801562000e9957600080fd5b505afa15801562000eae573d6000803e3d6000fd5b505050506040513d601f19601f8201168201806040525062000ed4919081019062003ecc565b73ffffffffffffffffffffffffffffffffffffffff16633c0359a4856040518263ffffffff1660e01b815260040162000f0e9190620047a7565b60206040518083038186803b15801562000f2757600080fd5b505afa15801562000f3c573d6000803e3d6000fd5b505050506040513d601f19601f8201168201806040525062000f62919081019062003ea0565b73ffffffffffffffffffffffffffffffffffffffff1663323046b16040518163ffffffff1660e01b815260040160206040518083038186803b15801562000fa857600080fd5b505afa15801562000fbd573d6000803e3d6000fd5b505050506040513d601f19601f8201168201806040525062000fe39190810190620040bb565b81526020018773ffffffffffffffffffffffffffffffffffffffff166306ead22e866040518263ffffffff1660e01b8152600401620010239190620047a7565b60206040518083038186803b1580156200103c57600080fd5b505afa15801562001051573d6000803e3d6000fd5b505050506040513d601f19601f8201168201806040525062001077919081019062003ecc565b73ffffffffffffffffffffffffffffffffffffffff16633c0359a4856040518263ffffffff1660e01b8152600401620010b19190620047a7565b60206040518083038186803b158015620010ca57600080fd5b505afa158015620010df573d6000803e3d6000fd5b505050506040513d601f19601f8201168201806040525062001105919081019062003ea0565b73ffffffffffffffffffffffffffffffffffffffff16631f4591dd6040518163ffffffff1660e01b815260040160206040518083038186803b1580156200114b57600080fd5b505afa15801562001160573d6000803e3d6000fd5b505050506040513d601f19601f8201168201806040525062001186919081019062003e74565b73ffffffffffffffffffffffffffffffffffffffff16815250905080858581518110620011af57fe5b6020026020010181905250838060010194505050808060010191505062000814565b50808060010191505062000784565b5081935050505090565b6000620011f66200300b565b90508073ffffffffffffffffffffffffffffffffffffffff16638c74a77b836040518263ffffffff1660e01b8152600401620012339190620047a7565b600060405180830381600087803b1580156200124e57600080fd5b505af115801562001263573d6000803e3d6000fd5b505050505050565b60606000606060008060008090505b60028054905081101562001cb3573373ffffffffffffffffffffffffffffffffffffffff1660028281548110620012ad57fe5b906000526020600020906002020160000160009054906101000a900473ffffffffffffffffffffffffffffffffffffffff1673ffffffffffffffffffffffffffffffffffffffff16141562001ca5576000600282815481106200130c57fe5b906000526020600020906002020160010160009054906101000a900473ffffffffffffffffffffffffffffffffffffffff16905060008090505b60008054905081101562001ca2578173ffffffffffffffffffffffffffffffffffffffff16600082815481106200137957fe5b9060005260206000200160009054906101000a900473ffffffffffffffffffffffffffffffffffffffff1673ffffffffffffffffffffffffffffffffffffffff1663c5d163756040518163ffffffff1660e01b815260040160206040518083038186803b158015620013ea57600080fd5b505afa158015620013ff573d6000803e3d6000fd5b505050506040513d601f19601f8201168201806040525062001425919081019062003e74565b73ffffffffffffffffffffffffffffffffffffffff16141562001c945760008090505b600082815481106200145657fe5b9060005260206000200160009054906101000a900473ffffffffffffffffffffffffffffffffffffffff1673ffffffffffffffffffffffffffffffffffffffff166330dc15536040518163ffffffff1660e01b815260040160206040518083038186803b158015620014c757600080fd5b505afa158015620014dc573d6000803e3d6000fd5b505050506040513d601f19601f82011682018060405250620015029190810190620040bb565b81101562001c92573373ffffffffffffffffffffffffffffffffffffffff16600083815481106200152f57fe5b9060005260206000200160009054906101000a900473ffffffffffffffffffffffffffffffffffffffff1673ffffffffffffffffffffffffffffffffffffffff166306ead22e836040518263ffffffff1660e01b8152600401620015949190620047a7565b60206040518083038186803b158015620015ad57600080fd5b505afa158015620015c2573d6000803e3d6000fd5b505050506040513d601f19601f82011682018060405250620015e8919081019062003ecc565b73ffffffffffffffffffffffffffffffffffffffff16633e78c7c06040518163ffffffff1660e01b815260040160206040518083038186803b1580156200162e57600080fd5b505afa15801562001643573d6000803e3d6000fd5b505050506040513d601f19601f8201168201806040525062001669919081019062003e74565b73ffffffffffffffffffffffffffffffffffffffff16141562001c8457600084815481106200169457fe5b9060005260206000200160009054906101000a900473ffffffffffffffffffffffffffffffffffffffff1673ffffffffffffffffffffffffffffffffffffffff166306ead22e826040518263ffffffff1660e01b8152600401620016f99190620047a7565b60206040518083038186803b1580156200171257600080fd5b505afa15801562001727573d6000803e3d6000fd5b505050506040513d601f19601f820116820180604052506200174d919081019062003ecc565b73ffffffffffffffffffffffffffffffffffffffff1663ec3615cd6040518163ffffffff1660e01b815260040160006040518083038186803b1580156200179357600080fd5b505afa158015620017a8573d6000803e3d6000fd5b505050506040513d6000823e3d601f19601f82011682018060405250620017d3919081019062003ef8565b60008581548110620017e157fe5b9060005260206000200160009054906101000a900473ffffffffffffffffffffffffffffffffffffffff1673ffffffffffffffffffffffffffffffffffffffff166306ead22e836040518263ffffffff1660e01b8152600401620018469190620047a7565b60206040518083038186803b1580156200185f57600080fd5b505afa15801562001874573d6000803e3d6000fd5b505050506040513d601f19601f820116820180604052506200189a919081019062003ecc565b73ffffffffffffffffffffffffffffffffffffffff16634cd057426040518163ffffffff1660e01b815260040160206040518083038186803b158015620018e057600080fd5b505afa158015620018f5573d6000803e3d6000fd5b505050506040513d601f19601f820116820180604052506200191b9190810190620040bb565b600086815481106200192957fe5b9060005260206000200160009054906101000a900473ffffffffffffffffffffffffffffffffffffffff1673ffffffffffffffffffffffffffffffffffffffff1663ec5d9e586040518163ffffffff1660e01b815260040160006040518083038186803b1580156200199a57600080fd5b505afa158015620019af573d6000803e3d6000fd5b505050506040513d6000823e3d601f19601f82011682018060405250620019da919081019062003ef8565b60008781548110620019e857fe5b9060005260206000200160009054906101000a900473ffffffffffffffffffffffffffffffffffffffff1673ffffffffffffffffffffffffffffffffffffffff166306ead22e856040518263ffffffff1660e01b815260040162001a4d9190620047a7565b60206040518083038186803b15801562001a6657600080fd5b505afa15801562001a7b573d6000803e3d6000fd5b505050506040513d601f19601f8201168201806040525062001aa1919081019062003ecc565b73ffffffffffffffffffffffffffffffffffffffff16633e78c7c06040518163ffffffff1660e01b815260040160206040518083038186803b15801562001ae757600080fd5b505afa15801562001afc573d6000803e3d6000fd5b505050506040513d601f19601f8201168201806040525062001b22919081019062003e74565b6000888154811062001b3057fe5b9060005260206000200160009054906101000a900473ffffffffffffffffffffffffffffffffffffffff1673ffffffffffffffffffffffffffffffffffffffff166306ead22e866040518263ffffffff1660e01b815260040162001b959190620047a7565b60206040518083038186803b15801562001bae57600080fd5b505afa15801562001bc3573d6000803e3d6000fd5b505050506040513d601f19601f8201168201806040525062001be9919081019062003ecc565b73ffffffffffffffffffffffffffffffffffffffff16636af6d78c6040518163ffffffff1660e01b815260040160206040518083038186803b15801562001c2f57600080fd5b505afa15801562001c44573d6000803e3d6000fd5b505050506040513d601f19601f8201168201806040525062001c6a9190810190620040bb565b849450829250985098509850985098505050505062001cf2565b808060010191505062001448565b505b808060010191505062001346565b50505b80806001019150506200127a565b50600080600060405180602001604052806000815250929190829250604051806020016040528060008152509190819150809050945094509450945094505b9091929394565b600080600090505b60028054905081101562001dda578273ffffffffffffffffffffffffffffffffffffffff166002828154811062001d3457fe5b906000526020600020906002020160000160009054906101000a900473ffffffffffffffffffffffffffffffffffffffff1673ffffffffffffffffffffffffffffffffffffffff16141562001dcc576002818154811062001d9157fe5b906000526020600020906002020160010160009054906101000a900473ffffffffffffffffffffffffffffffffffffffff1691505062001de0565b808060010191505062001d01565b50600090505b919050565b6002818154811062001df357fe5b90600052602060002090600202016000915090508060000160009054906101000a900473ffffffffffffffffffffffffffffffffffffffff16908060010160009054906101000a900473ffffffffffffffffffffffffffffffffffffffff16905082565b60008090505b600080549050811015620023b2573373ffffffffffffffffffffffffffffffffffffffff166000828154811062001e9057fe5b9060005260206000200160009054906101000a900473ffffffffffffffffffffffffffffffffffffffff1673ffffffffffffffffffffffffffffffffffffffff1663c5d163756040518163ffffffff1660e01b815260040160206040518083038186803b15801562001f0157600080fd5b505afa15801562001f16573d6000803e3d6000fd5b505050506040513d601f19601f8201168201806040525062001f3c919081019062003e74565b73ffffffffffffffffffffffffffffffffffffffff161415620023a45760008090505b6000828154811062001f6d57fe5b9060005260206000200160009054906101000a900473ffffffffffffffffffffffffffffffffffffffff1673ffffffffffffffffffffffffffffffffffffffff166330dc15536040518163ffffffff1660e01b815260040160206040518083038186803b15801562001fde57600080fd5b505afa15801562001ff3573d6000803e3d6000fd5b505050506040513d601f19601f82011682018060405250620020199190810190620040bb565b811015620023a2578273ffffffffffffffffffffffffffffffffffffffff16600083815481106200204657fe5b9060005260206000200160009054906101000a900473ffffffffffffffffffffffffffffffffffffffff1673ffffffffffffffffffffffffffffffffffffffff166306ead22e836040518263ffffffff1660e01b8152600401620020ab9190620047a7565b60206040518083038186803b158015620020c457600080fd5b505afa158015620020d9573d6000803e3d6000fd5b505050506040513d601f19601f82011682018060405250620020ff919081019062003ecc565b73ffffffffffffffffffffffffffffffffffffffff16633e78c7c06040518163ffffffff1660e01b815260040160206040518083038186803b1580156200214557600080fd5b505afa1580156200215a573d6000803e3d6000fd5b505050506040513d601f19601f8201168201806040525062002180919081019062003e74565b73ffffffffffffffffffffffffffffffffffffffff161415620023945760008281548110620021ab57fe5b9060005260206000200160009054906101000a900473ffffffffffffffffffffffffffffffffffffffff1673ffffffffffffffffffffffffffffffffffffffff166306ead22e826040518263ffffffff1660e01b8152600401620022109190620047a7565b60206040518083038186803b1580156200222957600080fd5b505afa1580156200223e573d6000803e3d6000fd5b505050506040513d601f19601f8201168201806040525062002264919081019062003ecc565b73ffffffffffffffffffffffffffffffffffffffff1663f7692bea87878787600088815481106200229157fe5b9060005260206000200160009054906101000a900473ffffffffffffffffffffffffffffffffffffffff1673ffffffffffffffffffffffffffffffffffffffff1663c5d163756040518163ffffffff1660e01b815260040160206040518083038186803b1580156200230257600080fd5b505afa15801562002317573d6000803e3d6000fd5b505050506040513d601f19601f820116820180604052506200233d919081019062003e74565b6040518663ffffffff1660e01b81526004016200235f9594939291906200467d565b600060405180830381600087803b1580156200237a57600080fd5b505af11580156200238f573d6000803e3d6000fd5b505050505b808060010191505062001f5f565b505b808060010191505062001e5d565b5050505050565b600080620023c66200300b565b9050600080905060008090505b8273ffffffffffffffffffffffffffffffffffffffff166330dc15536040518163ffffffff1660e01b815260040160206040518083038186803b1580156200241a57600080fd5b505afa1580156200242f573d6000803e3d6000fd5b505050506040513d601f19601f82011682018060405250620024559190810190620040bb565b8110156200257f578273ffffffffffffffffffffffffffffffffffffffff166306ead22e826040518263ffffffff1660e01b8152600401620024989190620047a7565b60206040518083038186803b158015620024b157600080fd5b505afa158015620024c6573d6000803e3d6000fd5b505050506040513d601f19601f82011682018060405250620024ec919081019062003ecc565b73ffffffffffffffffffffffffffffffffffffffff16636af6d78c6040518163ffffffff1660e01b815260040160206040518083038186803b1580156200253257600080fd5b505afa15801562002547573d6000803e3d6000fd5b505050506040513d601f19601f820116820180604052506200256d9190810190620040bb565b820191508080600101915050620023d3565b50809250505090565b600080600090505b600080549050811015620026dc578273ffffffffffffffffffffffffffffffffffffffff1660008281548110620025c357fe5b9060005260206000200160009054906101000a900473ffffffffffffffffffffffffffffffffffffffff1673ffffffffffffffffffffffffffffffffffffffff1663c5d163756040518163ffffffff1660e01b815260040160206040518083038186803b1580156200263457600080fd5b505afa15801562002649573d6000803e3d6000fd5b505050506040513d601f19601f820116820180604052506200266f919081019062003e74565b73ffffffffffffffffffffffffffffffffffffffff161415620026ce57600081815481106200269a57fe5b9060005260206000200160009054906101000a900473ffffffffffffffffffffffffffffffffffffffff16915050620026de565b808060010191505062002590565b505b919050565b6000604051620026f39062003c3e565b604051809103906000f08015801562002710573d6000803e3d6000fd5b5090508073ffffffffffffffffffffffffffffffffffffffff1663fe794b0083336040518363ffffffff1660e01b815260040162002750929190620045e5565b600060405180830381600087803b1580156200276b57600080fd5b505af115801562002780573d6000803e3d6000fd5b5050505060008190806001815401808255809150509060018203906000526020600020016000909192909190916101000a81548173ffffffffffffffffffffffffffffffffffffffff021916908373ffffffffffffffffffffffffffffffffffffffff160217905550505050565b606060008090505b600080549050811015620029c8573373ffffffffffffffffffffffffffffffffffffffff16600082815481106200282957fe5b9060005260206000200160009054906101000a900473ffffffffffffffffffffffffffffffffffffffff1673ffffffffffffffffffffffffffffffffffffffff1663c5d163756040518163ffffffff1660e01b815260040160206040518083038186803b1580156200289a57600080fd5b505afa158015620028af573d6000803e3d6000fd5b505050506040513d601f19601f82011682018060405250620028d5919081019062003e74565b73ffffffffffffffffffffffffffffffffffffffff161415620029ba57600081815481106200290057fe5b9060005260206000200160009054906101000a900473ffffffffffffffffffffffffffffffffffffffff1673ffffffffffffffffffffffffffffffffffffffff1663ec5d9e586040518163ffffffff1660e01b815260040160006040518083038186803b1580156200297157600080fd5b505afa15801562002986573d6000803e3d6000fd5b505050506040513d6000823e3d601f19601f82011682018060405250620029b1919081019062003ef8565b91505062002a02565b8080600101915050620027f6565b506040518060400160405280600281526020017f6e6f00000000000000000000000000000000000000000000000000000000000081525090505b90565b60608060008054905060405190808252806020026020018201604052801562002a4b57816020015b62002a3762003c4c565b81526020019060019003908162002a2d5790505b50905060008090505b60008054905081101562002c50576000818154811062002a7057fe5b9060005260206000200160009054906101000a900473ffffffffffffffffffffffffffffffffffffffff1673ffffffffffffffffffffffffffffffffffffffff1663ec5d9e586040518163ffffffff1660e01b815260040160006040518083038186803b15801562002ae157600080fd5b505afa15801562002af6573d6000803e3d6000fd5b505050506040513d6000823e3d601f19601f8201168201806040525062002b21919081019062003ef8565b82828151811062002b2e57fe5b6020026020010151600001819052506000818154811062002b4b57fe5b9060005260206000200160009054906101000a900473ffffffffffffffffffffffffffffffffffffffff1673ffffffffffffffffffffffffffffffffffffffff1663c5d163756040518163ffffffff1660e01b815260040160206040518083038186803b15801562002bbc57600080fd5b505afa15801562002bd1573d6000803e3d6000fd5b505050506040513d601f19601f8201168201806040525062002bf7919081019062003e74565b82828151811062002c0457fe5b60200260200101516020019073ffffffffffffffffffffffffffffffffffffffff16908173ffffffffffffffffffffffffffffffffffffffff1681525050808060010191505062002a54565b508091505090565b606060008060008060008090505b60008054905081101562002fc5573373ffffffffffffffffffffffffffffffffffffffff166000828154811062002c9957fe5b9060005260206000200160009054906101000a900473ffffffffffffffffffffffffffffffffffffffff1673ffffffffffffffffffffffffffffffffffffffff1663c5d163756040518163ffffffff1660e01b815260040160206040518083038186803b15801562002d0a57600080fd5b505afa15801562002d1f573d6000803e3d6000fd5b505050506040513d601f19601f8201168201806040525062002d45919081019062003e74565b73ffffffffffffffffffffffffffffffffffffffff16141562002fb7576000818154811062002d7057fe5b9060005260206000200160009054906101000a900473ffffffffffffffffffffffffffffffffffffffff1673ffffffffffffffffffffffffffffffffffffffff1663ec5d9e586040518163ffffffff1660e01b815260040160006040518083038186803b15801562002de157600080fd5b505afa15801562002df6573d6000803e3d6000fd5b505050506040513d6000823e3d601f19601f8201168201806040525062002e21919081019062003ef8565b336000838154811062002e3057fe5b9060005260206000200160009054906101000a900473ffffffffffffffffffffffffffffffffffffffff1673ffffffffffffffffffffffffffffffffffffffff166351c165d56040518163ffffffff1660e01b815260040160206040518083038186803b15801562002ea157600080fd5b505afa15801562002eb6573d6000803e3d6000fd5b505050506040513d601f19601f8201168201806040525062002edc9190810190620040bb565b6000848154811062002eea57fe5b9060005260206000200160009054906101000a900473ffffffffffffffffffffffffffffffffffffffff1673ffffffffffffffffffffffffffffffffffffffff166330dc15536040518163ffffffff1660e01b815260040160206040518083038186803b15801562002f5b57600080fd5b505afa15801562002f70573d6000803e3d6000fd5b505050506040513d601f19601f8201168201806040525062002f969190810190620040bb565b62002fa0620023b9565b849450839350955095509550955095505062002fc7565b808060010191505062002c66565b505b9091929394565b6000818154811062002fdc57fe5b906000526020600020016000915054906101000a900473ffffffffffffffffffffffffffffffffffffffff1681565b600080600090505b6000805490508110156200315f573373ffffffffffffffffffffffffffffffffffffffff16600082815481106200304657fe5b9060005260206000200160009054906101000a900473ffffffffffffffffffffffffffffffffffffffff1673ffffffffffffffffffffffffffffffffffffffff1663c5d163756040518163ffffffff1660e01b815260040160206040518083038186803b158015620030b757600080fd5b505afa158015620030cc573d6000803e3d6000fd5b505050506040513d601f19601f82011682018060405250620030f2919081019062003e74565b73ffffffffffffffffffffffffffffffffffffffff1614156200315157600081815481106200311d57fe5b9060005260206000200160009054906101000a900473ffffffffffffffffffffffffffffffffffffffff1691505062003161565b808060010191505062003013565b505b90565b6000604051620031749062003c7c565b604051809103906000f08015801562003191573d6000803e3d6000fd5b5090508073ffffffffffffffffffffffffffffffffffffffff166338f0326983336040518363ffffffff1660e01b8152600401620031d1929190620045e5565b600060405180830381600087803b158015620031ec57600080fd5b505af115801562003201573d6000803e3d6000fd5b5050505060018190806001815401808255809150509060018203906000526020600020016000909192909190916101000a81548173ffffffffffffffffffffffffffffffffffffffff021916908373ffffffffffffffffffffffffffffffffffffffff160217905550505050565b606060006200327d6200300b565b905060608173ffffffffffffffffffffffffffffffffffffffff166330dc15536040518163ffffffff1660e01b815260040160206040518083038186803b158015620032c857600080fd5b505afa158015620032dd573d6000803e3d6000fd5b505050506040513d601f19601f82011682018060405250620033039190810190620040bb565b6040519080825280602002602001820160405280156200334057816020015b6200332c62003c8a565b815260200190600190039081620033225790505b50905060008090505b8273ffffffffffffffffffffffffffffffffffffffff166330dc15536040518163ffffffff1660e01b815260040160206040518083038186803b1580156200339057600080fd5b505afa158015620033a5573d6000803e3d6000fd5b505050506040513d601f19601f82011682018060405250620033cb9190810190620040bb565b8110156200387f57620033dd62003cc8565b60405180608001604052808573ffffffffffffffffffffffffffffffffffffffff166306ead22e856040518263ffffffff1660e01b8152600401620034239190620047a7565b60206040518083038186803b1580156200343c57600080fd5b505afa15801562003451573d6000803e3d6000fd5b505050506040513d601f19601f8201168201806040525062003477919081019062003ecc565b73ffffffffffffffffffffffffffffffffffffffff1663ec3615cd6040518163ffffffff1660e01b815260040160006040518083038186803b158015620034bd57600080fd5b505afa158015620034d2573d6000803e3d6000fd5b505050506040513d6000823e3d601f19601f82011682018060405250620034fd919081019062003ef8565b81526020018573ffffffffffffffffffffffffffffffffffffffff166306ead22e856040518263ffffffff1660e01b81526004016200353d9190620047a7565b60206040518083038186803b1580156200355657600080fd5b505afa1580156200356b573d6000803e3d6000fd5b505050506040513d601f19601f8201168201806040525062003591919081019062003ecc565b73ffffffffffffffffffffffffffffffffffffffff16633e78c7c06040518163ffffffff1660e01b815260040160206040518083038186803b158015620035d757600080fd5b505afa158015620035ec573d6000803e3d6000fd5b505050506040513d601f19601f8201168201806040525062003612919081019062003e74565b73ffffffffffffffffffffffffffffffffffffffff1681526020018573ffffffffffffffffffffffffffffffffffffffff166306ead22e856040518263ffffffff1660e01b8152600401620036689190620047a7565b60206040518083038186803b1580156200368157600080fd5b505afa15801562003696573d6000803e3d6000fd5b505050506040513d601f19601f82011682018060405250620036bc919081019062003ecc565b73ffffffffffffffffffffffffffffffffffffffff16634cd057426040518163ffffffff1660e01b815260040160206040518083038186803b1580156200370257600080fd5b505afa15801562003717573d6000803e3d6000fd5b505050506040513d601f19601f820116820180604052506200373d9190810190620040bb565b81526020018573ffffffffffffffffffffffffffffffffffffffff166306ead22e856040518263ffffffff1660e01b81526004016200377d9190620047a7565b60206040518083038186803b1580156200379657600080fd5b505afa158015620037ab573d6000803e3d6000fd5b505050506040513d601f19601f82011682018060405250620037d1919081019062003ecc565b73ffffffffffffffffffffffffffffffffffffffff16636af6d78c6040518163ffffffff1660e01b815260040160206040518083038186803b1580156200381757600080fd5b505afa1580156200382c573d6000803e3d6000fd5b505050506040513d601f19601f82011682018060405250620038529190810190620040bb565b8152509050808383815181106200386557fe5b602002602001018190525050808060010191505062003349565b50809250505090565b60008090505b60008054905081101562003b45578173ffffffffffffffffffffffffffffffffffffffff1660008281548110620038c157fe5b9060005260206000200160009054906101000a900473ffffffffffffffffffffffffffffffffffffffff1673ffffffffffffffffffffffffffffffffffffffff1663c5d163756040518163ffffffff1660e01b815260040160206040518083038186803b1580156200393257600080fd5b505afa15801562003947573d6000803e3d6000fd5b505050506040513d601f19601f820116820180604052506200396d919081019062003e74565b73ffffffffffffffffffffffffffffffffffffffff16141562003b3757600081815481106200399857fe5b9060005260206000200160009054906101000a900473ffffffffffffffffffffffffffffffffffffffff1673ffffffffffffffffffffffffffffffffffffffff1663137c3f7d858533866040518563ffffffff1660e01b815260040162003a039493929190620046e8565b600060405180830381600087803b15801562003a1e57600080fd5b505af115801562003a33573d6000803e3d6000fd5b50505050600260405180604001604052803373ffffffffffffffffffffffffffffffffffffffff1681526020018473ffffffffffffffffffffffffffffffffffffffff168152509080600181540180825580915050906001820390600052602060002090600202016000909192909190915060008201518160000160006101000a81548173ffffffffffffffffffffffffffffffffffffffff021916908373ffffffffffffffffffffffffffffffffffffffff16021790555060208201518160010160006101000a81548173ffffffffffffffffffffffffffffffffffffffff021916908373ffffffffffffffffffffffffffffffffffffffff1602179055505050505b80806001019150506200388e565b50505050565b6001818154811062003b5957fe5b906000526020600020016000915054906101000a900473ffffffffffffffffffffffffffffffffffffffff1681565b6040518060a001604052806060815260200160008152602001600073ffffffffffffffffffffffffffffffffffffffff16815260200160008152602001600073ffffffffffffffffffffffffffffffffffffffff1681525090565b6040518060a001604052806060815260200160008152602001600073ffffffffffffffffffffffffffffffffffffffff16815260200160008152602001600073ffffffffffffffffffffffffffffffffffffffff1681525090565b612fd28062004ae083390190565b604051806040016040528060608152602001600073ffffffffffffffffffffffffffffffffffffffff1681525090565b6105198062007ab283390190565b604051806080016040528060608152602001600073ffffffffffffffffffffffffffffffffffffffff16815260200160008152602001600081525090565b604051806080016040528060608152602001600073ffffffffffffffffffffffffffffffffffffffff16815260200160008152602001600081525090565b60008135905062003d178162004a77565b92915050565b60008151905062003d2e8162004a77565b92915050565b60008151905062003d458162004a91565b92915050565b60008151905062003d5c8162004aab565b92915050565b600082601f83011262003d7457600080fd5b815162003d8b62003d8582620047f2565b620047c4565b9150808252602083016020830185838301111562003da857600080fd5b62003db583828462004a30565b50505092915050565b600082601f83011262003dd057600080fd5b813562003de762003de1826200481f565b620047c4565b9150808252602083016020830185838301111562003e0457600080fd5b62003e1183828462004a21565b50505092915050565b60008135905062003e2b8162004ac5565b92915050565b60008151905062003e428162004ac5565b92915050565b60006020828403121562003e5b57600080fd5b600062003e6b8482850162003d06565b91505092915050565b60006020828403121562003e8757600080fd5b600062003e978482850162003d1d565b91505092915050565b60006020828403121562003eb357600080fd5b600062003ec38482850162003d34565b91505092915050565b60006020828403121562003edf57600080fd5b600062003eef8482850162003d4b565b91505092915050565b60006020828403121562003f0b57600080fd5b600082015167ffffffffffffffff81111562003f2657600080fd5b62003f348482850162003d62565b91505092915050565b60006020828403121562003f5057600080fd5b600082013567ffffffffffffffff81111562003f6b57600080fd5b62003f798482850162003dbe565b91505092915050565b6000806000806080858703121562003f9957600080fd5b600085013567ffffffffffffffff81111562003fb457600080fd5b62003fc28782880162003dbe565b945050602085013567ffffffffffffffff81111562003fe057600080fd5b62003fee8782880162003dbe565b9350506040620040018782880162003e1a565b9250506060620040148782880162003d06565b91505092959194509250565b6000806000606084860312156200403657600080fd5b600084013567ffffffffffffffff8111156200405157600080fd5b6200405f8682870162003dbe565b9350506020620040728682870162003e1a565b9250506040620040858682870162003d06565b9150509250925092565b600060208284031215620040a257600080fd5b6000620040b28482850162003e1a565b91505092915050565b600060208284031215620040ce57600080fd5b6000620040de8482850162003e31565b91505092915050565b6000620040f5838362004383565b905092915050565b60006200410b838362004403565b905092915050565b600062004121838362004444565b905092915050565b620041348162004995565b82525050565b62004145816200492f565b82525050565b62004156816200492f565b82525050565b600062004169826200487c565b620041758185620048da565b93508360208202850162004189856200484c565b8060005b85811015620041cb5784840389528151620041a98582620040e7565b9450620041b683620048b3565b925060208a019950506001810190506200418d565b50829750879550505050505092915050565b6000620041ea8262004887565b620041f68185620048eb565b9350836020820285016200420a856200485c565b8060005b858110156200424c57848403895281516200422a8582620040fd565b94506200423783620048c0565b925060208a019950506001810190506200420e565b50829750879550505050505092915050565b60006200426b8262004892565b620042778185620048fc565b9350836020820285016200428b856200486c565b8060005b85811015620042cd5784840389528151620042ab858262004113565b9450620042b883620048cd565b925060208a019950506001810190506200428f565b50829750879550505050505092915050565b620042ea81620049a9565b82525050565b620042fb81620049d1565b82525050565b60006200430e82620048a8565b6200431a81856200491e565b93506200432c81856020860162004a30565b620043378162004a66565b840191505092915050565b60006200434f826200489d565b6200435b81856200490d565b93506200436d81856020860162004a30565b620043788162004a66565b840191505092915050565b600060a0830160008301518482036000860152620043a2828262004342565b9150506020830151620043b96020860182620044af565b506040830151620043ce60408601826200413a565b506060830151620043e36060860182620044af565b506080830151620043f860808601826200413a565b508091505092915050565b6000604083016000830151848203600086015262004422828262004342565b91505060208301516200443960208601826200413a565b508091505092915050565b6000608083016000830151848203600086015262004463828262004342565b91505060208301516200447a60208601826200413a565b5060408301516200448f6040860182620044af565b506060830151620044a46060860182620044af565b508091505092915050565b620044ba816200498b565b82525050565b620044cb816200498b565b82525050565b6000602082019050620044e860008301846200414b565b92915050565b60006040820190506200450560008301856200414b565b6200451460208301846200414b565b9392505050565b600060208201905081810360008301526200453781846200415c565b905092915050565b600060208201905081810360008301526200455b8184620041dd565b905092915050565b600060208201905081810360008301526200457f81846200425e565b905092915050565b60006020820190506200459e6000830184620042df565b92915050565b6000602082019050620045bb6000830184620042f0565b92915050565b60006020820190508181036000830152620045dd818462004301565b905092915050565b6000604082019050818103600083015262004601818562004301565b905062004612602083018462004129565b9392505050565b600060a082019050818103600083015262004635818862004301565b90506200464660208301876200414b565b620046556040830186620044c0565b620046646060830185620044c0565b620046736080830184620044c0565b9695505050505050565b600060a082019050818103600083015262004699818862004301565b90508181036020830152620046af818762004301565b9050620046c06040830186620044c0565b620046cf60608301856200414b565b620046de60808301846200414b565b9695505050505050565b6000608082019050818103600083015262004704818762004301565b9050620047156020830186620044c0565b62004724604083018562004129565b6200473360608301846200414b565b95945050505050565b600060a082019050818103600083015262004758818862004301565b9050620047696020830187620044c0565b81810360408301526200477d818662004301565b90506200478e60608301856200414b565b6200479d6080830184620044c0565b9695505050505050565b6000602082019050620047be6000830184620044c0565b92915050565b6000604051905081810181811067ffffffffffffffff82111715620047e857600080fd5b8060405250919050565b600067ffffffffffffffff8211156200480a57600080fd5b601f19601f8301169050602081019050919050565b600067ffffffffffffffff8211156200483757600080fd5b601f19601f8301169050602081019050919050565b6000819050602082019050919050565b6000819050602082019050919050565b6000819050602082019050919050565b600081519050919050565b600081519050919050565b600081519050919050565b600081519050919050565b600081519050919050565b6000602082019050919050565b6000602082019050919050565b6000602082019050919050565b600082825260208201905092915050565b600082825260208201905092915050565b600082825260208201905092915050565b600082825260208201905092915050565b600082825260208201905092915050565b60006200493c826200496b565b9050919050565b600062004950826200492f565b9050919050565b600062004964826200492f565b9050919050565b600073ffffffffffffffffffffffffffffffffffffffff82169050919050565b6000819050919050565b6000620049a282620049f9565b9050919050565b6000620049b682620049bd565b9050919050565b6000620049ca826200496b565b9050919050565b6000620049de82620049e5565b9050919050565b6000620049f2826200496b565b9050919050565b600062004a068262004a0d565b9050919050565b600062004a1a826200496b565b9050919050565b82818337600083830152505050565b60005b8381101562004a5057808201518184015260208101905062004a33565b8381111562004a60576000848401525b50505050565b6000601f19601f8301169050919050565b62004a82816200492f565b811462004a8e57600080fd5b50565b62004a9c8162004943565b811462004aa857600080fd5b50565b62004ab68162004957565b811462004ac257600080fd5b50565b62004ad0816200498b565b811462004adc57600080fd5b5056fe60806040526040518060800160405280600160ff168152602001600260ff168152602001600360ff168152602001600460ff168152506004906004610045929190610058565b5034801561005257600080fd5b506100cf565b828054828255906000526020600020908101928215610099579160200282015b82811115610098578251829060ff16905591602001919060010190610078565b5b5090506100a691906100aa565b5090565b6100cc91905b808211156100c85760008160009055506001016100b0565b5090565b90565b612ef4806100de6000396000f3fe608060405234801561001057600080fd5b50600436106100cf5760003560e01c806351d332311161008c578063c5d1637511610066578063c5d1637514610238578063ec5d9e5814610256578063faead81214610274578063fe794b00146102a4576100cf565b806351d33231146101bc57806371e5ee5f146101ec5780638c74a77b1461021c576100cf565b806306ead22e146100d4578063137c3f7d146101045780632bff309a146101205780632ce349be1461015057806330dc15531461018057806351c165d51461019e575b600080fd5b6100ee60048036036100e99190810190610a98565b6102c0565b6040516100fb9190610c74565b60405180910390f35b61011e60048036036101199190810190610a1d565b6102fc565b005b61013a60048036036101359190810190610a98565b6105ae565b6040516101479190610d15565b60405180910390f35b61016a60048036036101659190810190610a98565b61061a565b6040516101779190610d15565b60405180910390f35b61018861063b565b6040516101959190610d15565b60405180910390f35b6101a6610648565b6040516101b39190610d15565b60405180910390f35b6101d660048036036101d19190810190610a98565b610655565b6040516101e39190610c59565b60405180910390f35b61020660048036036102019190810190610a98565b6106ab565b6040516102139190610d15565b60405180910390f35b61023660048036036102319190810190610a98565b6106cc565b005b610240610746565b60405161024d9190610c3e565b60405180910390f35b61025e61076c565b60405161026b9190610c8f565b60405180910390f35b61028e60048036036102899190810190610a98565b61080a565b60405161029b9190610c3e565b60405180910390f35b6102be60048036036102b991908101906109c9565b61083d565b005b600581815481106102cd57fe5b906000526020600020016000915054906101000a900473ffffffffffffffffffffffffffffffffffffffff1681565b600060405161030a90610899565b604051809103906000f080158015610326573d6000803e3d6000fd5b5090508073ffffffffffffffffffffffffffffffffffffffff16638a79aa70866040518263ffffffff1660e01b81526004016103629190610cb1565b600060405180830381600087803b15801561037c57600080fd5b505af1158015610390573d6000803e3d6000fd5b505050508073ffffffffffffffffffffffffffffffffffffffff16635d37eeb7846040518263ffffffff1660e01b81526004016103cd9190610c3e565b600060405180830381600087803b1580156103e757600080fd5b505af11580156103fb573d6000803e3d6000fd5b505050508073ffffffffffffffffffffffffffffffffffffffff1663893ec75b856040518263ffffffff1660e01b81526004016104389190610d15565b600060405180830381600087803b15801561045257600080fd5b505af1158015610466573d6000803e3d6000fd5b505050508073ffffffffffffffffffffffffffffffffffffffff166396c58de060006040518263ffffffff1660e01b81526004016104a49190610cd3565b600060405180830381600087803b1580156104be57600080fd5b505af11580156104d2573d6000803e3d6000fd5b505050508073ffffffffffffffffffffffffffffffffffffffff1663506283cd836040518263ffffffff1660e01b815260040161050f9190610c3e565b600060405180830381600087803b15801561052957600080fd5b505af115801561053d573d6000803e3d6000fd5b5050505060058190806001815401808255809150509060018203906000526020600020016000909192909190916101000a81548173ffffffffffffffffffffffffffffffffffffffff021916908373ffffffffffffffffffffffffffffffffffffffff160217905550505050505050565b600080600090505b60028054905081101561060f5782600282815481106105d157fe5b9060005260206000200154141561060257600281815481106105ef57fe5b9060005260206000200154915050610615565b80806001019150506105b6565b50600090505b919050565b6002818154811061062757fe5b906000526020600020016000915090505481565b6000600580549050905090565b6000600280549050905090565b600080600090505b6002805490508110156106a057826002828154811061067857fe5b906000526020600020015414156106935760019150506106a6565b808060010191505061065d565b50600090505b919050565b600481815481106106b857fe5b906000526020600020016000915090505481565b6106d5816105ae565b811415610717576040517f08c379a000000000000000000000000000000000000000000000000000000000815260040161070e90610cf5565b60405180910390fd5b600281908060018154018082558091505090600182039060005260206000200160009091929091909150555050565b600160009054906101000a900473ffffffffffffffffffffffffffffffffffffffff1681565b60008054600181600116156101000203166002900480601f0160208091040260200160405190810160405280929190818152602001828054600181600116156101000203166002900480156108025780601f106107d757610100808354040283529160200191610802565b820191906000526020600020905b8154815290600101906020018083116107e557829003601f168201915b505050505081565b60036020528060005260406000206000915054906101000a900473ffffffffffffffffffffffffffffffffffffffff1681565b81600090805190602001906108539291906108a6565b5080600160006101000a81548173ffffffffffffffffffffffffffffffffffffffff021916908373ffffffffffffffffffffffffffffffffffffffff1602179055505050565b611fff80610eb383390190565b828054600181600116156101000203166002900490600052602060002090601f016020900481019282601f106108e757805160ff1916838001178555610915565b82800160010185558215610915579182015b828111156109145782518255916020019190600101906108f9565b5b5090506109229190610926565b5090565b61094891905b8082111561094457600081600090555060010161092c565b5090565b90565b60008135905061095a81610e84565b92915050565b600082601f83011261097157600080fd5b813561098461097f82610d5d565b610d30565b915080825260208301602083018583830111156109a057600080fd5b6109ab838284610e31565b50505092915050565b6000813590506109c381610e9b565b92915050565b600080604083850312156109dc57600080fd5b600083013567ffffffffffffffff8111156109f657600080fd5b610a0285828601610960565b9250506020610a138582860161094b565b9150509250929050565b60008060008060808587031215610a3357600080fd5b600085013567ffffffffffffffff811115610a4d57600080fd5b610a5987828801610960565b9450506020610a6a878288016109b4565b9350506040610a7b8782880161094b565b9250506060610a8c8782880161094b565b91505092959194509250565b600060208284031215610aaa57600080fd5b6000610ab8848285016109b4565b91505092915050565b610aca81610dc5565b82525050565b610ad981610dd7565b82525050565b610ae881610e0d565b82525050565b6000610af982610da9565b610b038185610db4565b9350610b13818560208601610e40565b610b1c81610e73565b840191505092915050565b6000610b3282610d9e565b610b3c8185610db4565b9350610b4c818560208601610e40565b610b5581610e73565b840191505092915050565b600081546001811660008114610b7d5760018114610ba357610be7565b607f6002830416610b8e8187610db4565b955060ff198316865260208601935050610be7565b60028204610bb18187610db4565b9550610bbc85610d89565b60005b82811015610bde57815481890152600182019150602081019050610bbf565b80880195505050505b505092915050565b6000610bfc601183610db4565b91507f494420616c7265616479206578697374730000000000000000000000000000006000830152602082019050919050565b610c3881610e03565b82525050565b6000602082019050610c536000830184610ac1565b92915050565b6000602082019050610c6e6000830184610ad0565b92915050565b6000602082019050610c896000830184610adf565b92915050565b60006020820190508181036000830152610ca98184610b27565b905092915050565b60006020820190508181036000830152610ccb8184610aee565b905092915050565b60006020820190508181036000830152610ced8184610b60565b905092915050565b60006020820190508181036000830152610d0e81610bef565b9050919050565b6000602082019050610d2a6000830184610c2f565b92915050565b6000604051905081810181811067ffffffffffffffff82111715610d5357600080fd5b8060405250919050565b600067ffffffffffffffff821115610d7457600080fd5b601f19601f8301169050602081019050919050565b60008190508160005260206000209050919050565b600081519050919050565b600081519050919050565b600082825260208201905092915050565b6000610dd082610de3565b9050919050565b60008115159050919050565b600073ffffffffffffffffffffffffffffffffffffffff82169050919050565b6000819050919050565b6000610e1882610e1f565b9050919050565b6000610e2a82610de3565b9050919050565b82818337600083830152505050565b60005b83811015610e5e578082015181840152602081019050610e43565b83811115610e6d576000848401525b50505050565b6000601f19601f8301169050919050565b610e8d81610dc5565b8114610e9857600080fd5b50565b610ea481610e03565b8114610eaf57600080fd5b5056fe608060405234801561001057600080fd5b50611fdf806100206000396000f3fe608060405234801561001057600080fd5b50600436106101005760003560e01c806368a969971161009757806396c58de01161006657806396c58de01461050b578063af991a05146105c6578063ec3615cd14610608578063f7692bea1461068b57610100565b806368a96997146103ba5780636af6d78c14610404578063893ec75b146104225780638a79aa701461045057610100565b8063506283cd116100d3578063506283cd1461025e57806351640fee146102a257806359519536146103105780635d37eeb71461037657610100565b8063331a01fd146101055780633c0359a4146101885780633e78c7c0146101f65780634cd0574214610240575b600080fd5b61010d610827565b6040518080602001828103825283818151815260200191508051906020019080838360005b8381101561014d578082015181840152602081019050610132565b50505050905090810190601f16801561017a5780820380516001836020036101000a031916815260200191505b509250505060405180910390f35b6101b46004803603602081101561019e57600080fd5b81019080803590602001909291905050506108c5565b604051808273ffffffffffffffffffffffffffffffffffffffff1673ffffffffffffffffffffffffffffffffffffffff16815260200191505060405180910390f35b6101fe610901565b604051808273ffffffffffffffffffffffffffffffffffffffff1673ffffffffffffffffffffffffffffffffffffffff16815260200191505060405180910390f35b610248610927565b6040518082815260200191505060405180910390f35b6102a06004803603602081101561027457600080fd5b81019080803573ffffffffffffffffffffffffffffffffffffffff16906020019092919050505061092d565b005b6102ce600480360360208110156102b857600080fd5b8101908080359060200190929190505050610971565b604051808273ffffffffffffffffffffffffffffffffffffffff1673ffffffffffffffffffffffffffffffffffffffff16815260200191505060405180910390f35b61035c6004803603604081101561032657600080fd5b81019080803573ffffffffffffffffffffffffffffffffffffffff16906020019092919080359060200190929190505050610a99565b604051808215151515815260200191505060405180910390f35b6103b86004803603602081101561038c57600080fd5b81019080803573ffffffffffffffffffffffffffffffffffffffff169060200190929190505050610b68565b005b6103c2610bac565b604051808273ffffffffffffffffffffffffffffffffffffffff1673ffffffffffffffffffffffffffffffffffffffff16815260200191505060405180910390f35b61040c610bd2565b6040518082815260200191505060405180910390f35b61044e6004803603602081101561043857600080fd5b8101908080359060200190929190505050610bdf565b005b6105096004803603602081101561046657600080fd5b810190808035906020019064010000000081111561048357600080fd5b82018360208201111561049557600080fd5b803590602001918460018302840111640100000000831117156104b757600080fd5b91908080601f016020809104026020016040519081016040528093929190818152602001838380828437600081840152601f19601f820116905080830192505050505050509192919290505050610be9565b005b6105c46004803603602081101561052157600080fd5b810190808035906020019064010000000081111561053e57600080fd5b82018360208201111561055057600080fd5b8035906020019184600183028401116401000000008311171561057257600080fd5b91908080601f016020809104026020016040519081016040528093929190818152602001838380828437600081840152601f19601f820116905080830192505050505050509192919290505050610c03565b005b6105f2600480360360208110156105dc57600080fd5b8101908080359060200190929190505050610c1d565b6040518082815260200191505060405180910390f35b610610610c3e565b6040518080602001828103825283818151815260200191508051906020019080838360005b83811015610650578082015181840152602081019050610635565b50505050905090810190601f16801561067d5780820380516001836020036101000a031916815260200191505b509250505060405180910390f35b610825600480360360a08110156106a157600080fd5b81019080803590602001906401000000008111156106be57600080fd5b8201836020820111156106d057600080fd5b803590602001918460018302840111640100000000831117156106f257600080fd5b91908080601f016020809104026020016040519081016040528093929190818152602001838380828437600081840152601f19601f8201169050808301925050505050505091929192908035906020019064010000000081111561075557600080fd5b82018360208201111561076757600080fd5b8035906020019184600183028401116401000000008311171561078957600080fd5b91908080601f016020809104026020016040519081016040528093929190818152602001838380828437600081840152601f19601f82011690508083019250505050505050919291929080359060200190929190803573ffffffffffffffffffffffffffffffffffffffff169060200190929190803573ffffffffffffffffffffffffffffffffffffffff169060200190929190505050610cdc565b005b60018054600181600116156101000203166002900480601f0160208091040260200160405190810160405280929190818152602001828054600181600116156101000203166002900480156108bd5780601f10610892576101008083540402835291602001916108bd565b820191906000526020600020905b8154815290600101906020018083116108a057829003601f168201915b505050505081565b600581815481106108d257fe5b906000526020600020016000915054906101000a900473ffffffffffffffffffffffffffffffffffffffff1681565b600260009054906101000a900473ffffffffffffffffffffffffffffffffffffffff1681565b60035481565b80600460006101000a81548173ffffffffffffffffffffffffffffffffffffffff021916908373ffffffffffffffffffffffffffffffffffffffff16021790555050565b600080600090505b600580549050811015610a9257826005828154811061099457fe5b9060005260206000200160009054906101000a900473ffffffffffffffffffffffffffffffffffffffff1673ffffffffffffffffffffffffffffffffffffffff16636bcda13b6040518163ffffffff1660e01b815260040160206040518083038186803b158015610a0457600080fd5b505afa158015610a18573d6000803e3d6000fd5b505050506040513d6020811015610a2e57600080fd5b81019080805190602001909291905050501415610a855760058181548110610a5257fe5b9060005260206000200160009054906101000a900473ffffffffffffffffffffffffffffffffffffffff16915050610a94565b8080600101915050610979565b505b919050565b600080610aa583610971565b90508073ffffffffffffffffffffffffffffffffffffffff1663e6e6b7c1856040518263ffffffff1660e01b8152600401808273ffffffffffffffffffffffffffffffffffffffff1673ffffffffffffffffffffffffffffffffffffffff16815260200191505060206040518083038186803b158015610b2457600080fd5b505afa158015610b38573d6000803e3d6000fd5b505050506040513d6020811015610b4e57600080fd5b810190808051906020019092919050505091505092915050565b80600260006101000a81548173ffffffffffffffffffffffffffffffffffffffff021916908373ffffffffffffffffffffffffffffffffffffffff16021790555050565b600460009054906101000a900473ffffffffffffffffffffffffffffffffffffffff1681565b6000600580549050905090565b8060038190555050565b8060009080519060200190610bff9291906111fe565b5050565b8060019080519060200190610c199291906111fe565b5050565b60068181548110610c2a57fe5b906000526020600020016000915090505481565b60008054600181600116156101000203166002900480601f016020809104026020016040519081016040528092919081815260200182805460018160011615610100020316600290048015610cd45780601f10610ca957610100808354040283529160200191610cd4565b820191906000526020600020905b815481529060010190602001808311610cb757829003601f168201915b505050505081565b6000604051610cea9061127e565b604051809103906000f080158015610d06573d6000803e3d6000fd5b5090508073ffffffffffffffffffffffffffffffffffffffff1663d6edce1c876040518263ffffffff1660e01b81526004018080602001828103825283818151815260200191508051906020019080838360005b83811015610d75578082015181840152602081019050610d5a565b50505050905090810190601f168015610da25780820380516001836020036101000a031916815260200191505b5092505050600060405180830381600087803b158015610dc157600080fd5b505af1158015610dd5573d6000803e3d6000fd5b505050508073ffffffffffffffffffffffffffffffffffffffff1663565eeb5a866040518263ffffffff1660e01b81526004018080602001828103825283818151815260200191508051906020019080838360005b83811015610e45578082015181840152602081019050610e2a565b50505050905090810190601f168015610e725780820380516001836020036101000a031916815260200191505b5092505050600060405180830381600087803b158015610e9157600080fd5b505af1158015610ea5573d6000803e3d6000fd5b505050508073ffffffffffffffffffffffffffffffffffffffff1663cea1e858856040518263ffffffff1660e01b815260040180828152602001915050600060405180830381600087803b158015610efc57600080fd5b505af1158015610f10573d6000803e3d6000fd5b505050508073ffffffffffffffffffffffffffffffffffffffff166399aad941846040518263ffffffff1660e01b8152600401808273ffffffffffffffffffffffffffffffffffffffff1673ffffffffffffffffffffffffffffffffffffffff168152602001915050600060405180830381600087803b158015610f9357600080fd5b505af1158015610fa7573d6000803e3d6000fd5b505050508073ffffffffffffffffffffffffffffffffffffffff1663f98500086040518163ffffffff1660e01b8152600401600060405180830381600087803b158015610ff357600080fd5b505af1158015611007573d6000803e3d6000fd5b505050508073ffffffffffffffffffffffffffffffffffffffff16638a79aa7060006040518263ffffffff1660e01b815260040180806020018281038252838181546001816001161561010002031660029004815260200191508054600181600116156101000203166002900480156110c15780601f10611096576101008083540402835291602001916110c1565b820191906000526020600020905b8154815290600101906020018083116110a457829003601f168201915b505092505050600060405180830381600087803b1580156110e157600080fd5b505af11580156110f5573d6000803e3d6000fd5b505050508073ffffffffffffffffffffffffffffffffffffffff1663e5d235f4836040518263ffffffff1660e01b8152600401808273ffffffffffffffffffffffffffffffffffffffff1673ffffffffffffffffffffffffffffffffffffffff168152602001915050600060405180830381600087803b15801561117857600080fd5b505af115801561118c573d6000803e3d6000fd5b5050505060058190806001815401808255809150509060018203906000526020600020016000909192909190916101000a81548173ffffffffffffffffffffffffffffffffffffffff021916908373ffffffffffffffffffffffffffffffffffffffff16021790555050505050505050565b828054600181600116156101000203166002900490600052602060002090601f016020900481019282601f1061123f57805160ff191683800117855561126d565b8280016001018555821561126d579182015b8281111561126c578251825591602001919060010190611251565b5b50905061127a919061128b565b5090565b610cfa806112b183390190565b6112ad91905b808211156112a9576000816000905550600101611291565b5090565b9056fe608060405234801561001057600080fd5b50610cda806100206000396000f3fe608060405234801561001057600080fd5b50600436106101165760003560e01c8063a982bd50116100a2578063d40afd8b11610071578063d40afd8b146105e2578063d6edce1c1461062c578063e5d235f4146106e7578063e6e6b7c11461072b578063f98500081461078757610116565b8063a982bd501461047f578063b508ba31146104c3578063bf088e5714610546578063cea1e858146105b457610116565b8063557084ce116100e9578063557084ce14610224578063565eeb5a146102a75780636bcda13b146103625780638a79aa701461038057806399aad9411461043b57610116565b8063091841f11461011b5780631f4591dd1461019e5780632b64818f146101e8578063323046b114610206575b600080fd5b610123610791565b6040518080602001828103825283818151815260200191508051906020019080838360005b83811015610163578082015181840152602081019050610148565b50505050905090810190601f1680156101905780820380516001836020036101000a031916815260200191505b509250505060405180910390f35b6101a661082f565b604051808273ffffffffffffffffffffffffffffffffffffffff1673ffffffffffffffffffffffffffffffffffffffff16815260200191505060405180910390f35b6101f0610855565b6040518082815260200191505060405180910390f35b61020e610862565b6040518082815260200191505060405180910390f35b61022c610868565b6040518080602001828103825283818151815260200191508051906020019080838360005b8381101561026c578082015181840152602081019050610251565b50505050905090810190601f1680156102995780820380516001836020036101000a031916815260200191505b509250505060405180910390f35b610360600480360360208110156102bd57600080fd5b81019080803590602001906401000000008111156102da57600080fd5b8201836020820111156102ec57600080fd5b8035906020019184600183028401116401000000008311171561030e57600080fd5b91908080601f016020809104026020016040519081016040528093929190818152602001838380828437600081840152601f19601f820116905080830192505050505050509192919290505050610906565b005b61036a610920565b6040518082815260200191505060405180910390f35b6104396004803603602081101561039657600080fd5b81019080803590602001906401000000008111156103b357600080fd5b8201836020820111156103c557600080fd5b803590602001918460018302840111640100000000831117156103e757600080fd5b91908080601f016020809104026020016040519081016040528093929190818152602001838380828437600081840152601f19601f820116905080830192505050505050509192919290505050610926565b005b61047d6004803603602081101561045157600080fd5b81019080803573ffffffffffffffffffffffffffffffffffffffff169060200190929190505050610940565b005b6104c16004803603602081101561049557600080fd5b81019080803573ffffffffffffffffffffffffffffffffffffffff169060200190929190505050610984565b005b6104cb6109ed565b6040518080602001828103825283818151815260200191508051906020019080838360005b8381101561050b5780820151818401526020810190506104f0565b50505050905090810190601f1680156105385780820380516001836020036101000a031916815260200191505b509250505060405180910390f35b6105726004803603602081101561055c57600080fd5b8101908080359060200190929190505050610a8b565b604051808273ffffffffffffffffffffffffffffffffffffffff1673ffffffffffffffffffffffffffffffffffffffff16815260200191505060405180910390f35b6105e0600480360360208110156105ca57600080fd5b8101908080359060200190929190505050610ac7565b005b6105ea610ad1565b604051808273ffffffffffffffffffffffffffffffffffffffff1673ffffffffffffffffffffffffffffffffffffffff16815260200191505060405180910390f35b6106e56004803603602081101561064257600080fd5b810190808035906020019064010000000081111561065f57600080fd5b82018360208201111561067157600080fd5b8035906020019184600183028401116401000000008311171561069357600080fd5b91908080601f016020809104026020016040519081016040528093929190818152602001838380828437600081840152601f19601f820116905080830192505050505050509192919290505050610af7565b005b610729600480360360208110156106fd57600080fd5b81019080803573ffffffffffffffffffffffffffffffffffffffff169060200190929190505050610b11565b005b61076d6004803603602081101561074157600080fd5b81019080803573ffffffffffffffffffffffffffffffffffffffff169060200190929190505050610b55565b604051808215151515815260200191505060405180910390f35b61078f610bf7565b005b60018054600181600116156101000203166002900480601f0160208091040260200160405190810160405280929190818152602001828054600181600116156101000203166002900480156108275780601f106107fc57610100808354040283529160200191610827565b820191906000526020600020905b81548152906001019060200180831161080a57829003601f168201915b505050505081565b600760009054906101000a900473ffffffffffffffffffffffffffffffffffffffff1681565b6000600280549050905090565b60065481565b60008054600181600116156101000203166002900480601f0160208091040260200160405190810160405280929190818152602001828054600181600116156101000203166002900480156108fe5780601f106108d3576101008083540402835291602001916108fe565b820191906000526020600020905b8154815290600101906020018083116108e157829003601f168201915b505050505081565b806001908051906020019061091c929190610c00565b5050565b60035481565b806005908051906020019061093c929190610c00565b5050565b80600460006101000a81548173ffffffffffffffffffffffffffffffffffffffff021916908373ffffffffffffffffffffffffffffffffffffffff16021790555050565b60028190806001815401808255809150509060018203906000526020600020016000909192909190916101000a81548173ffffffffffffffffffffffffffffffffffffffff021916908373ffffffffffffffffffffffffffffffffffffffff1602179055505050565b60058054600181600116156101000203166002900480601f016020809104026020016040519081016040528092919081815260200182805460018160011615610100020316600290048015610a835780601f10610a5857610100808354040283529160200191610a83565b820191906000526020600020905b815481529060010190602001808311610a6657829003601f168201915b505050505081565b60028181548110610a9857fe5b906000526020600020016000915054906101000a900473ffffffffffffffffffffffffffffffffffffffff1681565b8060038190555050565b600460009054906101000a900473ffffffffffffffffffffffffffffffffffffffff1681565b8060009080519060200190610b0d929190610c00565b5050565b80600760006101000a81548173ffffffffffffffffffffffffffffffffffffffff021916908373ffffffffffffffffffffffffffffffffffffffff16021790555050565b600080600090505b600280549050811015610bec578273ffffffffffffffffffffffffffffffffffffffff1660028281548110610b8e57fe5b9060005260206000200160009054906101000a900473ffffffffffffffffffffffffffffffffffffffff1673ffffffffffffffffffffffffffffffffffffffff161415610bdf576001915050610bf2565b8080600101915050610b5d565b50600090505b919050565b42600681905550565b828054600181600116156101000203166002900490600052602060002090601f016020900481019282601f10610c4157805160ff1916838001178555610c6f565b82800160010185558215610c6f579182015b82811115610c6e578251825591602001919060010190610c53565b5b509050610c7c9190610c80565b5090565b610ca291905b80821115610c9e576000816000905550600101610c86565b5090565b9056fea265627a7a72315820f29f672dfef226ea937a7a7c1a082147ca9d1126f9ced13b786c4fd8a3cc44cb64736f6c63430005100032a265627a7a72315820590d26624f6ddab6f2bd04397b9e1ef49f5406be4a31b9a9e9fd59f5916e79d264736f6c63430005100032a365627a7a7231582093acff7fa9672b4a7424a56d18085a1b1bb3e9ca731e4516f6c2a7f8410f2e1f6c6578706572696d656e74616cf564736f6c63430005100040608060405234801561001057600080fd5b506104f9806100206000396000f3fe608060405234801561001057600080fd5b50600436106100415760003560e01c806338f032691461004657806353e1ead914610062578063f5ec2eed14610080575b600080fd5b610060600480360361005b91908101906102cc565b61009e565b005b61006a6100fa565b6040516100779190610368565b60405180910390f35b610088610120565b6040516100959190610383565b60405180910390f35b81600090805190602001906100b49291906101be565b5080600160006101000a81548173ffffffffffffffffffffffffffffffffffffffff021916908373ffffffffffffffffffffffffffffffffffffffff1602179055505050565b600160009054906101000a900473ffffffffffffffffffffffffffffffffffffffff1681565b60008054600181600116156101000203166002900480601f0160208091040260200160405190810160405280929190818152602001828054600181600116156101000203166002900480156101b65780601f1061018b576101008083540402835291602001916101b6565b820191906000526020600020905b81548152906001019060200180831161019957829003601f168201915b505050505081565b828054600181600116156101000203166002900490600052602060002090601f016020900481019282601f106101ff57805160ff191683800117855561022d565b8280016001018555821561022d579182015b8281111561022c578251825591602001919060010190610211565b5b50905061023a919061023e565b5090565b61026091905b8082111561025c576000816000905550600101610244565b5090565b90565b6000813590506102728161049f565b92915050565b600082601f83011261028957600080fd5b813561029c610297826103d2565b6103a5565b915080825260208301602083018583830111156102b857600080fd5b6102c383828461044c565b50505092915050565b600080604083850312156102df57600080fd5b600083013567ffffffffffffffff8111156102f957600080fd5b61030585828601610278565b925050602061031685828601610263565b9150509250929050565b6103298161041a565b82525050565b600061033a826103fe565b6103448185610409565b935061035481856020860161045b565b61035d8161048e565b840191505092915050565b600060208201905061037d6000830184610320565b92915050565b6000602082019050818103600083015261039d818461032f565b905092915050565b6000604051905081810181811067ffffffffffffffff821117156103c857600080fd5b8060405250919050565b600067ffffffffffffffff8211156103e957600080fd5b601f19601f8301169050602081019050919050565b600081519050919050565b600082825260208201905092915050565b60006104258261042c565b9050919050565b600073ffffffffffffffffffffffffffffffffffffffff82169050919050565b82818337600083830152505050565b60005b8381101561047957808201518184015260208101905061045e565b83811115610488576000848401525b50505050565b6000601f19601f8301169050919050565b6104a88161041a565b81146104b357600080fd5b5056fea365627a7a72315820f870e264e738bb41696905b0d10f103f4857608c02e8dce2a68f95c63e95b4296c6578706572696d656e74616cf564736f6c63430005100040a365627a7a723158207e62bfd0b0cd65b6df641e5f842001f8c09e60bb6ea4233dfae4cd85d1cf2b1b6c6578706572696d656e74616cf564736f6c63430005100040",
  "source": "// SPDX-License-Identifier: MIT\r\npragma solidity >=0.4.21 <0.7.0;\r\npragma experimental ABIEncoderV2;\r\nimport \"./Organisation.sol\";\r\nimport \"./Student.sol\";\r\nimport \"./Company.sol\";\r\n\r\ncontract OverAllTem {\r\n    Organisation[] public Orgaganisations;\r\n\r\n    Company[] public Companies;\r\n\r\n    struct studentToOrganisation {\r\n        address _studentAdd;\r\n        address _orgAddress;\r\n    }\r\n\r\n    studentToOrganisation[] public studentToOrganisationArray;\r\n\r\n    // student struct\r\n    struct student {\r\n        string name;\r\n        address addr;\r\n        uint256 studentUniqueId;\r\n        uint256 noOfCertificates;\r\n    }\r\n    // certificate struct\r\n    struct certificate {\r\n        string name;\r\n        uint256 uniqueId;\r\n        address issuedTo;\r\n        uint256 date;\r\n        address issuedBy;\r\n    }\r\n    // organisation struct\r\n    struct organisation {\r\n        string name;\r\n        address addr;\r\n        // uint256 noOfStudents;\r\n    }\r\n\r\n    // function give student Address got org address\r\n    function getStudentOrgAddress(address _stAddress)\r\n        public\r\n        view\r\n        returns (address)\r\n    {\r\n        for (uint256 i = 0; i < studentToOrganisationArray.length; i++) {\r\n            if (studentToOrganisationArray[i]._studentAdd == _stAddress) {\r\n                return studentToOrganisationArray[i]._orgAddress;\r\n            }\r\n        }\r\n        return address(0);\r\n    }\r\n\r\n    // function to get organisation by address\r\n    function getOrganisationByAddress(address _orgAddress)\r\n        public\r\n        view\r\n        returns (Organisation)\r\n    {\r\n        for (uint256 i = 0; i < Orgaganisations.length; i++) {\r\n            if (Orgaganisations[i].organisationAddress() == _orgAddress) {\r\n                return Orgaganisations[i];\r\n            }\r\n        }\r\n    }\r\n\r\n    // certificate functions\r\n    function addCertificate(\r\n        string memory _ipfs,\r\n        string memory _merklee,\r\n        uint256 cUnique,\r\n        address sUnique\r\n    ) public {\r\n        for (uint256 i = 0; i < Orgaganisations.length; i++) {\r\n            if (Orgaganisations[i].organisationAddress() == msg.sender) {\r\n                for (\r\n                    uint256 j = 0;\r\n                    j < Orgaganisations[i].noOfStudents();\r\n                    j++\r\n                ) {\r\n                    if (\r\n                        Orgaganisations[i].students(j).student_acc_address() ==\r\n                        sUnique\r\n                    ) {\r\n                        Orgaganisations[i].students(j).addCertificate(\r\n                            _ipfs,\r\n                            _merklee,\r\n                            cUnique,\r\n                            sUnique,\r\n                            Orgaganisations[i].organisationAddress()\r\n                        );\r\n                    }\r\n                }\r\n            }\r\n        }\r\n        // add certificate\r\n    }\r\n\r\n    // get student detail by unique id for auth two\r\n    function getStudentDetail()\r\n        public\r\n        view\r\n        returns (\r\n            string memory,\r\n            uint256,\r\n            string memory,\r\n            address,\r\n            uint256\r\n        )\r\n    {\r\n        for (uint256 i = 0; i < studentToOrganisationArray.length; i++) {\r\n            if (studentToOrganisationArray[i]._studentAdd == msg.sender) {\r\n                address _orgAddress = studentToOrganisationArray[i]._orgAddress;\r\n                for (uint256 j = 0; j < Orgaganisations.length; j++) {\r\n                    if (\r\n                        Orgaganisations[j].organisationAddress() == _orgAddress\r\n                    ) {\r\n                        for (\r\n                            uint256 k = 0;\r\n                            k < Orgaganisations[j].noOfStudents();\r\n                            k++\r\n                        ) {\r\n                            if (\r\n                                Orgaganisations[j]\r\n                                    .students(k)\r\n                                    .student_acc_address() == msg.sender\r\n                            ) {\r\n                                return (\r\n                                    Orgaganisations[i]\r\n                                        .students(k)\r\n                                        .student_name(),\r\n                                    Orgaganisations[i]\r\n                                        .students(k)\r\n                                        .student_unique_id(),\r\n                                    Orgaganisations[i].organisationName(),\r\n                                    Orgaganisations[i]\r\n                                        .students(k)\r\n                                        .student_acc_address(),\r\n                                    Orgaganisations[i]\r\n                                        .students(k)\r\n                                        .noOfCertificates()\r\n                                );\r\n                            }\r\n                        }\r\n                    }\r\n                }\r\n            }\r\n        }\r\n        return (\"\", 0, \"\", address(0), 0);\r\n    }\r\n\r\n    // add student\r\n    function addStudent(\r\n        string memory _name,\r\n        uint256 _uid,\r\n        address _orgAddr\r\n    ) public {\r\n        for (uint256 i = 0; i < Orgaganisations.length; i++) {\r\n            if (Orgaganisations[i].organisationAddress() == _orgAddr) {\r\n                Orgaganisations[i].addStudent(\r\n                    _name,\r\n                    _uid,\r\n                    msg.sender,\r\n                    _orgAddr\r\n                );\r\n\r\n                studentToOrganisationArray.push(\r\n                    studentToOrganisation(msg.sender, _orgAddr)\r\n                );\r\n            }\r\n        }\r\n    }\r\n\r\n    // add an company\r\n    function addCompany(string memory _companyName) public {\r\n        Company c = new Company();\r\n        c.addCompany(_companyName, msg.sender);\r\n        Companies.push(c);\r\n    }\r\n\r\n    // get allorganisation details\r\n    function getAllOrganisations() public view returns (organisation[] memory) {\r\n        organisation[] memory orgs = new organisation[](Orgaganisations.length);\r\n        for (uint256 i = 0; i < Orgaganisations.length; i++) {\r\n            orgs[i].name = Orgaganisations[i].organisationName();\r\n            orgs[i].addr = Orgaganisations[i].organisationAddress();\r\n        }\r\n        return orgs;\r\n    }\r\n\r\n    // addding organisation averall\r\n    function addOrganisation(string memory _organisationName) public {\r\n        Organisation org = new Organisation();\r\n        org.addOrganisation(_organisationName, msg.sender);\r\n        Orgaganisations.push(org);\r\n    }\r\n\r\n    // checking Organisation present or not\r\n    function checkOrganisation() public view returns (string memory) {\r\n        for (uint256 i = 0; i < Orgaganisations.length; i++) {\r\n            if (Orgaganisations[i].organisationAddress() == msg.sender) {\r\n                return Orgaganisations[i].organisationName();\r\n            }\r\n        }\r\n        return \"no\";\r\n    }\r\n\r\n    // checking student present or not\r\n    function checkStudent() public view returns (string memory) {\r\n        for (uint256 i = 0; i < Orgaganisations.length; i++) {\r\n            for (uint256 j = 0; j < Orgaganisations[i].noOfStudents(); j++) {\r\n                if (\r\n                    Orgaganisations[i].students(j).student_acc_address() ==\r\n                    msg.sender\r\n                ) {\r\n                    return \"yes\";\r\n                }\r\n            }\r\n        }\r\n        return \"no\";\r\n    }\r\n\r\n    // to get organsiation object\r\n    function getOrganisation() public view returns (Organisation) {\r\n        for (uint256 i = 0; i < Orgaganisations.length; i++) {\r\n            if (Orgaganisations[i].organisationAddress() == msg.sender) {\r\n                return Orgaganisations[i];\r\n            }\r\n        }\r\n    }\r\n\r\n    // to getorganisation details in university profile\r\n\r\n    function getOrganisationDetails()\r\n        public\r\n        view\r\n        returns (\r\n            string memory,\r\n            address,\r\n            uint256,\r\n            uint256,\r\n            uint256\r\n        )\r\n    {\r\n        for (uint256 i = 0; i < Orgaganisations.length; i++) {\r\n            if (Orgaganisations[i].organisationAddress() == msg.sender) {\r\n                return (\r\n                    Orgaganisations[i].organisationName(),\r\n                    msg.sender,\r\n                    Orgaganisations[i].noOfUniqueIds(),\r\n                    Orgaganisations[i].noOfStudents(),\r\n                    totalCertificates()\r\n                );\r\n            }\r\n        }\r\n    }\r\n\r\n    // returns all the students using struct\r\n\r\n    function getAllStudents() public view returns (student[] memory) {\r\n        Organisation org = getOrganisation();\r\n        student[] memory allStudents = new student[](org.noOfStudents());\r\n        for (uint256 i = 0; i < org.noOfStudents(); i++) {\r\n            student memory s = student(\r\n                org.students(i).student_name(),\r\n                org.students(i).student_acc_address(),\r\n                org.students(i).student_unique_id(),\r\n                org.students(i).noOfCertificates()\r\n            );\r\n            allStudents[i] = s;\r\n        }\r\n        return allStudents;\r\n    }\r\n\r\n    // returns no of certificates issued to by organisation\r\n    function totalCertificates() public view returns (uint256) {\r\n        Organisation org = getOrganisation();\r\n        uint256 total = 0;\r\n        for (uint256 i = 0; i < org.noOfStudents(); i++) {\r\n            total += org.students(i).noOfCertificates();\r\n        }\r\n        return total;\r\n    }\r\n\r\n    // returns all the certificates issued to by organisation\r\n    function getAllCertificates() public view returns (certificate[] memory) {\r\n        Organisation org = getOrganisation();\r\n        certificate[] memory allCertificates = new certificate[](\r\n            totalCertificates()\r\n        );\r\n        uint256 k = 0;\r\n        for (uint256 i = 0; i < org.noOfStudents(); i++) {\r\n            for (uint256 j = 0; j < org.students(i).noOfCertificates(); j++) {\r\n                certificate memory c = certificate(\r\n                    org.students(i).certifications(j).studentName(),\r\n                    org.students(i).certifications(j).certification_unique_id(),\r\n                    org.students(i).certifications(j).issued_to(),\r\n                    org.students(i).certifications(j).date(),\r\n                    org.students(i).certifications(j).issuedBy()\r\n                );\r\n                allCertificates[k] = c;\r\n                k++;\r\n            }\r\n        }\r\n        return allCertificates;\r\n    }\r\n\r\n    // adds an unique id to organisation by the organisation\r\n\r\n    function addStudentUniqueID(uint256 _id) public {\r\n        Organisation org = getOrganisation();\r\n        org.addStudentId(_id);\r\n    }\r\n}\r\n",
  "sourcePath": "D:/user_cherry/User/Projects/miniprojectF/contracts/OverAllTem.sol",
  "compiler": {
    "name": "solc",
    "version": "0.5.16+commit.9c3226ce.Emscripten.clang"
  },
  "schemaVersion": "3.2.3",
  "updatedAt": "2022-05-30T15:03:59.514Z",
  "devdoc": {
    "methods": {}
  },
  "userdoc": {
    "methods": {}
  }
}